:100000000C9434000C9446000C9446000C9446006A
:100010000C9446000C9446000C9446000C94460048
:100020000C9446000C9446000C9446000C94460038
:100030000C9446000C9446000C9446000C94460028
:100040000C9446000C9446000C9446000C94460018
:100050000C9446000C9446000C9446000C94460008
:100060000C9446000C94460011241FBECFEFD8E03C
:10007000DEBFCDBF21E0A0E0B1E001C01D92A03005
:10008000B207E1F70E94BD000C941F010C94000020
:10009000F894E4E6F0E080818E7F8083ACE7B0E006
:1000A0008C9180648C938C918F778C93EAE7F0E04D
:1000B0008081846080838081826080838081816090
:1000C00080838C918E7F8C938C918D7F8C938C917F
:1000D0008B7F8C938C91877F8C93808180628083CF
:1000E000ABE7B0E08C918E7F8C938C918E7F8C935C
:1000F0008C918E7F8C93AEE7B0E08C9181608C9375
:100100008081806880838081806480837894089572
:10011000F89484B1866084B91092850010928400AE
:1001200087E893E19093870080938600E0E8F0E011
:1001300080818068808380818F7B808380818062E2
:10014000808380818F7E808380818E7F8083808189
:1001500082608083E1E8F0E0808188608083808134
:1001600080618083808181608083808182608083E0
:1001700080818B7F80837894089587E690E00E9449
:1001800014010E9488000E944800E8E8F0E040E77F
:1001900052E02EE730E0A8E7B0E0808191818E3711
:1001A000910560F1808191818137924038F58D9180
:1001B0009C911197BC01660F771F660F771F860F02
:1001C000971F8115944030F480819181019791832C
:1001D000808323C08D919C911197BC01660F771F7E
:1001E000660F771F860F971F905181159440A8F4D2
:1001F000808191810196918380830FC0808191815C
:100200008E37910518F43183208307C08081918156
:100210008137924010F0518340838FE19EE4019733
:10022000F1F700C00000B9CF9093C5008093C400DF
:1002300088E18093C1008EE08093C2000895F89415
:02024000FFCFEE
:00000001FF
