:100000000C9434000C9446000C9446000C9446006A
:100010000C9446000C9446000C9446000C94460048
:100020000C9446000C9446000C9446000C94460038
:100030000C9446000C9446000C9446000C94460028
:100040000C9446000C9446000C9446000C94460018
:100050000C9446000C9446000C9446000C94460008
:100060000C9446000C94460011241FBECFEFD8E03C
:10007000DEBFCDBF21E0A0E0B1E001C01D92A03005
:10008000B207E1F70E94A6000C94F7000C94000060
:10009000F894E4E6F0E080818E7F8083ACE7B0E006
:1000A0008C9180648C938C918F778C93EAE7F0E04D
:1000B0008081846080838081826080838081816090
:1000C00080838C918E7F8C938C918D7F8C938C917F
:1000D0008B7F8C938C91877F8C93808180628083CF
:1000E000ABE7B0E08C918E7F8C938C918E7F8C935C
:1000F0008C918E7F8C93AEE7B0E08C9181608C9375
:100100008081806880838081806480837894089572
:10011000F894559A85B5846085BD85B58D7F85BD7C
:1001200085B5816085BD84B5816084BD84B58260FC
:1001300084BD85B5886085BD8FEF87BD87B5869501
:1001400088BD84B5806284BD7894089587E690E088
:100150000E94EC000E9488000E94480057E24BE099
:10016000E8E7F0E088B58B3020F188B5883208F5F3
:10017000808191819C01220F331F220F331F820F38
:10018000931F8115944020F488B5815088BD1AC012
:10019000808191819C01220F331F220F331F820F18
:1001A000931F90518115944068F488B58F5F88BD86
:1001B00009C088B58B3010F448BD04C088B58832BA
:1001C00008F058BD8FE798E321E08150904020402F
:1001D000E1F700C00000C6CF9093C5008093C40033
:1001E00088E18093C1008EE08093C2000895F89466
:0201F000FFCF3F
:00000001FF
