:100000000C94F4000C9411010C9411010C94110146
:100010000C9411010C9411010C94920D0C9411018B
:100020000C9411010C9411010C9411010C94110108
:100030000C9411010C9411010C9411010C941101F8
:100040000C9411010C9411010C9411010C941101E8
:100050000C9411010C9411010C9411010C941101D8
:100060000C9411010C9411013A173A173A176A17B8
:10007000721782173A173A176A177217036EDB3630
:100080003D9A9999993DABAAAA2A3E000000803F6B
:10009000084AD73B3BCE016E84BCBFFDC12F3D6CEF
:1000A00074319ABD56833DDA3D00C77F11BED9E455
:1000B000BB4C3E916BAAAABE000000803F072C7A81
:1000C000A5BA6CC590DA3B9365FC8BBC53F810FD68
:1000D0003C5692834DBD879D3AB63DCBC9BF5BBEB2
:1000E00073DA0FC93F006E616E00696E66000040F2
:1000F0007A10F35A00A0724E18090010A5D4E80037
:1001000000E87648170000E40B54020000CA9A3B4E
:10011000000000E1F50500008096980000004042D4
:100120000F000000A0860100000010270000000062
:10013000E803000000006400000000000A00000066
:1001400000000100000000002C76D888DC674F0812
:1001500023DFC1DFAE59E1B1B796E5E3E453C63A18
:10016000E651997696E8E6C28426EB898C9B62ED8F
:10017000407C6FFCEFBC9C9F40F2BAA56FA5F49049
:10018000055A2AF75C936B6CF9676DC11BFCE0E4C0
:100190000D47FEF520E6B500D0ED902E0300943516
:1001A00077050080841E080000204E0A000000C869
:1001B0000C333333330F986E12831141EF8D2114BA
:1001C000893BE65516CFFEE6DB18D1844B381BF78A
:1001D0007C1D901DA4BBE424203284725E22810029
:1001E000C9F124ECA1E53D2711241FBECFEFD8E0D3
:1001F000DEBFCDBF11E0A0E0B1E0EAEEF4E402C062
:1002000005900D92A035B107D9F722E0A0E5B1E045
:1002100001C01D92A136B207E1F70E9413010C94B0
:1002200073220C94000087E690E00E944D180E9413
:10023000AF170E94640B0E9433010E94A5010E9427
:10024000DA0188E0E2E2F1E0A7E2B2E001900D928B
:100250008A95E1F787E292E00E9464180E94D50334
:100260000E942F12FFCFF894E4E6F0E080818E7FA9
:100270008083ACE7B0E08C9180648C938C918F7715
:100280008C93EAE7F0E080818460808380818260E3
:1002900080838081816080838C918E7F8C938C9110
:1002A0008D7F8C938C918B7F8C938C91877F8C939B
:1002B000808180628083ABE7B0E08C918E7F8C93ED
:1002C0008C918E7F8C938C918E7F8C93AEE7B0E077
:1002D0008C9181608C938081806880838081806430
:1002E000808378940895BC01990F880B990B0E9424
:1002F0001C1A2AE737EC41E350E40E94341B20E04B
:1003000030E04AEF52E40E9474180E94EB19709397
:100310008900609388000895BC01990F880B990BA0
:100320000E941C1A2AE737EC41E350E40E94341B78
:1003300020E030E04AEF52E40E9474180E94EB196A
:1003400070938B0060938A000895F89484B186605E
:1003500084B9109285001092840087E893E190930D
:10036000870080938600E0E8F0E0808180688083E9
:1003700080818F7B808380818062808380818F7E7B
:10038000808380818E7F8083808182608083E1E8AA
:10039000F0E08081886080838081806180838081BB
:1003A0008160808380818260808380818B7F808375
:1003B00078940895F894559A85B5846085BD85B57F
:1003C0008D7F85BD85B5816085BD84B5816084BD27
:1003D00084B5826084BD85B5886085BD8FEF87BD9B
:1003E00087B5869588BD84B5806284BD789408956C
:1003F000CF93DF9300D0CDB7DEB70E9463129A830C
:10040000898308E710E00F2EFBE0FF2EF02D0F2E62
:10041000F7E2EF2EF02D61E070E0CE0101960E9430
:10042000AF13F8016081718180E090E00E941A1A98
:1004300060933102709332028093330290933402BE
:1004400020E030E048E454E40E94271B18163CF4F6
:1004500088B5815088BD88B58B3008F4F8BC20E0A1
:1004600030E046E953E460913102709132028091AC
:100470003302909134020E946D19882364F688B586
:100480008F5F88BD88B5883230F2E8BCC4CFCF9387
:10049000DF9300D0CDB7DEB70E9463129A838983C1
:1004A0000F2EF6E18F2EF1E09F2EF02D0F2EFAE0A9
:1004B0006F2EF1E07F2EF02D61E070E0CE0101960D
:1004C0000E94AF13D401AD90BD90CD90DC901397F6
:1004D000F301E084F184028513852481358146810E
:1004E000578160817181828193811B96EC911B976A
:1004F000EF931A96EC911A97EF931996EC9119973E
:10050000EF931896EC911897EF931796EC91179735
:10051000EF931696EC911697EF931596EC9115972D
:10052000EF931496EC91EF930E94F10485E392E02F
:100530000E9435080FB6F894DEBF0FBECDBFBCCF0A
:10054000CF93DF9300D0CDB7DEB70E9463129A83BA
:10055000898361E070E0CE0101960E94AF136AE0EA
:1005600071E086E191E00E947A09F3CFCF93DF93A7
:1005700000D0CDB7DEB70E9463129A8389830F2E15
:10058000F5E3CF2EF2E0DF2EF02D61E070E0CE013A
:1005900001960E94AF13F60180819181A281B381FF
:1005A000BC01CD01905860936C0170936D018093F4
:1005B0006E0190936F010481158126813781305837
:1005C000009368011093690120936A0130936B01D5
:1005D000E0906401F090650100916601109167015F
:1005E000209160013091610140916201509163015D
:1005F0000E94090460935C0170935D0180935E0129
:1006000090935F01E0905801F090590100915A01D8
:1006100010915B0120915401309155014091560198
:1006200050915701609168017091690180916A0150
:1006300090916B010E9409046093500170935101E5
:1006400080935201909353018090640190906501D2
:10065000A0906601B0906701C501B4010E94E41941
:100660009B01772324F422273327261B370BB9015C
:10067000330F880B990B0E941C1A2BED36EB4DECB7
:1006800051E40E946D198823D4F426E636E645E845
:1006900052E460916C0170916D0180916E019091B6
:1006A0006F010E947219A50194010E947418609351
:1006B0006401709365018093660190936701809156
:1006C0006C0190916D01A0916E01B0916F018093CA
:1006D000600190936101A0936201B09363018090E7
:1006E000580190905901A0905A01B0905B01C5014A
:1006F000B4010E94E4199B01772324F422273327B5
:10070000261B370BB901330F880B990B0E941C1A5B
:100710002BED36EB4DEC51E40E946D198823D4F497
:1007200026E636E645E852E4609168017091690179
:1007300080916A0190916B010E947219A501940148
:100740000E947418609358017093590180935A0164
:1007500090935B018091680190916901A0916A0179
:10076000B0916B018093540190935501A093560171
:10077000B093570160915C0170915D0180915E01C1
:1007800090915F010E94E419CB010E947301609176
:1007900050017091510180915201909153010E943A
:1007A000E419CB010E948C01F0CEEF92FF920F93DF
:1007B000E12CF12C03E020E030E040E051E06AE27F
:1007C00071E087E492E00E94131102E020E030E043
:1007D00040E051E060E371E080EA92E00E94131192
:1007E00004E020E030E040E051E066E371E086EBB9
:1007F00092E00E94131120E030E040E850E06CE30A
:1008000071E088EF91E00E9413110F91FF90EF903B
:1008100008954F925F926F927F928F929F92AF92C4
:10082000BF92CF92DF92EF92FF920F931F93CF93DD
:10083000DF9300D000D0CDB7DEB74B015C012901BA
:100840003A01E982FA820B831C832DEC3CEC4CE4E8
:100850005FE30E94341B6B017C0120E030E040E646
:1008600050E469817A818B819C810E94341B9B01B9
:10087000AC01C701B6010E9474186B017C01A30191
:100880009201C501B4010E94731820E030E0A90173
:100890000E94341B26E636E645E852E40E94341BEB
:1008A0009B01AC01C701B6010E9474186B017C0169
:1008B0006093700170937101809372019093730142
:1008C00020E030E04AEA52E40E94271B18166CF43C
:1008D00080E090E0AAEAB2E4809370019093710105
:1008E000A0937201B093730116C020E030E04AEA91
:1008F00052ECC701B6010E946D19882364F480E0B0
:1009000090E0AAEAB2EC8093700190937101A093F9
:100910007201B093730120E030E044EB52E4609147
:1009200070017091710180917201909173010E9428
:1009300074186093700170937101809372019093A9
:1009400073010F900F900F900F90DF91CF911F9137
:100950000F91FF90EF90DF90CF90BF90AF909F905E
:100960008F907F906F905F904F900895CF92DF921D
:10097000EF92FF920F931F938B019C013595279562
:10098000179507950F2EFFEDCF2EF9E5DF2EF7E334
:10099000EF2EFFE5FF2EF02DC01AD10AE20AF30A6E
:1009A00020E030E040E05FE30E94341BA7019601A5
:1009B0000E94341BA70196010E94341B9B01AC01CD
:1009C00060E070E080EC9FE30E947318A70196013D
:1009D0000E94341B1F910F91FF90EF90DF90CF90FA
:1009E00008954F925F926F927F928F929F92AF92F3
:1009F000BF92CF92DF92EF92FF920F931F93CF930C
:100A0000DF93CDB7DEB7A0970FB6F894DEBF0FBE69
:100A1000CDBF69877A878B879C872D873E874F87D5
:100A2000588BE98AFA8A0B8B1C8B20E030E0A901F5
:100A3000C601B5010E946D19811117C020E030E098
:100A4000A9016BA97CA98DA99EA90E946D1981118C
:100A50000CC020E030E0A9016FA978AD89AD9AAD56
:100A60000E946D19882309F450C1A6019501C601A1
:100A7000B5010E94341B2B013C012BA93CA94DA9B7
:100A80005EA9CA01B9010E94341B9B01AC01C301DC
:100A9000B2010E9474182B013C012FA938AD49AD59
:100AA0005AADCA01B9010E94341B9B01AC01C301BC
:100AB000B2010E9474180E94B6042B013C019B01F4
:100AC000AC01C601B5010E94341B698F7A8F8B8FF0
:100AD0009C8FA30192016BA97CA98DA99EA90E945C
:100AE000341B6D8F7E8F8F8F98A3A30192016FA906
:100AF00078AD89AD9AAD0E94341B6D837E838F8360
:100B000098878090880190908901A0908A01B09088
:100B10008B01409080015090810160908201709023
:100B20008301C0900601D0900701E0900801F09089
:100B300009018091840190918501A0918601B09175
:100B4000870189839A83AB83BC83A3019201C5018A
:100B5000B4010E94341B6D8B7E8B8F8B988F298103
:100B60003A814B815C81C701B6010E94341B9B0115
:100B7000AC016D897E898F89988D0E9473186D8B69
:100B80007E8B8F8B988FA7019601C501B4010E94BF
:100B9000341B4B015C0129813A814B815C81C3018B
:100BA000B2010E94341B9B01AC01C501B4010E943B
:100BB000741869837A838B839C83A7019601C7018C
:100BC000B6010E94341B20E030E040E05FE30E9469
:100BD00073186B017C01A3019201C301B2010E9451
:100BE000341B9B01AC01C701B6010E9474186B0154
:100BF0007C0110927C0110927D0110927E01109276
:100C00007F01109278011092790110927A0110926E
:100C10007B0110927401109275011092760110926E
:100C200077019B01AC016D8D7E8D8F8D98A10E9407
:100C3000341B4B015C0129813A814B815C816D81C0
:100C40007E818F8198850E94341B9B01AC01C50178
:100C5000B4010E9473189B01AC0169857A858B856C
:100C60009C850E94741869877A878B879C872D8959
:100C70003E894F89588D6D817E818F8198850E9434
:100C8000341B4B015C01A7019601698D7A8D8B8D18
:100C90009C8D0E94341B9B01AC01C501B4010E94D4
:100CA00073189B01AC016D857E858F8598890E94A4
:100CB00074186D877E878F87988B29813A814B8145
:100CC0005C81698D7A8D8B8D9C8D0E94341B6B01AC
:100CD0007C012D893E894F89588D6D8D7E8D8F8D3C
:100CE00098A10E94341B9B01AC01C701B6010E9470
:100CF00073189B01AC0169897A898B899C890E9450
:100D00007418698B7A8B8B8B9C8B2FE133EA45EFC0
:100D10005BE369857A858B859C850E94341B698796
:100D20007A878B879C872FE133EA45EF5BE36D85FC
:100D30007E858F8598890E94341B6D877E878F877B
:100D4000988B2FE133EA45EF5BE369897A898B89D8
:100D50009C890E94341B698B7A8B8B8B9C8B809136
:100D6000060190910701A0910801B09109018983C2
:100D70009A83AB83BC83C0908801D0908901E090B6
:100D80008A01F0908B018091840190918501A0915E
:100D90008601B09187018D839E83AF83B887409091
:100DA0008001509081016090820170908301C701A1
:100DB000B601905829853A854B855C850E94341B85
:100DC0004B015C012D813E814F8158856D857E856B
:100DD0008F8598890E94341B9B01AC01C501B40129
:100DE0000E9473184B015C01A301920169897A8901
:100DF0008B899C890E94341B9B01AC01C501B40105
:100E00000E94731829813A814B815C810E94741879
:100E1000698F7A8F8B8F9C8F29813A814B815C817E
:100E200069857A858B859C850E94341B4B015C010A
:100E30002D813E814F81588569897A898B899C896A
:100E40000E94341B9B01AC01C501B4010E947418BF
:100E50004B015C01A30192016D857E858F85988988
:100E60000E94341B9B01AC01C501B4010E947318A0
:100E7000A70196010E9474186D8F7E8F8F8F98A3A3
:100E800029813A814B815C816D857E858F8598892A
:100E90000E94341B4B015C01A701960169897A8984
:100EA0008B899C890E94341B9B01AC01C501B40154
:100EB0000E9473184B015C01A301920169857A8538
:100EC0008B859C850E94341B9B01AC01C501B4013C
:100ED0000E9474182D813E814F8158850E9474189C
:100EE0006D8B7E8B8F8B988F29813A814B815C81B2
:100EF00069897A898B899C890E94341B4B015C012A
:100F0000A70196016D857E858F8598890E94341B87
:100F10009B01AC01C501B4010E9474186B017C01F6
:100F20002D813E814F81588569857A858B859C8589
:100F30000E94341B9B01AC01C701B6010E947318CB
:100F4000A30192010E9474184B015C01298D3A8D16
:100F50004B8D5C8DCA01B9010E94341B6B017C0171
:100F60002D8D3E8D4F8D58A1CA01B9010E94341BB1
:100F70009B01AC01C701B6010E9474186B017C0192
:100F80002D893E894F89588DCA01B9010E94341BB1
:100F90009B01AC01C701B6010E9474186B017C0172
:100FA000A5019401C501B4010E94341B9B01AC0151
:100FB000C701B6010E9474180E94B6046B017C013F
:100FC0009B01AC01698D7A8D8B8D9C8D0E94341BA9
:100FD00060930601709307018093080190930901C3
:100FE000A70196016D8D7E8D8F8D98A10E94341B77
:100FF000609388017093890180938A0190938B019B
:10100000A70196016D897E898F89988D0E94341B76
:10101000609384017093850180938601909387018A
:10102000A7019601C501B4010E94341B60938001A1
:10103000709381018093820190938301A0960FB6F3
:10104000F894DEBF0FBECDBFDF91CF911F910F91FE
:10105000FF90EF90DF90CF90BF90AF909F908F90D8
:101060007F906F905F904F9008954F925F926F9234
:101070007F928F929F92AF92BF92CF92DF92EF9228
:10108000FF92CF93DF93CDB7DEB72E970FB6F894CC
:10109000DEBF0FBECDBF9E878D87C0908401D090EC
:1010A0008501E0908601F09087018090800190900A
:1010B0008101A0908201B0908301409088015090FE
:1010C000890160908A0170908B0160910601709196
:1010D000070180910801909109019B01AC010E94D8
:1010E000741869877A878B879C8720E030E040E01E
:1010F00050ECC701B6010E94341BA70196010E9463
:10110000341B69837A838B839C83A5019401C50179
:10111000B4010E947418A50194010E94341B9B0124
:10112000AC0169817A818B819C810E94731820E0D7
:1011300030E040E85FE30E94741869837A838B8310
:101140009C83A3019201C301B2010E947418A701FC
:1011500096010E94341B6D837E838F839887298537
:101160003A854B855C85C501B4010E94341B9B0107
:10117000AC016D817E818F8198850E9474182981D0
:101180003A814B815C810E940E1923E333E345E6EB
:1011900052E40E94341BED85FE856087718782874B
:1011A000938720E030E040E050ECC301B2010E94A0
:1011B000341B69837A838B839C839B01AC01C501BB
:1011C000B4010E94341B6D837E838F8398872985A9
:1011D0003A854B855C85C701B6010E94341B9B0193
:1011E000AC016D817E818F8198850E9474180E9468
:1011F000E01823E333E345E652E40E94341BED8517
:10120000FE856483758386839783A7019601C70152
:10121000B6010E9474186D837E838F83988729811D
:101220003A814B815C81C301B2010E94341B698306
:101230007A838B839C832D813E814F815885C701A2
:10124000B6010E94341B9B01AC0169817A818B81BC
:101250009C810E94731820E030E040E85FE30E9428
:1012600074186B017C012D813E814F815885C50129
:10127000B4010E94341B4B015C0129853A854B85E2
:101280005C85C301B2010E94341B9B01AC01C50106
:10129000B4010E947418A70196010E940E1923E35D
:1012A00033E345E652E40E94341BED85FE856083FE
:1012B0007183828393832E960FB6F894DEBF0FBEA0
:1012C000CDBFDF91CF91FF90EF90DF90CF90BF9097
:1012D000AF909F908F907F906F905F904F90089508
:1012E00080ED0E94E4178BE30E94201881ED0E949C
:1012F000B51708954F925F926F927F92AF92BF920F
:10130000CF92DF92EF92FF920F931F93CF93DF93D1
:101310008C01EB010E9470090E943718F82E0E9480
:1013200037186F2D70E0762F6627682B072E000C7C
:10133000880B990B0E941C1AF801608371838283C9
:1013400093830E943718F82E0E9437186F2D70E093
:10135000762F6627682B072E000C880B990B0E94AE
:101360001C1AF80164837583868397830E9437185B
:10137000F82E0E9437186F2D70E0762F6627682BA5
:10138000072E000C880B990B0E941C1AF80160872D
:101390007187828793870E943718F82E0E9437182A
:1013A0006F2D70E0762F6627682B072E000C880BB8
:1013B000990B0E941C1A6093410270934202809321
:1013C0004302909344020E943718F82E0E94371867
:1013D0006F2D70E0762F6627682B072E000C880B88
:1013E000990B0E941C1A688379838A839B830E94CD
:1013F0003718F82E0E9437186F2D70E0762F662769
:10140000682B072E000C880B990B0E941C1A6C830A
:101410007D838E839F830E943718F82E0E94421886
:101420006F2D70E0762F6627682B072E000C880B37
:10143000990B0E941C1A688779878A879B870E946C
:10144000DB170F2EF5E4EF2EF2E0FF2EF02D0F2E1E
:10145000F1E5CF2EF2E0DF2EF02D0F2EF1E5AF2ECD
:10146000F2E0BF2EF02DF701419051906190719004
:101470007F0120E030E040E051E4F80160817181BB
:10148000828193810E94341B2DEC3CEC4CE151E4B1
:101490000E94341B20E030E040E058E30E94341BFF
:1014A000A30192010E947318F801619371938193D3
:1014B00091938F01F60141905190619071906F016D
:1014C00020E030E04AE754E4688179818A819B8199
:1014D0000E94341B20E030E040E058E30E94341BBF
:1014E00020E030E044E353E40E94721923EC35EF2E
:1014F00048E450E40E94341BA30192010E94731837
:101500006993799389939993EA14FB0409F0ABCF1B
:10151000DF91CF911F910F91FF90EF90DF90CF90CF
:10152000BF90AF907F906F905F904F9008952F92F3
:101530003F924F925F926F927F928F929F92AF9263
:10154000BF92CF92DF92EF92FF920F931F93CF93B0
:10155000DF9300D000D0CDB7DEB71C0169837A835A
:10156000812C912C5C018CE0A80EB11C69817A81E0
:10157000C1010E947A0971010F2EF8E96F2EF1E086
:101580007F2EF02DC980DA800F2EFCE84F2EF1E07F
:101590005F2EF02D82017C826B82F70121913191C7
:1015A000419151917F01EB81FC8160817181828148
:1015B00093810E947418EB81FC81619371938193F4
:1015C0009193FC83EB83F6012191319141915191EB
:1015D0006F01F80160817181828193810E9474188A
:1015E000F80161937193819391938F01EA14FB0445
:1015F000A1F6FFEF8F1A9F0A88EE881683E09806FF
:1016000009F0B4CF05E412E0E1E5F2E0FC83EB83FE
:101610000F2EF4EAEF2EF1E0FF2EF02DF301619191
:101620007191819191913F0120E030E04AE754E4CB
:101630000E947219F80161937193819391938F01C4
:10164000F20161917191819191912F0120E030E03F
:101650004AE754E40E947219EB81FC816193719313
:1016600081939193FC83EB836E147F04B9F620E0A1
:1016700030E040E251E460914D0270914E02809161
:101680004F02909150020E94731860934D02709324
:101690004E0280934F02909350020F900F900F9044
:1016A0000F90DF91CF911F910F91FF90EF90DF90FE
:1016B000CF90BF90AF909F908F907F906F905F90F2
:1016C0004F903F902F9008958BE792E90197F1F7A3
:1016D00000C0000080ED0E94E4178BE60E942018F5
:1016E00081E00E9420180E94DB1780ED0E94E41721
:1016F0008AE10E94201885E00E9420180E94DB17D2
:1017000080ED0E94E4178BE10E94201880E10E9486
:1017100020180E94DB1780ED0E94E4178CE10E94E4
:10172000201880E10E9420180E94DB1780ED0E94A3
:10173000E41788E30E94201881E00E9420180E948C
:10174000DB1780ED0E94E41789E10E94201887E0F2
:101750000E9420180E94DB176AE071E086E191E0A8
:101760000E94970A0895CF93DF93EC010E945D12C7
:10177000CE010E94BA1FEC010E942C13209711F495
:101780000E94F10BCE01DF91CF910895CF93DF93AB
:10179000009741F0EC010E945D12CE010E945220A0
:1017A0000E942C13DF91CF9108958FE380937E00E8
:1017B00080B7877F80BF80B7806880BF83B7817F15
:1017C00083BF0FB6F8940F9283B7816083BF85B74C
:1017D000806685BF8F7D85BF0F900FBE889513BE35
:1017E0000895259A2D9A83ED90E30197F1F700C0B3
:1017F00000001D9AF8CF259A2D9A2FE78AE196E0EE
:10180000215080409040E1F700C000001D9AF5CFC4
:10181000FC010396928381832FEF3FEF3483238370
:10182000968385839087878310820895FC011186B3
:1018300010860895CF93DF939C01FB01DC01119684
:10184000CD91DC911297D383C2838C819D81958346
:1018500084838C819D81DC0113967C936E93129717
:101860007D836C8331872087F90180818F5F80833E
:10187000DF91CF910895CF93DF93EB014881598198
:101880004F3F2FEF520721F4FC01A781B0850DC017
:10189000DC01139601C0DF011296ED91FC911397C4
:1018A0002081318142175307B0F71296ED91FC91D8
:1018B0001397FB83EA83D583C483BD83AC831396DC
:1018C000DC93CE93129799878887FC0120812F5F44
:1018D0002083DF91CF910895CF93DF93FC01A08502
:1018E000B185C281D381848195819D838C83C4819C
:1018F000D581828193819B838A8311968D919C915E
:101900001297E817F90731F48481958112969C9318
:101910008E931197118610868C9181508C938C91A7
:10192000DF91CF910895FC016083319770833197E7
:101930001082319720E82083319710827797408377
:101940003197508383970895A89590EC88E10FB65E
:10195000F894A895809360000FBE90936000A091CA
:101960000902B0910A02CD91CDBFDD91DEBFFF919A
:10197000EF91DF91CF91BF91AF919F918F917F9127
:101980006F915F914F913F912F911F910F91FF9018
:10199000EF90DF90CF90BF90AF909F908F907F900F
:1019A0006F905F904F903F902F901F900F900FBEC1
:1019B0000F90089581E008950F920FB6F8940F925A
:1019C0001F9211242F923F924F925F926F927F92BB
:1019D0008F929F92AF92BF92CF92DF92EF92FF923F
:1019E0000F931F932F933F934F935F936F937F9327
:1019F0008F939F93AF93BF93CF93DF93EF93FF9317
:101A0000A0910902B0910A020DB60D920EB60D9288
:101A10000E94ED13A0910902B0910A02CD91CDBFB1
:101A2000DD91DEBFFF91EF91DF91CF91BF91AF913B
:101A30009F918F917F916F915F914F913F912F91E6
:101A40001F910F91FF90EF90DF90CF90BF90AF90DC
:101A50009F908F907F906F905F904F903F902F90CE
:101A60001F900F900FBE0F9008950F920FB6F8942D
:101A70000F921F9211242F923F924F925F926F927A
:101A80007F928F929F92AF92BF92CF92DF92EF920E
:101A9000FF920F931F932F933F934F935F936F93F7
:101AA0007F938F939F93AF93BF93CF93DF93EF93E6
:101AB000FF93A0910902B0910A020DB60D920EB6E5
:101AC0000D9213BE0E946D1281110E94ED13A09120
:101AD0000902B0910A02CD91CDBFDD91DEBFFF9129
:101AE000EF91DF91CF91BF91AF919F918F917F91B6
:101AF0006F915F914F913F912F911F910F91FF90A7
:101B0000EF90DF90CF90BF90AF909F908F907F909D
:101B10006F905F904F903F902F901F900F900FBE4F
:101B20000F9008950E94350D18950FB6F8940F92F6
:101B3000FC01928D0F900FBE81E0911180E008951D
:101B40000F931F93CF93DF93EC01042F1A8D4C8DCD
:101B500041110CC088819981892B09F042C08C8188
:101B60009D810E9434151D821C8242C0011117C044
:101B700050E08A819B810E94BE212C8D8A819B81AD
:101B8000820F911D9B838A832C813D81821793074D
:101B900050F1888199819B838A8380E029C050E03D
:101BA0008E819F810E94BE218C8D90E091958195C0
:101BB00091092E813F81280F391F3F832E83488151
:101BC00059812417350730F42C813D81820F931FF2
:101BD0009F838E83023049F4112349F0115080E035
:101BE00007C080E005C080E003C080E001C080E065
:101BF0001F5F1A8FDF91CF911F910F910895FC0104
:101C0000448D4423A9F050E026813781240F351FED
:101C100037832683848195812817390720F08081B6
:101C2000918197838683CB01668177810E94BE2153
:101C30000895EF92FF920F931F93CF938C010FB6ED
:101C4000F8940F92FC01C68D1C16ACF481898111A9
:101C500006C011C0F8018189811105C00CC078014E
:101C6000F1E1EF0EF11CC7010E94991481110E944D
:101C70002215C15079F78FEFF801868F0F900FBEB4
:101C80000FB6F8940F92C58D1C16ACF480858111A7
:101C900006C011C0F8018085811105C00CC0780113
:101CA000F8E0EF0EF11CC7010E94991481110E9407
:101CB0002215C15079F78FEFF801858F0F900FBE75
:101CC000CF911F910F91FF90EF900895CF93DF93E5
:101CD000EC010FB6F8940F92E881F9818B8D2C8D71
:101CE00090E030E0829FA001839F500D929F500DA5
:101CF00011244E0F5F1F5D834C831A8EFB83EA8392
:101D00000197829FA001839F500D929F500D112437
:101D1000CF01840F951F9F838E838FEF8D8F8E8FC2
:101D200061110CC08885882389F0CE0108960E9435
:101D30009914882359F00E94DC0C08C0CE01089643
:101D40000E94080CCE0141960E94080C0F900FBE15
:101D500081E0DF91CF9108950F931F93CF93DF938D
:101D6000082F162F869FC00111244F960E94B30B97
:101D7000EC01009771F0111103C09983888303C0AF
:101D80004F96998388830B8F1C8F61E0CE010E9450
:101D9000660ECE01DF91CF911F910F9108959F9212
:101DA000AF92BF92CF92DF92EF92FF920F931F9369
:101DB000CF93DF9300D000D01F92CDB7DEB78C0158
:101DC0006B015D834C83A22EB12C992493947C01EA
:101DD00088E0E80EF11C0FB6F8940F92F801928D8E
:101DE000838D981718F0F2E0AF1219C04A2DB60192
:101DF000C8010E94A00DF8019189992349F0C801FA
:101E000041960E949914882331F00E94DC0C03C093
:101E100081110E94DC0C0F900FBE81E050C08C81BC
:101E20009D81892B21F40F900FBE80E048C0B11036
:101E300005C0CE0101960E94E114B92C0F900FBE8F
:101E40000E945D120FB6F8940F92F801858D8F3FB6
:101E500009F4158EF801868D8F3F09F4168E0F90C8
:101E60000FBEBE016C5F7F4FCE0101960E94EC1445
:101E700081111FC00FB6F8940F92F801928D838DD7
:101E80000F900FBE98130FC06C817D81C7010E9417
:101E90006E14C8010E94190E0E942C1381119BCF51
:101EA0000E94DC0C98CFC8010E94190E0E942C13CE
:101EB00092CFC8010E94190E0E942C1380E00F904F
:101EC0000F900F900F900F90DF91CF911F910F9176
:101ED000FF90EF90DF90CF90BF90AF909F900895CC
:101EE000EF92FF920F931F93CF93DF938A01FC0130
:101EF000528D338D531710F0223001F5422F7801A7
:101F0000EC011E8D8A8DCE010E94A00D1F3F81F431
:101F100089898823A9F0CE0141960E9499148823CB
:101F200089F0E114F10481F081E0F70180830DC0B4
:101F3000FF24F394F10EFE8E81E007C080E005C01F
:101F400081E003C081E001C081E0DF91CF911F916A
:101F50000F91FF90EF9008959F92AF92BF92CF9212
:101F6000DF92EF92FF920F931F93CF93DF9300D0F6
:101F700000D01F92CDB7DEB78C015B015D834C832F
:101F8000E12C992493946C0181E1C80ED11C0FB609
:101F9000F8940F92F801F28CFF20A9F0B501C80166
:101FA0000E94FF0DFA94F801F28E8085882339F0A3
:101FB000C80108960E94991481110E94DC0C0F90B0
:101FC0000FBE81E051C08C819D81892B21F40F903F
:101FD0000FBE80E049C0E11005C0CE0101960E940D
:101FE000E114E92C0F900FBE0E945D120FB6F89419
:101FF0000F92F801858D8F3F09F4158EF801868DBB
:102000008F3F09F4168E0F900FBEBE016C5F7F4F9D
:10201000CE0101960E94EC1481111AC0C8010E94E1
:10202000950D882379F06C817D81C6010E946E1424
:10203000C8010E94190E0E942C138111A8CF0E9482
:10204000DC0CA5CFC8010E94190E0E942C139FCF53
:10205000C8010E94190E0E942C13C8010E94950D00
:10206000882309F494CF80E00F900F900F900F9089
:102070000F90DF91CF911F910F91FF90EF90DF9024
:10208000CF90BF90AF909F900895CF93DF93EC01D6
:102090000FB6F8940F928D8D8F3F09F41D8E8E8DA3
:1020A0008F3F09F41E8E0F900FBE8A8D811104C0E0
:1020B000CE0141960E948014CE010E94190EDF913C
:1020C000CF910895E091D101F091D20180818111E9
:1020D00007C08FEF9FEF9093A8018093A701089509
:1020E000E091D101F091D2010580F681E02D0680CA
:1020F000F781E02D828193819093A8018093A701BD
:102100000895FF920F931F93CF93DF93EC01F62E68
:102110000091B0011091B1018091090290910A02E1
:1021200002960E946C0CCF3F8FEFD80769F4FF2016
:1021300059F06091090270910A026E5F7F4F83EB44
:1021400091E00E941A0C2FC0C00FD11FE09109022C
:10215000F0910A02D383C283C017D10768F460915B
:10216000090270910A028091CF019091D0016E5FB7
:102170007F4F0E943B0C17C06091090270910A02C8
:102180008091D1019091D2016E5F7F4F0E943B0CF4
:102190008091A7019091A801C817D90720F4D09386
:1021A000A801C093A701DF91CF911F910F91FF90DC
:1021B00008950DEB11E00F2EF5EEEF2EF1E0FF2E5E
:1021C000F02D8091BC01882329F10FB6F8940F926D
:1021D000D8011596ED91FC911697C681D781CE0155
:1021E00002960E946C0C8091B20181508093B201E2
:1021F0008091BC0181508093BC010F900FBE8F89EC
:10220000988D0E94C60BCE010E94C60B8091BC0126
:102210008111DBCFF7018081823010F00E94DC0C4D
:102220000E94D50BCECF4F925F926F927F928F928A
:102230009F92AF92BF92CF92DF92EF92FF920F9355
:10224000CF93DF934C016B015A012901CA010E940F
:10225000B30B3C01892B09F4F1C088E290E00E94A5
:10226000B30BEC01892B99F0788E6F8AA50165EA92
:1022700070E0C3010E94C72181E0A81AB1088F89CC
:10228000988DA80EB91EC114D10429F420C0C30131
:102290000E94C60BD3C0D6018C91898F8C91882364
:1022A000A1F0AE01465E5F4FF6013196B8E0CB0E6D
:1022B000D11CCF012191DA012D93AD01DC018C916C
:1022C000882319F0EC15FD05A1F718A201C0198E9D
:1022D000043008F003E00E8B09A31AA26E01B2E0ED
:1022E000CB0ED11CC6010E94160CCE010C960E948A
:1022F000160CD987C88784E090E0801B91099D87E0
:102300008C87DB8BCA8B1BA21CA21DA21EA21FA244
:10231000A201B401C5010E94930C99838883E11442
:10232000F10419F0F701D183C0830FB6F8940F922E
:102330008091B2018F5F8093B201809109029091E8
:102340000A02892BD1F5D0930A02C0930902809129
:10235000B201813009F041C085EE91E00E94080C85
:102360008EEE91E00E94080C87EF91E00E94080C2D
:1023700080E092E00E94080C8CED91E00E94080C35
:1023800083ED91E00E94080C86EC91E00E94080C1D
:102390008DEB91E00E94080C83EB91E00E94080C09
:1023A0008CED91E09093D2018093D10183ED91E087
:1023B0009093D0018093CF0110C08091AE01811124
:1023C0000CC0E0910902F0910A0296898E89891762
:1023D00020F0D0930A02C09309028091A9018F5F77
:1023E0008093A9018E899091AF01981710F4809382
:1023F000AF0190E09C01220F331F220F331F220FE9
:10240000331F820F931FB6018B519E4F0E941A0CEF
:102410000F900FBE8091AE01882361F0E091090218
:10242000F0910A0296898E89981730F40E94DC0C8C
:1024300081E005C081E003C081E001C08FEFDF9142
:10244000CF910F91FF90EF90DF90CF90BF90AF9022
:102450009F908F907F906F905F904F900895EF9234
:10246000FF920F930F2EF5EAEF2EF1E0FF2EF02DE5
:1024700000E020E030E045E550E062E471E089ED05
:1024800090E10E9413118130A1F40E94CC1581309B
:1024900081F4F8948FEF9FEF9093A8018093A701A8
:1024A00081E08093AE011092B1011092B0010E94C0
:1024B000A40C0F91FF90EF9008958091A4018F5F7D
:1024C0008093A40108950FB6F8940F928091B00103
:1024D0009091B1010F900FBE0895CF92DF92EF92CD
:1024E000FF920F931F93CF93DF938091A4018111EB
:1024F0009FC0E090B001F090B1018FEFE81AF80AA8
:10250000F092B101E092B001E114F104B9F48091CC
:10251000D1019091D2012091CF013091D00130931F
:10252000D2012093D1019093D0018093CF0180916B
:10253000AA018F5F8093AA010E9462108091A70177
:102540009091A801E816F90610F4D12C53C0D12CB3
:10255000CC24C394E091D101F091D201808181110A
:1025600007C08FEF9FEF9093A8018093A70142C00F
:10257000E091D101F091D2010580F681E02DC68174
:10258000D7818A819B81E816F90628F49093A801E7
:102590008093A7012FC08E010E5F1F4FC8010E94BC
:1025A0006C0C8C899D89892B21F0CE010C960E94A0
:1025B0006C0C8E899091AF01981710F48093AF0145
:1025C00090E09C01220F331F220F331F220F331F75
:1025D000820F931FB8018B519E4F0E941A0CE091FD
:1025E0000902F0910A029E898689981708F4B2CFF1
:1025F000DC2CB0CFE0910902F0910A02868990E0CC
:10260000FC01EE0FFF1FEE0FFF1FEE0FFF1F8E0FDF
:102610009F1FFC01EB51FE4F8081823010F0DD24C2
:10262000D3948091AB01882369F0DD24D3940AC050
:102630008091AC019091AD0101969093AD01809392
:10264000AC01D12C8D2DDF91CF911F910F91FF9077
:10265000EF90DF90CF900895DF92EF92FF920F936B
:102660001F93CF93DF930FB6F8940F928091A4013C
:1026700081508093A4018091A401811163C0809155
:10268000B201811133C061C0D7011596ED91FC9163
:102690001697C681D781CE010C960E946C0C8E01D4
:1026A0000E5F1F4FC8010E946C0C8E899091AF0184
:1026B000981710F48093AF0190E09C01220F331F14
:1026C000220F331F220F331F820F931FB8018B512C
:1026D0009E4F0E941A0CE0910902F0910A029E8915
:1026E0008689981768F0D092AB010AC0C0E0D0E0AC
:1026F0000F2EF6ECEF2EF1E0FF2EF02DDD24D3941B
:10270000F70180818111C0CFCD2B11F00E946210A2
:10271000C091AC01D091AD01209761F011E00E9411
:102720006D1281111093AB012197C9F71092AD0181
:102730001092AC018091AB01882331F00E94DC0C37
:1027400081E003C080E001C080E00F900FBEDF9108
:10275000CF911F910F91FF90EF90DF9008950F930D
:102760001F93CF93DF938C01EB010E945D12409188
:10277000B0015091B101F80120813181C9018C0F64
:102780009D1F4217530748F482179307E8F491837B
:1027900080834817590768F407C08217930780F0B1
:1027A0004817590768F010C060E0841B950B0E9421
:1027B00081100E942C1381110BC00E94DC0C08C0F8
:1027C000F80191838083F0CFF80191838083F1CF6A
:1027D000DF91CF911F910F9108958091A4018823DB
:1027E00021F081E08093AB0108951092AB01A0919C
:1027F0000902B0910A02E0910902F0910A022D91BA
:102800003C918789908D8217930760F0609109024F
:1028100070910A028091090290910A02675E7F4FCF
:102820000E94FB0B2091AF01822F90E0FC01EE0F84
:10283000FF1FEE0FFF1FEE0FFF1FE80FF91FEB51F9
:10284000FE4F3081311111C02150822F90E0FC01E8
:10285000EE0FFF1FEE0FFF1FEE0FFF1FE80FF91F18
:10286000EB51FE4F3081332379F3AC01440F551FF8
:10287000440F551F440F551F480F591FDA01AB5124
:10288000BE4F1196ED91FC9112970280F381E02DDD
:102890001296FC93EE93119748515E4FE417F5079B
:1028A00029F442815381FD0152834183FC01EE0FE3
:1028B000FF1FEE0FFF1FEE0FFF1F8E0F9F1FFC016C
:1028C000EB51FE4F0180F281E02D8681978190933C
:1028D0000A02809309022093AF010895CF93DF93FA
:1028E000EB016091090270910A02645F7F4F0E94C0
:1028F0003B0C61E0CE010E948110DF91CF910895E1
:102900000F931F93CF938B01C42F60910902709195
:102910000A02645F7F4F0E941A0CCC2311F00FEF64
:102920001FEF6C2FC8010E948110CF911F910F9152
:1029300008950F931F93CF93DF93DC011596ED91CC
:10294000FC911697C681D7818E01045F1F4FC80185
:102950000E946C0C8091A40181111CC00A501109C5
:10296000C8010E946C0C8E899091AF01981710F4E9
:102970008093AF0190E09C01220F331F220F331F81
:10298000220F331F820F931FB8018B519E4F0E945D
:102990001A0C05C0B80186EC91E00E941A0CE09177
:1029A0000902F0910A029E898689891720F481E044
:1029B0008093AB0101C080E0DF91CF911F910F9117
:1029C00008952091AA01FC0120832091B00130914B
:1029D000B101328321830895CF93DF930FB6F8942A
:1029E0000F922091B0013091B101DB014D915C91CA
:1029F0004F3FBFEF5B07F1F0EC01E981FA81A09155
:102A0000AA01B881BA1719F02E173F07A8F42E1B98
:102A10003F0B2417350748F4FB01421B530B51832E
:102A200040830E94E11480E008C0FB011182108203
:102A300081E003C080E001C081E00F900FBEDF9114
:102A4000CF91089581E08093AB0108958091AE010C
:102A5000882331F08091A401882321F080E008953B
:102A600081E0089582E008950F931F93CF93DF9341
:102A7000FC01892B79F182A1815082A3268991A141
:102A8000291751F181112AC0EF018F010E5F1F4FED
:102A9000C8010E946C0C89A18E8B24E030E0281BB9
:102AA00031093D872C879091AF01981710F48093DE
:102AB000AF0190E09C01220F331F220F331F220F22
:102AC000331F820F931FB8018B519E4F0E941A0C27
:102AD00081E005C080E003C080E001C080E0DF91BC
:102AE000CF911F910F910895FC01738362839187A9
:102AF00080874617570790F0421B530B84859585B6
:102B000048175907E0F4BF016E5F7F4F80911102B3
:102B1000909112020E943B0C80E0089542175307E7
:102B200018F46217730768F4BF016E5F7F4F8091DE
:102B30001302909114020E943B0C80E0089581E002
:102B4000089581E008950FB6F8940F9280910F02D6
:102B500090911002892BE9F48EE192E00E94080C1A
:102B600085E192E00E94080C8EE192E090931402BD
:102B70008093130285E192E09093120280931102F8
:102B800040E065E08AE00E94AC0E909310028093D2
:102B90000F020F900FBE0895EF92FF920F930E94C5
:102BA000A31580910F0290911002892B91F00F2EA6
:102BB000FDE0EF2EF2E0FF2EF02D03E020E030E00C
:102BC00045E550E067E471E086EA96E10E94131162
:102BD00001C080E00F91FF90EF9008950F931F9335
:102BE000CF93DF9300D000D01F92CDB7DEB7E09136
:102BF0000F02F0911002309771F1D90169835B8364
:102C00004A839D838C836630ECF40E9426158230C3
:102C100061F420E0A801BE016F5F7F4F80910F0239
:102C2000909110020E94CF0E17C020E040E050E0CB
:102C3000BE016F5F7F4F80910F02909110020E9442
:102C4000CF0E0AC020E0AD01BE016F5F7F4FCF0104
:102C50000E94700F01C080E00F900F900F900F90B6
:102C60000F90DF91CF911F910F910895AF92BF9276
:102C7000CF92DF92EF92FF920F931F93CF93DF9348
:102C80006C010E9463127C0180910B0290910C02F6
:102C9000E816F90608F048C030C00580F681E02D3E
:102CA000A080B180C681D7818E010E5F1F4FC80101
:102CB0000E946C0CE889F989CE0109958A8982FF06
:102CC0001CC08C859D858A0D9B1DA816B90660F4D5
:102CD0009B838A83D987C887B8018091130290911A
:102CE00014020E943B0C09C000E010E020E030E03C
:102CF000A50160E0CE010E94EE15E0911302F09173
:102D0000140280818111C9CF809111029091120229
:102D10009093140280931302F0931202E093110235
:102D200081E0F601808302C0F6011082F0920C026D
:102D3000E0920B02C701DF91CF911F910F91FF909D
:102D4000EF90DF90CF90BF90AF900895CF93DF9337
:102D500000D000D000D0CDB7DEB7CE0101964C0137
:102D600044244394E12CF12C512CC82ED92CE09111
:102D70001302F09114028081882309F4DCC00580DD
:102D8000F681E02DA080B1800E945D12C4010E94F6
:102D900036168C01898181114BC00A151B05B8F1CB
:102DA0000E942C13E0911302F09114020580F68129
:102DB000E02D66807780C30102960E946C0CD301DF
:102DC00052968C91529782FF17C01C966D917C9100
:102DD0001D976A0D7B1D9501A801C3010E94741502
:102DE000882369F00E2D1F2D2E2D3F2DA501652D59
:102DF000C3010E94EE1503C08E7FF301828BD301C5
:102E00005096ED91FC915197C301099587C0452DCE
:102E1000B501601B710B80910F02909110020E940E
:102E200045100E942C13811179C00E94DC0C76C0E1
:102E30000E942C1373C0898188230CF46FC0AC806E
:102E4000BD80F50182859385892B21F0C50102960D
:102E50000E946C0CCE0106960E943616E9810E2E59
:102E6000000CFF0BEA30F10508F058C0EC5CFF4F96
:102E70000C947D1FD50152962C9152972160529649
:102E80002C9352972A813B811C966D917C911D97C2
:102E9000620F731FAC01C5010E9474158823F1F104
:102EA000D5015096ED91FC915197C5010995F50119
:102EB000828982FF33C04A815B8184859585480F72
:102EC000591F0E2D1F2D2E2D3F2D652DC5010E9442
:102ED000EE1524C0D50152968C9152978E7F529652
:102EE0008C931CC0F50122892160228B6A817B8131
:102EF00075876487680F791F9C01AC01C5010E942A
:102F000074150CC0D50152968C9181FD04C0C50189
:102F10000E94C60B03C08E7FF501828B4E2D5F2D64
:102F20006C2D7D2D80910F02909110020E94AC0FAC
:102F3000811181CF1CCF0E945D12C4010E94361600
:102F40008C018981811174CFE0911102F0911202FC
:102F50008081442D8111452DAE2CBF2C59CF10926C
:102F6000B90088E48093B800089594EA9093BC0077
:102F7000ECEBF0E090819923ECF79091B900987F09
:102F8000903199F48093BB0084E88093BC00ECEB13
:102F9000F0E080818823ECF78091B900887F80344D
:102FA00031F0803231F083E0089580E0089581E0CF
:102FB000089582E0089584E98093BC00ECEBF0E092
:102FC000808184FDFDCF0895BF92CF92DF92EF9272
:102FD000FF920F931F93CF93DF93B82ECCEBD0E0EB
:102FE0000F2EF4EADF2EF02D09EB10E00F2EFBEB95
:102FF000EF2EF12CF02D0F2EF4E8CF2EF02DD882ED
:1030000088818823ECF7F8018081887F8830B9F7C0
:10301000F701B082C88288818823ECF7F8018081AB
:10302000887F883119F00E94DB17E9CFDF91CF91BB
:103030001F910F91FF90EF90DF90CF90BF90089578
:103040008093BB0084E88093BC00ECEBF0E08081CF
:103050008823ECF78091B900887F883221F0803393
:1030600021F082E0089580E0089581E0089584ECE5
:103070008093BC00ECEBF0E080818823ECF780913A
:10308000BB00089584E88093BC00ECEBF0E0808105
:103090008823ECF78091BB0008959093C50080933E
:1030A000C40088E18093C100E2ECF0E08081886098
:1030B000808386E080830895E0ECF0E0908195FFC6
:1030C000FDCF8093C6000895CF93DF93EC018881F4
:1030D000882331F021960E945C1889918111FBCFE1
:1030E000DF91CF9108955058BB27AA270E948B18D3
:1030F0000C94ED1A0E94DF1A38F00E94E61A20F0B4
:1031000039F49F3F19F426F40C94A11A0EF4E095BB
:10311000E7FB0C949B1AE92F0E94FE1A58F3BA178A
:10312000620773078407950720F079F4A6F50C94DD
:10313000201B0EF4E0950B2EBA2FA02D0B01B90128
:1031400090010C01CA01A0011124FF27591B99F01D
:10315000593F50F4503E68F11A16F040A22F232F29
:10316000342F4427585FF3CF469537952795A79579
:10317000F0405395C9F77EF41F16BA0B620B730B20
:10318000840BBAF09150A1F0FF0FBB1F661F771F91
:10319000881FC2F70EC0BA0F621F731F841F48F446
:1031A000879577956795B795F7959E3F08F0B0CFCF
:1031B0009395880F08F09927EE0F979587950895B6
:1031C0009F939F77EEE389379E0728F4ECE7F0E0C2
:1031D0000E94CB1A0CC00E94571A9058A2EA2AEDFE
:1031E0003FE049EC5FE30E948B180E94ED1A0F90BC
:1031F00007FC905808950E94DF1A60F080E891E083
:1032000009F49EEF0E94E61A28F040E851E071F4BC
:103210005EEF0CC00C94A11A0C94201BE92FE078EF
:103220000E94FE1A40F3092E052AB1F3261737072C
:103230004807590738F00E2E07F8E02569F0E02519
:10324000E0640AC0EF6307F8009407FADB01B901F4
:103250009D01DC01CA01AD01EF930E9489190E9412
:10326000ED1A0E943E195F91552339F02BED3FE096
:1032700049E450FD49EC0C9474180895DF93DD2760
:10328000B92FBF7740E85FE31616170648075B07BC
:1032900018F4D92F0E942C1B9F938F937F936F93C9
:1032A0000E94E71BE0E9F0E00E94A41A0E94ED1AD8
:1032B0002F913F914F915F910E94471BDD2351F069
:1032C0009058A2EA2AED3FE049EC5FE3D0785D2711
:1032D0000E948B18DF910C94ED1A0E94771A08F463
:1032E00081E008950E9486190C94ED1A0E94E61A56
:1032F00058F00E94DF1A40F029F45F3F29F00C9447
:103300009B1A51110C94211B0C94A11A0E94FE1AB5
:1033100068F39923B1F3552391F3951B550BBB2704
:10332000AA2762177307840738F09F5F5F4F220F49
:10333000331F441FAA1FA9F335D00E2E3AF0E0E840
:1033400032D091505040E695001CCAF72BD0FE2F8A
:1033500029D0660F771F881FBB1F2617370748071E
:10336000AB07B0E809F0BB0B802DBF01FF279358D6
:103370005F4F3AF09E3F510578F00C949B1A0C94E5
:10338000211B5F3FE4F3983ED4F3869577956795CC
:10339000B795F7959F5FC9F7880F911D969587950B
:1033A00097F90895E1E0660F771F881FBB1F62172A
:1033B00073078407BA0720F0621B730B840BBA0BE8
:1033C000EE1F88F7E09508950E94EB196894B111FB
:1033D0000C94211B08950E94061B88F09F5798F0BB
:1033E000B92F9927B751B0F0E1F0660F771F881F0A
:1033F000991F1AF0BA95C9F714C0B13091F00E9424
:10340000201BB1E008950C94201B672F782F88278C
:10341000B85F39F0B93FCCF3869577956795B3954A
:10342000D9F73EF490958095709561957F4F8F4FB9
:103430009F4F0895E89409C097FB3EF490958095BE
:10344000709561957F4F8F4F9F4F9923A9F0F92F6A
:1034500096E9BB279395F695879577956795B795E8
:10346000F111F8CFFAF4BB0F11F460FF1BC06F5FCE
:103470007F4F8F4F9F4F16C0882311F096E911C0E0
:10348000772321F09EE8872F762F05C0662371F001
:1034900096E8862F70E060E02AF09A95660F771F15
:1034A000881FDAF7880F9695879597F90895DF9327
:1034B000CF931F930F938B01EC01EDEBF0E00E9493
:1034C000A41A0E94ED1A9801AE018B01EC0160E094
:1034D00070E080E89FE30E9473180E94A71B980188
:1034E000AE010F911F91CF91DF910C94471B990F63
:1034F0000008550FAA0BE0E8FEEF16161706E807BE
:10350000F907C0F012161306E407F50798F0621BDE
:10351000730B840B950B39F40A2661F0232B242BB3
:10352000252B21F408950A2609F4A140A6958FEFD2
:10353000811D811D089597F99F6780E870E060E024
:1035400008959FEF80EC0895DF93CF931F930F931F
:10355000FF92EF92DF927B018C01689406C0DA2E15
:10356000EF010E94471BFE01E894A591259135913A
:1035700045915591A6F3EF010E948B18FE0197012A
:10358000A801DA9469F7DF90EF90FF900F911F91F7
:10359000CF91DF9108959F938F937F936F93FF93C4
:1035A000EF939B01AC010E94341BEF91FF910E94AD
:1035B000A41A2F913F914F915F910C94341B0024DA
:1035C0000A941616170618060906089500240A9488
:1035D00012161306140605060895092E0394000C0E
:1035E00011F4882352F0BB0F40F4BF2B11F460FF9D
:1035F00004C06F5F7F4F8F4F9F4F089557FD9058C6
:10360000440F551F59F05F3F71F04795880F97FBA6
:10361000991F61F09F3F79F0879508951216130660
:103620001406551FF2CF4695F1DF08C0161617068F
:103630001806991FF1CF86957105610508940895C4
:10364000E894BB2766277727CB0197F908950E9456
:10365000771A08F48FEF08959B01AC0160E070E0E9
:1036600080E89FE30C9472190E94471B0C94ED1A9A
:103670000E94DF1A38F00E94E61A20F0952311F01C
:103680000C949B1A0C94A11A11240C94211B0E94D7
:10369000FE1A70F3959FC1F3950F50E0551F629F7E
:1036A000F001729FBB27F00DB11D639FAA27F00D9B
:1036B000B11DAA1F649F6627B00DA11D661F829FC2
:1036C0002227B00DA11D621F739FB00DA11D621FA7
:1036D000839FA00D611D221F749F3327A00D611DC4
:1036E000231F849F600D211D822F762F6A2F1124A6
:1036F0009F5750409AF0F1F088234AF0EE0FFF1FD9
:10370000BB1F661F771F881F91505040A9F79E3F2F
:10371000510580F00C949B1A0C94211B5F3FE4F33D
:10372000983ED4F3869577956795B795F795E79585
:103730009F5FC1F7FE2B880F911D9695879597F98E
:10374000089519F416F40C94A11A0C94EB1B0E9422
:10375000061BB8F39923C9F3B6F39F57550B87FFA0
:103760000E94F91B0024A0E640EA9001805856957B
:10377000979528F4805C660F771F881F20F0261726
:103780003707480730F4621B730B840B202931295B
:103790004A2BA69517940794202531254A2758F7D8
:1037A000660F771F881F20F026173707480730F469
:1037B000620B730B840B200D311D411DA09581F709
:1037C000B901842F9158880F9695879508959B018C
:1037D000AC010C94341B9F3F31F0915020F487953D
:1037E00077956795B795880F911D9695879597F969
:1037F000089591505040660F771F881FD2F70895A3
:10380000A0E1B0E0E6E0FCE10C94831F7C011B0129
:103810006A01FC0117821682838181FF44C39E01E5
:103820002F5F3F4F3901F7019381F10193FD85919E
:1038300093FF81911F01882309F431C3853239F444
:1038400093FD859193FF81911F01853239F4B70172
:1038500090E00E94D92156016501E5CF10E0512C7E
:10386000912CFFE1F915D8F08B3279F038F48032E1
:1038700079F08332A1F4F92DF0612EC08D3261F020
:10388000803369F4292D21602DC0392D3260932EAB
:10389000892D8460982E2AC0E92DE86015C097FC18
:1038A0002DC020ED280F2A3088F496FE06C03AE09D
:1038B000139F200D1124122F19C08AE0589E200D4D
:1038C0001124522EE92DE0629E2E10C08E3231F46A
:1038D00096FCE5C2F92DF0649F2E08C08C3621F4C9
:1038E000292D2068922E02C0883641F4F10193FD03
:1038F000859193FF81911F018111B3CF9BEB980FAD
:10390000933020F4992D9061805E07C09BE9980F59
:10391000933008F066C1992D9F7E96FF16E09F7345
:10392000992E853619F49064992E08C0863621F4B4
:10393000392F3068932E02C01111115097FE07C025
:103940001C3350F444244394410E27E00BC018303C
:1039500038F027E017E005C027E09CE3492E02C0BD
:10396000212F412C560184E0A80EB11CF601608184
:10397000718182819381042DA3010E94DB206C015F
:10398000F981FC87F0FF02C0F3FF06C091FC06C07E
:1039900092FE06C000E205C00DE203C00BE201C0CA
:1039A00000E08C858C7019F001115AC29BC297FE01
:1039B00010C04C0CFC85F4FF04C08A81813309F4EB
:1039C0004A94141474F528E0241578F588E0482EFC
:1039D0002CC096FC2AC0812F90E08C159D059CF090
:1039E0003CEFC3163FEFD30674F0892D8068982E04
:1039F0000AC0E2E0F0E0EC0FFD1FE10FF11D808155
:103A0000803319F411501111F4CF97FE0EC04424E5
:103A10004394410E812F90E0C816D9062CF41C194E
:103A200004C04424439401C010E097FE06C01C1457
:103A30001D0434F4C601019605C085E090E002C083
:103A400081E090E001110196112331F0212F30E047
:103A50002F5F3F4F820F931F252D30E08217930772
:103A600014F4581A01C0512C892D897049F455203D
:103A700039F0B70180E290E00E94D9215A94F7CF43
:103A8000002329F0B701802F90E00E94D92193FCF8
:103A900009C0552039F0B70180E390E00E94D92198
:103AA0005A94F7CF97FE4CC04601D7FE02C0812C36
:103AB000912CC60188199909F301E80FF91FFE87B7
:103AC000ED87960124193109388B2F87012F10E0DB
:103AD0001195019511093FEF8316930629F4B7015B
:103AE0008EE290E00E94D921C814D9044CF08F8551
:103AF00098898815990524F4ED85FE85818101C09A
:103B000080E3F1E08F1A91082D853E852F5F3F4FAE
:103B10003E872D87801691062CF0B70190E00E9419
:103B2000D921D9CFC814D90441F49A81963320F40D
:103B3000953319F43C8534FF81E3B70190E04EC022
:103B40008A81813319F09C859F7E9C87B70190E024
:103B50000E94D921111105C094FC18C085E690E09F
:103B600017C0B7018EE290E00E94D9211E5F82E06B
:103B700001E0080FF301E80FF11D8081B70190E02B
:103B80000E94D921802F0113F3CFE6CF85E490E086
:103B9000B7010E94D921D7FC06C0C114D10441F459
:103BA000EC85E4FF05C0D194C194D1088DE201C039
:103BB0008BE2B70190E00E94D92180E32AE0C2168F
:103BC000D1042CF08F5FFAE0CF1AD108F7CFB701FC
:103BD00090E00E94D921B701C601C0960E94D92168
:103BE00054C1833631F0833779F0833509F056C0FC
:103BF00020C0560132E0A30EB11CF60180818983FA
:103C000001E010E0630112C05601F2E0AF0EB11CFA
:103C1000F601C080D18096FE03C0612F70E002C023
:103C20006FEF7FEFC6010E94CE218C01F92DFF7747
:103C300014C0560122E0A20EB11CF601C080D18052
:103C400096FE03C0612F70E002C06FEF7FEFC601E8
:103C50000E94B3218C01F92DF0689F2EF3FD1AC04C
:103C6000852D90E008171907A8F4B70180E290E0CD
:103C70000E94D9215A94F4CFF60197FC859197FEC2
:103C800081916F01B70190E00E94D92151105A949F
:103C9000015011090115110579F7F7C0843611F0AB
:103CA000893661F5560197FE09C024E0A20EB11CC9
:103CB000F60160817181828193810AC0F2E0AF0ECA
:103CC000B11CF60160817181072E000C880B990BE5
:103CD000F92DFF769F2E97FF09C0909580957095DE
:103CE00061957F4F8F4F9F4FF0689F2E2AE030E005
:103CF000A3010E941522C82EC6183FC0092D853782
:103D000021F40F7E2AE030E01DC0097F8F3691F04C
:103D100018F4883559F0C3C0803719F0883711F08E
:103D2000BEC0006104FF09C0046007C094FE08C063
:103D3000066006C028E030E005C020E130E002C0A7
:103D400020E132E0560107FF09C084E0A80EB11C53
:103D5000F601608171818281938108C0F2E0AF0E2B
:103D6000B11CF6016081718180E090E0A3010E94A6
:103D70001522C82EC6180F77902E96FE0BC0092D5F
:103D80000E7FC11650F494FE0AC092FC08C0092DA3
:103D90000E7E05C0DC2C092D03C0DC2C01C0D12E09
:103DA00004FF0DC0FE01EC0DF11D8081803311F484
:103DB000097E09C002FF06C0D394D39404C0802FAB
:103DC000867809F0D39403FD11C000FF06C01C2DB6
:103DD000D51480F4150D1D190DC0D51458F4B70174
:103DE00080E290E00E94D921D394F7CFD51410F44B
:103DF0005D1801C0512C04FF10C0B70180E390E0B2
:103E00000E94D92102FF17C001FD03C088E790E09E
:103E100002C088E590E0B7010CC0802F867859F089
:103E200001FF02C08BE201C080E207FD8DE2B70115
:103E300090E00E94D921C11638F4B70180E390E0E8
:103E40000E94D9211150F7CFCA94F301EC0DF11D56
:103E50008081B70190E00E94D921C110F5CF15C033
:103E6000F4E0F51560F584E0581A93FE1FC00111C7
:103E700027C02C8523FF2AC006EE10E0392D3071B3
:103E8000932EF8018491811124C0552009F4E4CCCB
:103E9000B70180E290E00E94D9215A94F6CFF70151
:103EA0008681978126C08FEF9FEF23C0B70180E204
:103EB00090E00E94D9215A945110F8CFD8CF512CBC
:103EC000B701802F90E00E94D921D3CF0AEE10E0F5
:103ED000D5CF91108052B70190E00E94D9210F5F99
:103EE0001F4FCFCF23E0251510F483E0BDCF512C19
:103EF000C0CF6096E2E10C949F1FEE0FFF1F05906C
:103F0000F491E02D09942F923F924F925F926F921D
:103F10007F928F929F92AF92BF92CF92DF92EF9259
:103F2000FF920F931F93CF93DF93CDB7DEB7CA1BDA
:103F3000DB0B0FB6F894DEBF0FBECDBF09942A8805
:103F4000398848885F846E847D848C849B84AA84AD
:103F5000B984C884DF80EE80FD800C811B81AA813A
:103F6000B981CE0FD11D0FB6F894DEBF0FBECDBF05
:103F7000ED0108950F931F93CF93DF938230910546
:103F800010F482E090E0E0915F02F091600220E0A6
:103F900030E0A0E0B0E0309719F14081518102811A
:103FA000138148175907C8F08417950769F41097CB
:103FB00031F012960C93129713961C9327C000931E
:103FC0005F021093600222C02115310519F04217DB
:103FD000530718F49A01BD01EF01DF01F801DBCFAF
:103FE00021153105F9F0281B390B2430310580F4F7
:103FF0008A819B816115710521F0FB019383828386
:1040000004C09093600280935F02FE01329644C028
:10401000FE01E20FF31F81939193225031093983FE
:1040200028833AC020915D0230915E02232B41F437
:10403000209102013091030130935E0220935D02D2
:1040400020910001309101012115310541F42DB776
:104050003EB74091040150910501241B350BE091BE
:104060005D02F0915E02E217F307A0F42E1B3F0BF6
:104070002817390778F0AC014E5F5F4F24173507DA
:1040800048F04E0F5F1F50935E0240935D02819394
:10409000919302C0E0E0F0E0CF01DF91CF911F915A
:1040A0000F910895CF93DF93009709F481C0FC012D
:1040B000329713821282A0915F02B0916002109732
:1040C00081F420813181820F931F20915D02309114
:1040D0005E022817390751F5F0935E02E0935D0206
:1040E00067C0ED0120E030E0CE17DF0740F44A81E1
:1040F0005B819E0141155105F1F0EA01F5CFD383B3
:10410000C28340815181840F951FC817D90759F484
:1041100088819981840F951F0296918380838A817B
:104120009B81938382832115310529F4F0936002EA
:10413000E0935F023DC0E901FB83EA834991599115
:10414000C40FD51FEC17FD0761F480819181840FA6
:10415000951F0296E90199838883828193819B83CD
:104160008A83E0E0F0E012968D919C91139700977E
:1041700019F0FD01DC01F7CF8D919C9111979D0104
:104180002E5F3F4F820F931F20915D0230915E02A0
:104190002817390769F4309729F4109260021092B9
:1041A0005F0202C013821282B0935E02A0935D028E
:1041B000DF91CF910895283008F027E03327DA0106
:1041C000990F311D87FD916000966105710539F4E5
:1041D00032602E5F3D9330E32A95E1F708959F3FCB
:1041E00030F080387105610509F03C5F3C5F3D931C
:1041F000913008F08068911DDF93CF931F930F9348
:10420000FF92EF92192F987F9695E92F96959695A4
:10421000E90FFF27E85BFE4F99273327EE24FF24A1
:10422000A701E70105900894079428F4360FE71ECC
:10423000F81E491F511D660F771F881F991F06948E
:10424000A1F70590079428F4E70EF81E491F561FA2
:10425000C11D770F881F991F661F0694A1F705904F
:10426000079428F4F80E491F561FC71FD11D880F49
:10427000991F661F771F0694A1F70590079420F4F5
:10428000490F561FC71FD81F990F661F771F881F1A
:104290000694A9F784911095177041F0D695C795AB
:1042A00057954795F794E7941A95C1F7EEEEF0E02D
:1042B00068941590159135916591959105907FE2DF
:1042C0007395E118F10A430B560BC90BD009C0F7DF
:1042D000E10CF11E431F561FC91FD01D7EF4703321
:1042E00011F48A95E6CFE894015030F0080F0AF4F3
:1042F0000027021708F4202F2395022F7A3328F085
:1043000079E37D932A95E9F710C07D932A9589F684
:10431000069497956795379517951794E118F10AC4
:10432000430B560BC90BD00998F023957E917395DA
:104330007A3308F070E37C932013B8F77E917061B4
:104340007D9330F0839571E37D9370E32A95E1F7D7
:104350001124EF90FF900F911F91CF91DF9199273A
:1043600087FD90950895FC01059061507040011003
:10437000D8F7809590958E0F9F1F0895FB01DC0163
:1043800002C001900D9241505040D8F70895DC01D1
:1043900001C06D9341505040E0F70895FC01615019
:1043A000704001900110D8F7809590958E0F9F1F57
:1043B00008950F931F93CF93DF93FB01238121FD7A
:1043C00003C08FEF9FEF2CC022FF16C0468157819C
:1043D000248135814217530744F4A081B1819D01A6
:1043E0002F5F3F4F318320838C93268137812F5F4E
:1043F0003F4F3783268314C08B01EC01FB010084FF
:10440000F185E02D0995892BE1F6D80116968D915D
:104410009C911797019617969C938E931697CE01B1
:10442000DF91CF911F910F910895FA01AA272830AB
:1044300051F1203181F1E8946F936E7F6E5F7F4F71
:104440008F4F9F4FAF4FB1E03ED0B4E03CD0670FED
:10445000781F891F9A1FA11D680F791F8A1F911D40
:10446000A11D6A0F711D811D911DA11D20D009F490
:1044700068943F912AE0269F11243019305D3193D2
:10448000DEF6CF010895462F4770405D4193B3E0BB
:104490000FD0C9F7F6CF462F4F70405D4A3318F062
:1044A000495D31FD4052419302D0A9F7EACFB4E013
:1044B000A6959795879577956795BA95C9F70097CB
:1044C0006105710508959B01AC010A2E069457956C
:1044D000479537952795BA95C9F7620F731F841FC3
:0A44E000951FA01D0895F894FFCF6A
:1044EA000000610220000000803F0000803F0000C1
:1044FA00803F0000803F0000803F0000803F0000B6
:10450A00803F496E6974204F4B005441534B410020
:10451A005441534B42005441534B43005441534B73
:10452A00440049444C4500546D72205376630000A0
:00000001FF
