S00F000050616E74696C742E7372656339
S11300000C9473000C9490000C9490000C94900049
S11300100C9490000C9490000C944E0A0C94900054
S11300200C9490000C9490000C9490000C9490000C
S11300300C9490000C9490000C9490000C949000FC
S11300400C9490000C9490000C9490000C949000EC
S11300500C9490000C9490000C9490000C949000DC
S11300600C9490000C9490000A140A140A143A1484
S1130070421452140A140A143A144214036EDB365E
S11300803D9A9999993DABAAAA2A3E000000803F67
S1130090084AD73B3BCE016E84BCBFFDC12F3D6CEB
S11300A074319ABD56833DDA3D00C77F11BED9E451
S11300B0BB4C3E916BAAAABE000000803F072C7A7D
S11300C0A5BA6CC590DA3B9365FC8BBC53F810FD64
S11300D03C5692834DBD879D3AB63DCBC9BF5BBEAE
S11300E073DA0FC93F0011241FBECFEFD8E0DEBF83
S11300F0CDBF11E0A0E0B1E0E0E7F9E302C0059074
S11301000D92A035B107D9F722E0A0E5B1E001C016
S11301101D92A933B207E1F70E9492000C94B61C19
S11301200C94000087E690E00E941D150E947F1445
S11301300E9420080E9443010E94EB0EFBCFCF9344
S1130140DF9300D0CDB7DEB70E941F0F9A83898357
S11301500F2EF6E18F2EF1E09F2EF02D0F2EFAE0F8
S11301604F2EF1E05F2EF02D0F2EF2E22F2EF1E054
S11301703F2EF02D0F2EF3E06F2EF2E07F2EF02DA8
S11301806AE070E0CE0101960E946B10D401AD903C
S1130190BD90CD90DC901397F201E084F184028548
S11301A013852481358146815781608171818281E3
S11301B093811B96EC911B97EF931A96EC911A97E7
S11301C0EF931996EC911997EF931896EC91189771
S11301D0EF931796EC911797EF931696EC91169769
S11301E0EF931596EC911597EF931496EC91EF938A
S11301F00E94A8018DE092E00E94EC04EDE0F2E0A0
S113020083818F9382818F9381818F9380818F9358
S11302103F922F927F926F920E94CC19C3010E9449
S113022034150FB6F894DEBF0FBECDBFA9CFCF9360
S1130230DF9300D0CDB7DEB70E941F0F9A83898366
S113024068E070E0CE0101960E946B106AE071E0F4
S113025086E191E00E943106F3CFCF93DF9300D083
S1130260CDB7DEB70E941F0F9A83898364E670E0DE
S1130270CE0101960E946B102A9A8EE190E00E94B2
S1130280A9102A98F3CFEF92FF920F93E12CF12C4F
S113029004E020E030E040E051E060E371E08FE909
S11302A090E00E94CF0D03E020E030E040E051E018
S11302B066E371E087E191E00E94CF0D02E020E067
S11302C030E040E051E06CE371E08DE291E00E94A7
S11302D0CF0D0F91FF90EF900895CF92DF92EF92A0
S11302E0FF920F931F938B019C01359527951795CA
S11302F007950F2EFFEDCF2EF9E5DF2EF7E3EF2E56
S1130300FFE5FF2EF02DC01AD10AE20AF30A20E01D
S113031030E040E05FE30E94C917A70196010E9404
S1130320C917A70196010E94C9179B01AC0160E09F
S113033070E080EC9FE30E944315A70196010E94A0
S1130340C9171F910F91FF90EF90DF90CF90089500
S11303504F925F926F927F928F929F92AF92BF92D1
S1130360CF92DF92EF92FF920F931F93CF93DF937D
S1130370CDB7DEB7A0970FB6F894DEBF0FBECDBFE2
S113038069877A878B879C872D873E874F87588B11
S1130390E98AFA8A0B8B1C8B20E030E0A901C601A4
S11303A0B5010E943D16811117C020E030E0A9017B
S11303B06BA97CA98DA99EA90E943D1681110CC030
S11303C020E030E0A9016FA978AD89AD9AAD0E9413
S11303D03D16882309F450C1A6019501C601B50153
S11303E00E94C9172B013C012BA93CA94DA95EA968
S11303F0CA01B9010E94C9179B01AC01C301B20132
S11304000E9444152B013C012FA938AD49AD5AADCA
S1130410CA01B9010E94C9179B01AC01C301B20111
S11304200E9444150E946D012B013C019B01AC010B
S1130430C601B5010E94C917698F7A8F8B8F9C8F73
S1130440A30192016BA97CA98DA99EA90E94C91739
S11304506D8F7E8F8F8F98A3A30192016FA978ADC2
S113046089AD9AAD0E94C9176D837E838F83988767
S11304708090640190906501A0906601B09067013E
S113048040905C0150905D0160905E0170905F014E
S1130490C0900601D0900701E0900801F090090196
S11304A08091600190916101A0916201B09163011A
S11304B089839A83AB83BC83A3019201C501B401F0
S11304C00E94C9176D8B7E8B8F8B988F29813A81FF
S11304D04B815C81C701B6010E94C9179B01AC0125
S11304E06D897E898F89988D0E9443156D8B7E8BD3
S11304F08F8B988FA7019601C501B4010E94C9177B
S11305004B015C0129813A814B815C81C301B201B9
S11305100E94C9179B01AC01C501B4010E94441596
S113052069837A838B839C83A7019601C701B601F3
S11305300E94C91720E030E040E05FE30E944315C9
S11305406B017C01A3019201C301B2010E94C9178E
S11305509B01AC01C701B6010E9444156B017C01EB
S1130560109258011092590110925A0110925B0195
S11305701092540110925501109256011092570195
S11305801092500110925101109252011092530195
S11305909B01AC016D8D7E8D8F8D98A10E94C91732
S11305A04B015C0129813A814B815C816D817E81A3
S11305B08F8198850E94C9179B01AC01C501B401C4
S11305C00E9443159B01AC0169857A858B859C85C6
S11305D00E94441569877A878B879C872D893E8979
S11305E04F89588D6D817E818F8198850E94C917AE
S11305F04B015C01A7019601698D7A8D8B8D9C8DD1
S11306000E94C9179B01AC01C501B4010E944315A6
S11306109B01AC016D857E858F8598890E94441568
S11306206D877E878F87988B29813A814B815C8186
S1130630698D7A8D8B8D9C8D0E94C9176B017C010D
S11306402D893E894F89588D6D8D7E8D8F8D98A112
S11306500E94C9179B01AC01C701B6010E94431552
S11306609B01AC0169897A898B899C890E94441514
S1130670698B7A8B8B8B9C8B2AE037ED43EA5BE3A7
S113068069857A858B859C850E94C91769877A87D5
S11306908B879C872AE037ED43EA5BE36D857E8593
S11306A08F8598890E94C9176D877E878F87988B5D
S11306B02AE037ED43EA5BE369897A898B899C896F
S11306C00E94C917698B7A8B8B8B9C8B8091060156
S11306D090910701A0910801B091090189839A833F
S11306E0AB83BC83C0906401D0906501E090660147
S11306F0F09067018091600190916101A091620185
S1130700B09163018D839E83AF83B88740905C0171
S113071050905D0160905E0170905F01C701B60169
S1130720905829853A854B855C850E94C9174B01F1
S11307305C012D813E814F8158856D857E858F8535
S113074098890E94C9179B01AC01C501B4010E949C
S113075043154B015C01A301920169897A898B8954
S11307609C890E94C9179B01AC01C501B4010E9478
S1130770431529813A814B815C810E944415698F1C
S11307807A8F8B8F9C8F29813A814B815C8169851B
S11307907A858B859C850E94C9174B015C012D814C
S11307A03E814F81588569897A898B899C890E9409
S11307B0C9179B01AC01C501B4010E9444154B014A
S11307C05C01A30192016D857E858F8598890E94C5
S11307D0C9179B01AC01C501B4010E944315A701CF
S11307E096010E9444156D8F7E8F8F8F98A3298167
S11307F03A814B815C816D857E858F8598890E94C5
S1130800C9174B015C01A701960169897A898B8913
S11308109C890E94C9179B01AC01C501B4010E94C7
S113082043154B015C01A301920169857A858B858F
S11308309C850E94C9179B01AC01C501B4010E94AB
S113084044152D813E814F8158850E9444156D8B3E
S11308507E8B8F8B988F29813A814B815C8169894A
S11308607A898B899C890E94C9174B015C01A70175
S113087096016D857E858F8598890E94C9179B0195
S1130880AC01C501B4010E9444156B017C012D81AA
S11308903E814F81588569857A858B859C850E9428
S11308A0C9179B01AC01C701B6010E944315A301FE
S11308B092010E9444154B015C01298D3A8D4B8DA8
S11308C05C8DCA01B9010E94C9176B017C012D8D91
S11308D03E8D4F8D58A1CA01B9010E94C9179B01D1
S11308E0AC01C701B6010E9444156B017C012D893E
S11308F03E894F89588DCA01B9010E94C9179B01CD
S1130900AC01C701B6010E9444156B017C01A5012D
S11309109401C501B4010E94C9179B01AC01C70130
S1130920B6010E9444150E946D016B017C019B017C
S1130930AC01698D7A8D8B8D9C8D0E94C917609353
S11309400601709307018093080190930901A701A0
S113095096016D8D7E8D8F8D98A10E94C91760932D
S11309606401709365018093660190936701A70108
S113097096016D897E898F89988D0E94C91760932D
S11309806001709361018093620190936301A701F8
S11309909601C501B4010E94C91760935C0170936C
S11309A05D0180935E0190935F01A0960FB6F89469
S11309B0DEBF0FBECDBFDF91CF911F910F91FF908E
S11309C0EF90DF90CF90BF90AF909F908F907F90EB
S11309D06F905F904F9008954F925F926F927F92C5
S11309E08F929F92AF92BF92CF92DF92EF92FF923B
S11309F0CF93DF93CDB7DEB72E970FB6F894DEBF53
S1130A000FBECDBF9E878D87C0906001D0906101DD
S1130A10E0906201F090630180905C0190905D0130
S1130A20A0905E01B0905F01409064015090650118
S1130A3060906601709067016091060170910701F2
S1130A4080910801909109019B01AC010E94441519
S1130A5069877A878B879C8720E030E040E050EC00
S1130A60C701B6010E94C917A70196010E94C917C0
S1130A7069837A838B839C83A5019401C501B401A6
S1130A800E944415A50194010E94C9179B01AC0161
S1130A9069817A818B819C810E94431520E030E03A
S1130AA040E85FE30E94441569837A838B839C83C7
S1130AB0A3019201C301B2010E944415A70196014A
S1130AC00E94C9176D837E838F83988729853A8511
S1130AD04B855C85C501B4010E94C9179B01AC011B
S1130AE06D817E818F8198850E94441529813A8188
S1130AF04B815C810E94DE1523E333E345E652E437
S1130B000E94C917ED85FE85608771878287938768
S1130B1020E030E040E050ECC301B2010E94C9176C
S1130B2069837A838B839C839B01AC01C501B401E7
S1130B300E94C9176D837E838F83988729853A85A0
S1130B404B855C85C701B6010E94C9179B01AC01A6
S1130B506D817E818F8198850E9444150E94B01515
S1130B6023E333E345E652E40E94C917ED85FE858D
S1130B706483758386839783A7019601C701B601B1
S1130B800E9444156D837E838F83988729813A81DF
S1130B904B815C81C301B2010E94C91769837A83C6
S1130BA08B839C832D813E814F815885C701B6017B
S1130BB00E94C9179B01AC0169817A818B819C8158
S1130BC00E94431520E030E040E85FE30E944415B2
S1130BD06B017C012D813E814F815885C501B40193
S1130BE00E94C9174B015C0129853A854B855C85B8
S1130BF0C301B2010E94C9179B01AC01C501B40134
S1130C000E944415A70196010E94DE1523E333E3F5
S1130C1045E652E40E94C917ED85FE856083718321
S1130C20828393832E960FB6F894DEBF0FBECDBF9A
S1130C30DF91CF91FF90EF90DF90CF90BF90AF9076
S1130C409F908F907F906F905F904F90089580ED6C
S1130C500E94B4148BE30E94F01481ED0E94851469
S1130C6008954F925F926F927F92AF92BF92CF920C
S1130C70DF92EF92FF920F931F93CF93DF938C0138
S1130C80EB010E9427060E940715F82E0E94071503
S1130C906F2D70E0762F6627682B072E000C880BCB
S1130CA0990B0E94B616F801608371838283938343
S1130CB00E940715F82E0E9407156F2D70E0762FFD
S1130CC06627682B072E000C880B990B0E94B6161A
S1130CD0F80164837583868397830E940715F82E31
S1130CE00E9407156F2D70E0762F6627682B072E5C
S1130CF0000C880B990B0E94B616F8016087718767
S1130D00828793870E940715F82E0E9407156F2D7E
S1130D1070E0762F6627682B072E000C880B990B42
S1130D200E94B6166093190270931A0280931B02F4
S1130D3090931C020E940715F82E0E9407156F2D30
S1130D4070E0762F6627682B072E000C880B990B12
S1130D500E94B616688379838A839B830E94071551
S1130D60F82E0E9407156F2D70E0762F6627682BEA
S1130D70072E000C880B990B0E94B6166C837D839A
S1130D808E839F830E940715F82E0E9412156F2DE3
S1130D9070E0762F6627682B072E000C880B990BC2
S1130DA00E94B616688779878A879B870E94AB144E
S1130DB083EC99E00197F1F700C000000F2EFDE1EC
S1130DC0EF2EF2E0FF2EF02D0F2EF9E2CF2EF2E0FF
S1130DD0DF2EF02D0F2EF9E2AF2EF2E0BF2EF02D14
S1130DE0F70141905190619071907F0120E030E0D3
S1130DF040E051E4F80160817181828193810E9415
S1130E00C9172DEC3CEC4CE151E40E94C91720E0D9
S1130E1030E040E058E30E94C917A30192010E9408
S1130E204315F80161937193819391938F01F601B6
S1130E3041905190619071906F0120E030E04AE759
S1130E4054E4688179818A819B810E94C91720E0DA
S1130E5030E040E058E30E94C91720E030E044E36A
S1130E6053E40E94421623EC35EF48E450E40E9418
S1130E70C917A30192010E94431569937993899339
S1130E809993EA14FB0409F0ABCFDF91CF911F9142
S1130E900F91FF90EF90DF90CF90BF90AF907F9035
S1130EA06F905F904F9008952F923F924F925F9270
S1130EB06F927F928F929F92AF92BF92CF92DF9266
S1130EC0EF92FF920F931F93CF93DF9300D000D044
S1130ED0CDB7DEB71C0169837A83812C912C5C0128
S1130EE08CE0A80EB11C69817A81C1010E9431068F
S1130EF071010F2EF4E76F2EF1E07F2EF02DC980E3
S1130F00DA800F2EF8E64F2EF1E05F2EF02D8201ED
S1130F107C826B82F70121913191419151917F0142
S1130F20EB81FC8160817181828193810E944415EF
S1130F30EB81FC816193719381939193FC83EB83A7
S1130F40F60121913191419151916F01F801608134
S1130F507181828193810E944415F8016193719398
S1130F60819391938F01EA14FB04A1F6FFEF8F1A8A
S1130F709F0A84E68816910409F0B5CF0DE112E0CA
S1130F80E9E2F2E0FC83EB830F2EF0E8EF2EF1E0D0
S1130F90FF2EF02DF30161917191819191913F01A7
S1130FA020E030E048EC52E40E944216F8016193DC
S1130FB07193819391938F01F20161917191819168
S1130FC091912F0120E030E048EC52E40E94421657
S1130FD0EB81FC816193719381939193FC83EB8307
S1130FE06E147F04B9F620E030E040E251E46091F1
S1130FF025027091260280912702909128020E9476
S113100043156093250270932602809327029093E0
S113101028020F900F900F900F90DF91CF911F91A6
S11310200F91FF90EF90DF90CF90BF90AF909F9083
S11310308F907F906F905F904F903F902F90089586
S11310408BE792E90197F1F700C0000080ED0E9460
S1131050B4148BE60E94F01481E00E94F0140E9404
S1131060AB1480ED0E94B4148AE10E94F01485E070
S11310700E94F0140E94AB1480ED0E94B4148BE122
S11310800E94F01488E00E94F0140E94AB1480EDDA
S11310900E94B4148CE10E94F01480E10E94F014C8
S11310A00E94AB1480ED0E94B41488E30E94F014F3
S11310B081E00E94F0140E94AB1480ED0E94B414ED
S11310C089E10E94F01487E00E94F0140E94AB149E
S11310D06AE071E086E191E00E9454070895CF939D
S11310E0DF93EC010E94190FCE010E949B18EC01C2
S11310F00E94E80F209711F40E94AD08CE01DF9101
S1131100CF910895CF93DF93009741F0EC010E94B3
S1131110190FCE010E9433190E94E80FDF91CF917D
S113112008958FE380937E0080B7877F80BF80B768
S1131130806880BF83B7817F83BF0FB6F8940F9216
S113114083B7816083BF85B7806685BF8F7D85BF88
S11311500F900FBE889513BE0895259A2D9A83ED9E
S113116090E30197F1F700C000001D9AF8CF259A8B
S11311702D9A2FE78AE196E0215080409040E1F7D4
S113118000C000001D9AF5CFFC0103969283818371
S11311902FEF3FEF34832383968385839087878360
S11311A010820895FC01118610860895CF93DF9371
S11311B09C01FB01DC011196CD91DC911297D38344
S11311C0C2838C819D81958384838C819D81DC0184
S11311D013967C936E9312977D836C83318720875B
S11311E0F90180818F5F8083DF91CF910895CF9340
S11311F0DF93EB01488159814F3F2FEF520721F4D0
S1131200FC01A781B0850DC0DC01139601C0DF018C
S11312101296ED91FC911397208131814217530767
S1131220B0F71296ED91FC911397FB83EA83D58373
S1131230C483BD83AC831396DC93CE9312979987B2
S11312408887FC0120812F5F2083DF91CF9108954F
S1131250CF93DF93FC01A085B185C281D3818481C2
S113126095819D838C83C481D581828193819B8365
S11312708A8311968D919C911297E817F90731F49E
S11312808481958112969C938E9311971186108672
S11312908C9181508C938C91DF91CF910895FC01B6
S11312A060833197708331971082319720E82083CF
S11312B031971082779740833197508383970895AD
S11312C0A89590EC88E10FB6F894A89580936000F7
S11312D00FBE90936000A091E501B091E601CD911D
S11312E0CDBFDD91DEBFFF91EF91DF91CF91BF9133
S11312F0AF919F918F917F916F915F914F913F91AA
S11313002F911F910F91FF90EF90DF90CF90BF909E
S1131310AF909F908F907F906F905F904F903F9091
S11313202F901F900F900FBE0F90089581E00895A5
S11313300F920FB6F8940F921F9211242F923F929E
S11313404F925F926F927F928F929F92AF92BF92D1
S1131350CF92DF92EF92FF920F931F932F933F93BD
S11313604F935F936F937F938F939F93AF93BF93A9
S1131370CF93DF93EF93FF93A091E501B091E60142
S11313800DB60D920EB60D920E94BD10A091E5010E
S1131390B091E601CD91CDBFDD91DEBFFF91EF911C
S11313A0DF91CF91BF91AF919F918F917F916F9179
S11313B05F914F913F912F911F910F91FF90EF906B
S11313C0DF90CF90BF90AF909F908F907F906F9061
S11313D05F904F903F902F901F900F900FBE0F90F3
S11313E008950F920FB6F8940F921F9211242F9222
S11313F03F924F925F926F927F928F929F92AF92A1
S1131400BF92CF92DF92EF92FF920F931F932F938D
S11314103F934F935F936F937F938F939F93AF9378
S1131420BF93CF93DF93EF93FF93A091E501B09126
S1131430E6010DB60D920EB60D9213BE0E94290F51
S113144081110E94BD10A091E501B091E601CD91FA
S1131450CDBFDD91DEBFFF91EF91DF91CF91BF91C1
S1131460AF919F918F917F916F915F914F913F9138
S11314702F911F910F91FF90EF90DF90CF90BF902D
S1131480AF909F908F907F906F905F904F903F9020
S11314902F901F900F900FBE0F9008950E94F10996
S11314A018950FB6F8940F92FC01928D0F900FBE11
S11314B081E0911180E008950F931F93CF93DF9300
S11314C0EC01042F1A8D4C8D41110CC08881998137
S11314D0892B09F042C08C819D810E9404121D82D7
S11314E01C8242C0011117C050E08A819B810E9476
S11314F0BC192C8D8A819B81820F911D9B838A83C9
S11315002C813D818217930750F1888199819B83B7
S11315108A8380E029C050E08E819F810E94BC199B
S11315208C8D90E09195819591092E813F81280FB2
S1131530391F3F832E83488159812417350730F49E
S11315402C813D81820F931F9F838E83023049F447
S1131550112349F0115080E007C080E005C080E00D
S113156003C080E001C080E01F5F1A8FDF91CF913C
S11315701F910F910895FC01448D4423A9F050E07C
S113158026813781240F351F3783268384819581F3
S11315902817390720F08081918197838683CB01B6
S11315A0668177810E94BC190895EF92FF920F9390
S11315B01F93CF938C010FB6F8940F92FC01C68D44
S11315C01C16ACF48189811106C011C0F80181890F
S11315D0811105C00CC07801F1E1EF0EF11CC701C7
S11315E00E94691181110E94F211C15079F78FEFA5
S11315F0F801868F0F900FBE0FB6F8940F92C58D29
S11316001C16ACF48085811106C011C0F8018085D8
S1131610811105C00CC07801F8E0EF0EF11CC70180
S11316200E94691181110E94F211C15079F78FEF64
S1131630F801858F0F900FBECF911F910F91FF90EE
S1131640EF900895CF93DF93EC010FB6F8940F92C7
S1131650E881F9818B8D2C8D90E030E0829FA00190
S1131660839F500D929F500D11244E0F5F1F5D8379
S11316704C831A8EFB83EA830197829FA001839F88
S1131680500D929F500D1124CF01840F951F9F83FD
S11316908E838FEF8D8F8E8F61110CC08885882388
S11316A089F0CE0108960E946911882359F00E949E
S11316B0980908C0CE0108960E94C408CE0141963C
S11316C00E94C4080F900FBE81E0DF91CF9108956E
S11316D00F931F93CF93DF93082F162F869FC0017C
S11316E011244F960E946F08EC01009771F01111BC
S11316F003C09983888303C04F96998388830B8F93
S11317001C8F61E0CE010E94220BCE01DF91CF91AC
S11317101F910F9108959F92AF92BF92CF92DF9243
S1131720EF92FF920F931F93CF93DF9300D000D0DB
S11317301F92CDB7DEB78C016B015D834C83A22E63
S1131740B12C992493947C0188E0E80EF11C0FB627
S1131750F8940F92F801928D838D981718F0F2E0A7
S1131760AF1219C04A2DB601C8010E945C0AF801E3
S11317709189992349F0C80141960E9469118823EF
S113178031F00E94980903C081110E9498090F90BA
S11317900FBE81E050C08C819D81892B21F40F9074
S11317A00FBE80E048C0B11005C0CE0101960E9472
S11317B0B111B92C0F900FBE0E94190F0FB6F894F7
S11317C00F92F801858D8F3F09F4158EF801868DEF
S11317D08F3F09F4168E0F900FBEBE016C5F7F4FD2
S11317E0CE0101960E94BC1181111FC00FB6F8945E
S11317F00F92F801928D838D0F900FBE98130FC036
S11318006C817D81C7010E943E11C8010E94D50AE6
S11318100E94E80F81119BCF0E94980998CFC801BC
S11318200E94D50A0E94E80F92CFC8010E94D50AEF
S11318300E94E80F80E00F900F900F900F900F9090
S1131840DF91CF911F910F91FF90EF90DF90CF9098
S1131850BF90AF909F900895EF92FF920F931F93C4
S1131860CF93DF938A01FC01528D338D531710F00F
S1131870223001F5422F7801EC011E8D8A8DCE01B4
S11318800E945C0A1F3F81F489898823A9F0CE0154
S113189041960E946911882389F0E114F10481F0D2
S11318A081E0F70180830DC0FF24F394F10EFE8ED6
S11318B081E007C080E005C081E003C081E001C091
S11318C081E0DF91CF911F910F91FF90EF900895E8
S11318D09F92AF92BF92CF92DF92EF92FF920F93BB
S11318E01F93CF93DF9300D000D01F92CDB7DEB704
S11318F08C015B015D834C83E12C992493946C01EE
S113190081E1C80ED11C0FB6F8940F92F801F28C45
S1131910FF20A9F0B501C8010E94BB0AFA94F8019E
S1131920F28E8085882339F0C80108960E946911D7
S113193081110E9498090F900FBE81E051C08C81E3
S11319409D81892B21F40F900FBE80E049C0E110E6
S113195005C0CE0101960E94B111E92C0F900FBE73
S11319600E94190F0FB6F8940F92F801858D8F3FDE
S113197009F4158EF801868D8F3F09F4168E0F90A9
S11319800FBEBE016C5F7F4FCE0101960E94BC1159
S113199081111AC0C8010E94510A882379F06C8110
S11319A07D81C6010E943E11C8010E94D50A0E9491
S11319B0E80F8111A8CF0E949809A5CFC8010E9401
S11319C0D50A0E94E80F9FCFC8010E94D50A0E9441
S11319D0E80FC8010E94510A882309F494CF80E0DB
S11319E00F900F900F900F900F90DF91CF911F9158
S11319F00F91FF90EF90DF90CF90BF90AF909F90AA
S1131A000895CF93DF93EC010FB6F8940F928D8D68
S1131A108F3F09F41D8E8E8D8F3F09F41E8E0F901B
S1131A200FBE8A8D811104C0CE0141960E945011CF
S1131A30CE010E94D50ADF91CF910895E091AD01C6
S1131A40F091AE018081811107C08FEF9FEF9093D9
S1131A508401809383010895E091AD01F091AE017A
S1131A600580F681E02D0680F781E02D8281938147
S1131A7090938401809383010895FF920F931F93A1
S1131A80CF93DF93EC01F62E00918C0110918D0120
S1131A908091E5019091E60102960E942809CF3FCA
S1131AA08FEFD80769F4FF2059F06091E501709138
S1131AB0E6016E5F7F4F8FE891E00E94D6082FC049
S1131AC0C00FD11FE091E501F091E601D383C283F9
S1131AD0C017D10768F46091E5017091E601809127
S1131AE0AB019091AC016E5F7F4F0E94F70817C065
S1131AF06091E5017091E6018091AD019091AE0194
S1131B006E5F7F4F0E94F70880918301909184015A
S1131B10C817D90720F4D0938401C0938301DF91BF
S1131B20CF911F910F91FF90089509E911E00F2EB5
S1131B30F1ECEF2EF1E0FF2EF02D80919801882337
S1131B4029F10FB6F8940F92D8011596ED91FC91F6
S1131B501697C681D781CE0102960E9428098091EA
S1131B608E01815080938E018091980181508093E1
S1131B7098010F900FBE8F89988D0E948208CE0124
S1131B800E948208809198018111DBCFF701808146
S1131B90823010F00E9498090E949108CECF4F9293
S1131BA05F926F927F928F929F92AF92BF92CF92E9
S1131BB0DF92EF92FF920F93CF93DF934C016B016F
S1131BC05A012901CA010E946F083C01892B09F4BA
S1131BD0F1C088E290E00E946F08EC01892B99F033
S1131BE0788E6F8AA50165EA70E0C3010E94C51969
S1131BF081E0A81AB1088F89988DA80EB91EC11466
S1131C00D10429F420C0C3010E948208D3C0D601A4
S1131C108C91898F8C918823A1F0AE01465E5F4F31
S1131C20F6013196B8E0CB0ED11CCF012191DA0137
S1131C302D93AD01DC018C91882319F0EC15FD0581
S1131C40A1F718A201C0198E043008F003E00E8B2E
S1131C5009A31AA26E01B2E0CB0ED11CC6010E94E8
S1131C60D208CE010C960E94D208D987C88784E096
S1131C7090E0801B91099D878C87DB8BCA8B1BA20C
S1131C801CA21DA21EA21FA2A201B401C5010E9492
S1131C904F0999838883E114F10419F0F701D18382
S1131CA0C0830FB6F8940F9280918E018F5F80935A
S1131CB08E018091E5019091E601892BD1F5D093B5
S1131CC0E601C093E50180918E01813009F041C0A5
S1131CD081EC91E00E94C4088AEC91E00E94C4085F
S1131CE083ED91E00E94C4088CED91E00E94C40849
S1131CF088EB91E00E94C4088FEA91E00E94C40836
S1131D0082EA91E00E94C40889E991E00E94C40833
S1131D108FE891E00E94C40888EB91E09093AE01B3
S1131D208093AD018FEA91E09093AC018093AB0175
S1131D3010C080918A0181110CC0E091E501F091FD
S1131D40E60196898E89891720F0D093E601C09325
S1131D50E501809185018F5F809385018E89909143
S1131D608B01981710F480938B0190E09C01220F53
S1131D70331F220F331F220F331F820F931FB6010D
S1131D808F539E4F0E94D6080F900FBE80918A01F8
S1131D90882361F0E091E501F091E60196898E894E
S1131DA0981730F40E94980981E005C081E003C0CF
S1131DB081E001C08FEFDF91CF910F91FF90EF9001
S1131DC0DF90CF90BF90AF909F908F907F906F9057
S1131DD05F904F900895EF92FF920F930F2EF1E8CA
S1131DE0EF2EF1E0FF2EF02D00E020E030E045E59D
S1131DF050E062E471E085E99DE00E94CF0D8130FE
S1131E00A1F40E949C12813081F4F8948FEF9FEF2B
S1131E10909384018093830181E080938A011092DE
S1131E208D0110928C010E9460090F91FF90EF9038
S1131E300895809180018F5F8093800108950FB68B
S1131E40F8940F9280918C0190918D010F900FBEA8
S1131E500895CF92DF92EF92FF920F931F93CF9347
S1131E60DF938091800181119FC0E0908C01F090FC
S1131E708D018FEFE81AF80AF0928D01E0928C013F
S1131E80E114F104B9F48091AD019091AE01209177
S1131E90AB013091AC013093AE012093AD0190932E
S1131EA0AC018093AB01809186018F5F80938601A2
S1131EB00E941E0D8091830190918401E816F90619
S1131EC010F4D12C53C0D12CCC24C394E091AD0197
S1131ED0F091AE018081811107C08FEF9FEF909345
S1131EE084018093830142C0E091AD01F091AE0181
S1131EF00580F681E02DC681D7818A819B81E81611
S1131F00F90628F490938401809383012FC08E01F5
S1131F100E5F1F4FC8010E9428098C899D89892B57
S1131F2021F0CE010C960E9428098E8990918B0194
S1131F30981710F480938B0190E09C01220F331FBB
S1131F40220F331F220F331F820F931FB8018F53A9
S1131F509E4F0E94D608E091E501F091E6019E892A
S1131F608689981708F4B2CFDC2CB0CFE091E50154
S1131F70F091E601868990E0FC01EE0FFF1FEE0F61
S1131F80FF1FEE0FFF1F8E0F9F1FFC01EF53FE4F2D
S1131F908081823010F0DD24D394809187018823DE
S1131FA069F0DD24D3940AC080918801909189015D
S1131FB001969093890180938801D12C8D2DDF9116
S1131FC0CF911F910F91FF90EF90DF90CF900895E4
S1131FD0DF92EF92FF920F931F93CF93DF930FB68D
S1131FE0F8940F92809180018150809380018091B8
S1131FF08001811163C080918E01811133C061C061
S1132000D7011596ED91FC911697C681D781CE0123
S11320100C960E9428098E010E5F1F4FC8010E9472
S113202028098E8990918B01981710F480938B0165
S113203090E09C01220F331F220F331F220F331F06
S1132040820F931FB8018F539E4F0E94D608E091D0
S1132050E501F091E6019E898689981768F0D0928F
S113206087010AC0C0E0D0E00F2EF2EAEF2EF1E0C3
S1132070FF2EF02DDD24D394F70180818111C0CF90
S1132080CD2B11F00E941E0DC0918801D0918901C1
S1132090209761F011E00E94290F811110938701AC
S11320A02197C9F7109289011092880180918701C4
S11320B0882331F00E94980981E003C080E001C0C8
S11320C080E00F900FBEDF91CF911F910F91FF9091
S11320D0EF90DF9008950F931F93CF93DF938C01BC
S11320E0EB010E94190F40918C0150918D01F80170
S11320F020813181C9018C0F9D1F4217530748F479
S113210082179307E8F4918380834817590768F48A
S113211007C08217930780F04817590768F010C06A
S113212060E0841B950B0E943D0D0E94E80F811115
S11321300BC00E94980908C0F80191838083F0CFF6
S1132140F80191838083F1CFDF91CF911F910F919B
S11321500895CF93DF93EC01892B51F00E94190F5E
S113216060E0CE010E943D0D0E94E80F811102C083
S11321700E949809DF91CF9108958091800188236E
S113218021F081E080938701089510928701A09146
S1132190E501B091E601E091E501F091E6012D91B0
S11321A03C918789908D8217930760F06091E501D7
S11321B07091E6018091E5019091E601675E7F4FA1
S11321C00E94B70820918B01822F90E0FC01EE0F52
S11321D0FF1FEE0FFF1FEE0FFF1FE80FF91FEF5356
S11321E0FE4F3081311111C02150822F90E0FC014B
S11321F0EE0FFF1FEE0FFF1FEE0FFF1FE80FF91F7B
S1132200EF53FE4F3081332379F3AC01440F551F54
S1132210440F551F440F551F480F591FDA01AF5380
S1132220BE4F1196ED91FC9112970280F381E02D3F
S11322301296FC93EE9311974C535E4FE417F507F7
S113224029F442815381FD0152834183FC01EE0F45
S1132250FF1FEE0FFF1FEE0FFF1F8E0F9F1FFC01CE
S1132260EF53FE4F0180F281E02D86819781909398
S1132270E6018093E50120938B010895CF93DF93CA
S1132280EB016091E5017091E601645F7F4F0E946C
S1132290F70861E0CE010E943D0DDF91CF910895D2
S11322A00F931F93CF938B01C42F6091E50170911D
S11322B0E601645F7F4F0E94D608CC2311F00FEF34
S11322C01FEF6C2FC8010E943D0DCF911F910F91FC
S11322D008950F931F93CF93DF93DC011596ED912F
S11322E0FC911697C681D7818E01045F1F4FC801E8
S11322F00E9428098091800181111CC00A50110993
S1132300C8010E9428098E8990918B01981710F4B6
S113231080938B0190E09C01220F331F220F331F07
S1132320220F331F820F931FB8018F539E4F0E94B9
S1132330D60805C0B80182EA91E00E94D608E0916F
S1132340E501F091E6019E898689891720F481E0F0
S11323508093870101C080E0DF91CF911F910F919D
S1132360089520918601FC01208320918C013091F5
S11323708D01328321830895CF93DF930FB6F894B0
S11323800F9220918C0130918D01DB014D915C9174
S11323904F3FBFEF5B07F1F0EC01E981FA81A091B7
S11323A08601B881BA1719F02E173F07A8F42E1B1F
S11323B03F0B2417350748F4FB01421B530B518391
S11323C040830E94B11180E008C0FB011182108299
S11323D081E003C080E001C081E00F900FBEDF9177
S11323E0CF91089581E080938701089580918A01B7
S11323F0882331F080918001882321F080E00895C2
S113240081E0089582E008950F931F93CF93DF93A3
S1132410FC01892B79F182A1815082A3268991A1A3
S1132420291751F181112AC0EF018F010E5F1F4F4F
S1132430C8010E94280989A18E8B24E030E0281B62
S113244031093D872C8790918B01981710F4809364
S11324508B0190E09C01220F331F220F331F220FA8
S1132460331F820F931FB8018F539E4F0E94D608CB
S113247081E005C080E003C080E001C080E0DF911E
S1132480CF911F910F910895FC017383628391870B
S113249080874617570790F0421B530B8485958518
S11324A048175907E0F4BF016E5F7F4F8091ED013B
S11324B09091EE010E94F70880E0089542175307B7
S11324C018F46217730768F4BF016E5F7F4F809141
S11324D0EF019091F0010E94F70880E0089581E0F7
S11324E0089581E008950FB6F8940F928091EB015E
S11324F09091EC01892BE9F48AEF91E00E94C408E1
S113250081EF91E00E94C4088AEF91E09093F0017A
S11325108093EF0181EF91E09093EE018093ED01C0
S113252040E065E08AE00E94680B9093EC018093A0
S1132530EB010F900FBE0895EF92FF920F930E944C
S113254073128091EB019091EC01892B91F00F2E85
S1132550F9EEEF2EF1E0FF2EF02D03E020E030E065
S113256045E550E067E471E086E793E10E94CF0D12
S113257001C080E00F91FF90EF9008950F931F9397
S1132580CF93DF9300D000D01F92CDB7DEB7E09198
S1132590EB01F091EC01309771F1D90169835B8310
S11325A04A839D838C836630ECF40E94F61182305A
S11325B061F420E0A801BE016F5F7F4F8091EB01C1
S11325C09091EC010E948B0B17C020E040E050E09A
S11325D0BE016F5F7F4F8091EB019091EC010E94EF
S11325E08B0B0AC020E0AD01BE016F5F7F4FCF01AE
S11325F00E942C0C01C080E00F900F900F900F9060
S11326000F90DF91CF911F910F910895AF92BF92D8
S1132610CF92DF92EF92FF920F931F93CF93DF93AA
S11326206C010E941F0F7C018091E7019091E801E9
S1132630E816F90608F048C030C00580F681E02DA0
S1132640A080B180C681D7818E010E5F1F4FC80163
S11326500E942809E889F989CE0109958A8982FFAF
S11326601CC08C859D858A0D9B1DA816B90660F437
S11326709B838A83D987C887B8018091EF019091A1
S1132680F0010E94F70809C000E010E020E030E00B
S1132690A50160E0CE010E94BE12E091EF01F0912D
S11326A0F00180818111C9CF8091ED019091EE01FB
S11326B09093F0018093EF01F093EE01E093ED012C
S11326C081E0F601808302C0F6011082F092E801F5
S11326D0E092E701C701DF91CF911F910F91FF9025
S11326E0EF90DF90CF90BF90AF900895CF93DF939A
S11326F000D000D000D0CDB7DEB7CE0101964C019A
S113270044244394E12CF12C512CC82ED92CE09173
S1132710EF01F091F0018081882309F4DCC0058089
S1132720F681E02DA080B1800E94190FC4010E949F
S113273006138C01898181114BC00A151B05B8F160
S11327400E94E80FE091EF01F091F0010580F6811D
S1132750E02D66807780C30102960E942809D30188
S113276052968C91529782FF17C01C966D917C9162
S11327701D976A0D7B1D9501A801C3010E94441297
S1132780882369F00E2D1F2D2E2D3F2DA501652DBB
S1132790C3010E94BE1203C08E7FF301828BD3015A
S11327A05096ED91FC915197C301099587C0452D31
S11327B0B501601B710B8091EB019091EC010E94BB
S11327C0010D0E94E80F811179C00E94980976C01A
S11327D00E94E80F73C0898188230CF46FC0AC8019
S11327E0BD80F50182859385892B21F0C501029670
S11327F00E942809CE0106960E940613E9810E2E36
S1132800000CFF0BEA30F10508F058C0EC5CFF4FF8
S11328100C949518D50152962C915297216052969A
S11328202C9352972A813B811C966D917C911D9724
S1132830620F731FAC01C5010E9444128823F1F199
S1132840D5015096ED91FC915197C5010995F5017B
S1132850828982FF33C04A815B8184859585480FD4
S1132860591F0E2D1F2D2E2D3F2D652DC5010E94A4
S1132870BE1224C0D50152968C9152978E7F5296E7
S11328808C931CC0F50122892160228B6A817B8193
S113289075876487680F791F9C01AC01C5010E948C
S11328A044120CC0D50152968C9181FD04C0C5011F
S11328B00E94820803C08E7FF501828B4E2D5F2D0E
S11328C06C2D7D2D8091EB019091EC010E94680CA0
S11328D0811181CF1CCF0E94190FC4010E940613DD
S11328E08C018981811174CFE091ED01F091EE01A9
S11328F08081442D8111452DAE2CBF2C59CF1092CF
S1132900B90088E48093B800089594EA9093BC00D9
S1132910ECEBF0E090819923ECF79091B900987F6B
S1132920903199F48093BB0084E88093BC00ECEB75
S1132930F0E080818823ECF78091B900887F8034AF
S113294031F0803231F083E0089580E0089581E031
S1132950089582E0089584E98093BC00ECEBF0E0F4
S1132960808184FDFDCF0895BF92CF92DF92EF92D4
S1132970FF920F931F93CF93DF93B82ECCEBD0E04D
S11329800F2EF4EADF2EF02D09EB10E00F2EFBEBF7
S1132990EF2EF12CF02D0F2EF4E8CF2EF02DD8824F
S11329A088818823ECF7F8018081887F8830B9F723
S11329B0F701B082C88288818823ECF7F80180810E
S11329C0887F883119F00E94AB14E9CFDF91CF9151
S11329D01F910F91FF90EF90DF90CF90BF900895DB
S11329E08093BB0084E88093BC00ECEBF0E0808132
S11329F08823ECF78091B900887F883221F08033F6
S1132A0021F082E0089580E0089581E0089584EC47
S1132A108093BC00ECEBF0E080818823ECF780919C
S1132A20BB00089584E88093BC00ECEBF0E0808167
S1132A308823ECF78091BB0008959093C5008093A0
S1132A40C40088E18093C100E2ECF0E080818860FA
S1132A50808386E080830895E0ECF0E0908195FF28
S1132A60FDCF8093C6000895CF93DF93EC01888156
S1132A70882331F021960E942C1589918111FBCF76
S1132A80DF91CF9108955058BB27AA270E945B1568
S1132A900C9487170E94791738F00E94801720F051
S1132AA039F49F3F19F426F40C943B170EF4E09587
S1132AB0E7FB0C943517E92F0E94981758F3BA17BF
S1132AC0620773078407950720F079F4A6F50C9440
S1132AD0BA170EF4E0950B2EBA2FA02D0B01B901F5
S1132AE090010C01CA01A0011124FF27591B99F080
S1132AF0593F50F4503E68F11A16F040A22F232F8C
S1132B00342F4427585FF3CF469537952795A795DB
S1132B10F0405395C9F77EF41F16BA0B620B730B82
S1132B20840BBAF09150A1F0FF0FBB1F661F771FF3
S1132B30881FC2F70EC0BA0F621F731F841F48F4A8
S1132B40879577956795B795F7959E3F08F0B0CF31
S1132B509395880F08F09927EE0F97958795089518
S1132B609F939F77EEE389379E0728F4ECE7F0E024
S1132B700E9465170CC00E94F1169058A2EA2AED33
S1132B803FE049EC5FE30E945B150E9487170F90BA
S1132B9007FC905808950E94791760F080E891E04E
S1132BA009F49EEF0E94801728F040E851E071F488
S1132BB05EEF0CC00C943B170C94BA17E92FE07825
S1132BC00E94981740F3092E052AB1F326173707F8
S1132BD04807590738F00E2E07F8E02569F0E0257C
S1132BE0E0640AC0EF6307F8009407FADB01B90157
S1132BF09D01DC01CA01AD01EF930E9459160E94A8
S1132C0087170E940E165F91552339F02BED3FE094
S1132C1049E450FD49EC0C9444150895DF93DD27F5
S1132C20B92FBF7740E85FE31616170648075B071E
S1132C3018F4D92F0E94C1179F938F937F936F939A
S1132C400E947C18E0E9F0E00E943E170E9487177A
S1132C502F913F914F915F910E94DC17DD2351F03A
S1132C609058A2EA2AED3FE049EC5FE3D0785D2773
S1132C700E945B15DF910C9487170E94111708F4CA
S1132C8081E008950E9456160C9487170E948017BD
S1132C9058F00E94791740F029F45F3F29F00C9412
S1132CA0351751110C94BB170C943B170E949817BD
S1132CB068F39923B1F3552391F3951B550BBB2767
S1132CC0AA2762177307840738F09F5F5F4F220FAC
S1132CD0331F441FAA1FA9F335D00E2E3AF0E0E8A3
S1132CE032D091505040E695001CCAF72BD0FE2FED
S1132CF029D0660F771F881FBB1F26173707480781
S1132D00AB07B0E809F0BB0B802DBF01FF27935838
S1132D105F4F3AF09E3F510578F00C9435170C94B0
S1132D20BB175F3FE4F3983ED4F386957795679598
S1132D30B795F7959F5FC9F7880F911D969587956D
S1132D4097F90895E1E0660F771F881FBB1F62178C
S1132D5073078407BA0720F0621B730B840BBA0B4A
S1132D60EE1F88F7E0950895E89409C097FB3EF4B8
S1132D7090958095709561957F4F8F4F9F4F9923C4
S1132D80A9F0F92F96E9BB279395F6958795779542
S1132D906795B795F111F8CFFAF4BB0F11F460FF02
S1132DA01BC06F5F7F4F8F4F9F4F16C0882311F05A
S1132DB096E911C0772321F09EE8872F762F05C06E
S1132DC0662371F096E8862F70E060E02AF09A9509
S1132DD0660F771F881FDAF7880F9695879597F9FE
S1132DE00895DF93CF931F930F938B01EC01EDEBC9
S1132DF0F0E00E943E170E9487179801AE018B01F4
S1132E00EC0160E070E080E89FE30E9443150E94BB
S1132E103C189801AE010F911F91CF91DF910C9452
S1132E20DC17990F0008550FAA0BE0E8FEEF161601
S1132E301706E807F907C0F012161306E407F507AA
S1132E4098F0621B730B840B950B39F40A2661F01E
S1132E50232B242B252B21F408950A2609F4A140C1
S1132E60A6958FEF811D811D089597F99F6780E8CE
S1132E7070E060E008959FEF80EC0895DF93CF93B6
S1132E801F930F93FF92EF92DF927B018C01689462
S1132E9006C0DA2EEF010E94DC17FE01E894A5912A
S1132EA02591359145915591A6F3EF010E945B154B
S1132EB0FE019701A801DA9469F7DF90EF90FF9083
S1132EC00F911F91CF91DF9108959F938F937F93DB
S1132ED06F93FF93EF939B01AC010E94C917EF918D
S1132EE0FF910E943E172F913F914F915F910C9457
S1132EF0C91700240A941616170618060906089519
S1132F0000240A9412161306140605060895092EC1
S1132F100394000C11F4882352F0BB0F40F4BF2B30
S1132F2011F460FF04C06F5F7F4F8F4F9F4F089570
S1132F3057FD9058440F551F59F05F3F71F0479566
S1132F40880F97FB991F61F09F3F79F0879508954B
S1132F50121613061406551FF2CF4695F1DF08C06A
S1132F60161617061806991FF1CF86957105610587
S1132F7008940895E894BB2766277727CB0197F92F
S1132F8008959B01AC0160E070E080E89FE30C943D
S1132F9042160E94DC170C9487170E94791738F0A8
S1132FA00E94801720F0952311F00C9435170C948F
S1132FB03B1711240C94BB170E94981770F3959F2C
S1132FC0C1F3950F50E0551F629FF001729FBB271C
S1132FD0F00DB11D639FAA27F00DB11DAA1F649FB8
S1132FE06627B00DA11D661F829F2227B00DA11D6B
S1132FF0621F739FB00DA11D621F839FA00D611DF1
S1133000221F749F3327A00D611D231F849F600D11
S1133010211D822F762F6A2F11249F5750409AF03A
S1133020F1F088234AF0EE0FFF1FBB1F661F771FC6
S1133030881F91505040A9F79E3F510580F00C9491
S113304035170C94BB175F3FE4F3983ED4F3869591
S113305077956795B795F795E7959F5FC1F7FE2B31
S1133060880F911D9695879597F9089519F416F48C
S11330700C943B170C9480180E94A017B8F3992362
S1133080C9F3B6F39F57550B87FF0E948E1800248F
S1133090A0E640EA900180585695979528F4805C04
S11330A0660F771F881F20F026173707480730F46C
S11330B0621B730B840B202931294A2BA695179484
S11330C00794202531254A2758F7660F771F881F54
S11330D020F026173707480730F4620B730B840B74
S11330E0200D311D411DA09581F7B901842F915800
S11330F0880F9695879508959B01AC010C94C91788
S11331009F3F31F0915020F4879577956795B79557
S1133110880F911D9695879597F908959150504081
S1133120660F771F881FD2F70895EE0FFF1F0590D3
S1133130F491E02D09940F931F93CF93DF93823082
S1133140910510F482E090E0E0913702F0913802AA
S113315020E030E0A0E0B0E0309719F140815181E7
S11331600281138148175907C8F08417950769F439
S1133170109731F012960C93129713961C9327C054
S1133180009337021093380222C02115310519F03B
S11331904217530718F49A01BD01EF01DF01F8014A
S11331A0DBCF21153105F9F0281B390B243031050B
S11331B080F48A819B816115710521F0FB01938361
S11331C0828304C09093380280933702FE013296C2
S11331D044C0FE01E20FF31F819391932250310901
S11331E0398328833AC02091350230913602232B4B
S11331F041F420910201309103013093360220936F
S1133200350220910001309101012115310541F46D
S11332102DB73EB74091040150910501241B350B95
S1133220E0913502F0913602E217F307A0F42E1B69
S11332303F0B2817390778F0AC014E5F5F4F241716
S1133240350748F04E0F5F1F509336024093350206
S11332508193919302C0E0E0F0E0CF01DF91CF9140
S11332601F910F910895CF93DF93009709F481C0C4
S1133270FC01329713821282A0913702B091380276
S1133280109781F420813181820F931F20913502A0
S1133290309136022817390751F5F0933602E0933E
S11332A0350267C0ED0120E030E0CE17DF0740F4BF
S11332B04A815B819E0141155105F1F0EA01F5CF88
S11332C0D383C28340815181840F951FC817D907C6
S11332D059F488819981840F951F02969183808384
S11332E08A819B81938382832115310529F4F0938C
S11332F03802E09337023DC0E901FB83EA83499138
S11333005991C40FD51FEC17FD0761F48081918199
S1133310840F951F0296E9019983888382819381A2
S11333209B838A83E0E0F0E012968D919C91139741
S1133330009719F0FD01DC01F7CF8D919C91119755
S11333409D012E5F3F4F820F931F209135023091D4
S113335036022817390769F4309729F41092380295
S11333601092370202C013821282B0933602A093E5
S11333703502DF91CF910895FB01DC0102C0019079
S11333800D9241505040D8F70895DC0101C06D936F
S113339041505040E0F70895AEE0B0E0E2EDF9E1CD
S11333A00C948D1C0D891E8986E08C831A830983F5
S11333B08FEF9FE79E838D83AE01475E5F4F6F89DA
S11333C0788DCE0101960E94EE19EF81F885E00F09
S11333D0F11F10822E96E4E00C94A91CABE0B0E03F
S11333E0E4EFF9E10C947F1C6C017B018A01FC0180
S11333F017821682838181FFCCC1CE0101963C01E4
S1133400F6019381F70193FD859193FF81917F01EB
S1133410882309F4BAC1853239F493FD859193FF69
S113342081917F01853229F4B60190E00E94E51B69
S1133430E7CF912C212C312CFFE1F315D8F08B32FE
S113344079F038F4803279F08332A1F4232D2061AD
S11334501DC08D3261F0803369F4232D216016C0C4
S1133460832D8260382EE32DE4603E2E2AC0F32D96
S1133470F8601DC037FC2DC020ED280F2A3040F025
S11334808E32B9F436FC81C1232D2064322E19C04A
S113349036FE06C08AE0989E200D1124922E11C09B
S11334A0EAE02E9E200D1124222EF32DF0623F2EF1
S11334B008C08C3621F4832D8068382E02C08836EB
S11334C041F4F70193FD859193FF81917F0181116F
S11334D0B3CF982F9F7D9554933028F40C5F1F4FE2
S11334E09FE399830DC0833631F0833771F08335C0
S11334F009F059C021C0F801808189830E5F1F4FF4
S113350088248394912C530113C02801F2E04F0EB8
S1133510511CF801A080B18036FE03C0692D70E013
S113352002C06FEF7FEFC5010E94DA1B4C018201DC
S1133530F32DFF773F2E16C0280122E0420E511CC6
S1133540F801A080B18036FE03C0692D70E002C08E
S11335506FEF7FEFC5010E94CF1B4C01F32DF06884
S11335603F2E820133FC1BC0822D90E08816990601
S1133570B0F4B60180E290E00E94E51B2A94F4CFF7
S1133580F50137FC859137FE81915F01B60190E02A
S11335900E94E51B21102A9421E0821A91088114CB
S11335A0910471F7E8C0843611F0893641F5F801C9
S11335B037FE07C060817181828193810C5F1F4F48
S11335C008C060817181072E000C880B990B0E5F77
S11335D01F4FF32DFF763F2E97FF09C090958095DE
S11335E0709561957F4F8F4F9F4FF0683F2E2AE073
S11335F030E0A3010E94211C882E861845C085371F
S113360031F4232D2F7EB22E2AE030E025C0932DF5
S1133610997FB92E8F36C1F018F4883579F0B5C08A
S1133620803719F0883721F0B0C0E92FE061BE2E51
S1133630B4FE0DC0FB2DF460BF2E09C034FE0AC0D9
S1133640292F2660B22E06C028E030E005C020E114
S113365030E002C020E132E0F801B7FE07C060812B
S11336607181828193810C5F1F4F06C060817181DB
S113367080E090E00E5F1F4FA3010E94211C882E62
S11336808618FB2DFF773F2E36FE0DC0232D2E7F8F
S1133690A22E891458F434FE0BC032FC09C0832DC9
S11336A08E7EA82E05C0B82CA32C03C0B82C01C054
S11336B0B92CA4FE0FC0FE01E80DF11D80818033FA
S11336C021F49A2D997EA92E09C0A2FE06C0B394B6
S11336D0B39404C08A2D867809F0B394A3FC11C076
S11336E0A0FE06C0B21488F4280C922C9B180EC0BD
S11336F0B21460F4B60180E290E00E94E51BB3943A
S1133700F7CFB21418F42B1802C0982C212CA4FE65
S113371010C0B60180E390E00E94E51BA2FE17C032
S1133720A1FC03C088E790E002C088E590E0B60100
S11337300CC08A2D867859F0A1FE02C08BE201C02C
S113374080E2A7FC8DE2B60190E00E94E51B89149B
S113375038F4B60180E390E00E94E51B9A94F7CF19
S11337608A94F301E80DF11D8081B60190E00E9476
S1133770E51B8110F5CF222009F442CEB60180E288
S113378090E00E94E51B2A94F6CFF601868197818A
S113379002C08FEF9FEF2B96E2E10C949B1CFC017F
S11337A00590615070400110D8F7809590958E0F68
S11337B09F1F0895FC016150704001900110D8F7DB
S11337C0809590958E0F9F1F08950F931F93CF930D
S11337D0DF93FB01238121FD03C08FEF9FEF2CC0FA
S11337E022FF16C046815781248135814217530731
S11337F044F4A081B1819D012F5F3F4F3183208329
S11338008C93268137812F5F3F4F3783268314C0E3
S11338108B01EC01FB010084F185E02D0995892BD6
S1133820E1F6D80116968D919C91179701961796FB
S11338309C938E931697CE01DF91CF911F910F9198
S11338400895FA01AA27283051F1203181F1E89432
S11338506F936E7F6E5F7F4F8F4F9F4FAF4FB1E07F
S11338603ED0B4E03CD0670F781F891F9A1FA11D7A
S1133870680F791F8A1F911DA11D6A0F711D811D7B
S1133880911DA11D20D009F468943F912AE0269F40
S113389011243019305D3193DEF6CF010895462F9F
S11338A04770405D4193B3E00FD0C9F7F6CF462F80
S11338B04F70405D4A3318F0495D31FD40524193E9
S11338C002D0A9F7EACFB4E0A695979587957795A6
S11338D06795BA95C9F700976105710508959B012D
S11338E0AC010A2E06945795479537952795BA95B6
S11338F0C9F7620F731F841F951FA01D08952F928F
S11339003F924F925F926F927F928F929F92AF926B
S1133910BF92CF92DF92EF92FF920F931F93CF93B8
S1133920DF93CDB7DEB7CA1BDB0B0FB6F894DEBF4F
S11339300FBECDBF09942A88398848885F846E8475
S11339407D848C849B84AA84B984C884DF80EE80BF
S1133950FD800C811B81AA81B981CE0FD11D0FB6C8
S1133960F894DEBF0FBECDBFED010895F894FFCFEC
S11339700000390220000000803F0000803F00006A
S1133980803F0000803F0000803F0000803F000037
S1133990803F416E676C6520783A252E33660A00B5
S11339A05441534B41005441534B42005441534BF7
S11339B0430049444C4500546D7220537663000023
S9030000FC
