S00F000050616E74696C742E7372656339
S11300000C94F4000C9411010C9411010C94110142
S11300100C9411010C9411010C94DD0C0C9411013D
S11300200C9411010C9411010C9411010C94110104
S11300300C9411010C9411010C9411010C941101F4
S11300400C9411010C9411010C9411010C941101E4
S11300500C9411010C9411010C9411010C941101D4
S11300600C9411010C941101851685168516B5168C
S1130070BD16CD1685168516B516BD16036EDB3670
S11300803D9A9999993DABAAAA2A3E000000803F67
S1130090084AD73B3BCE016E84BCBFFDC12F3D6CEB
S11300A074319ABD56833DDA3D00C77F11BED9E451
S11300B0BB4C3E916BAAAABE000000803F072C7A7D
S11300C0A5BA6CC590DA3B9365FC8BBC53F810FD64
S11300D03C5692834DBD879D3AB63DCBC9BF5BBEAE
S11300E073DA0FC93F006E616E00696E66000040EE
S11300F07A10F35A00A0724E18090010A5D4E80033
S113010000E87648170000E40B54020000CA9A3B4A
S1130110000000E1F50500008096980000004042D0
S11301200F000000A086010000001027000000005E
S1130130E803000000006400000000000A00000062
S113014000000100000000002C76D888DC674F080E
S113015023DFC1DFAE59E1B1B796E5E3E453C63A14
S1130160E651997696E8E6C28426EB898C9B62ED8B
S1130170407C6FFCEFBC9C9F40F2BAA56FA5F49045
S1130180055A2AF75C936B6CF9676DC11BFCE0E4BC
S11301900D47FEF520E6B500D0ED902E0300943512
S11301A077050080841E080000204E0A000000C865
S11301B00C333333330F986E12831141EF8D2114B6
S11301C0893BE65516CFFEE6DB18D1844B381BF786
S11301D07C1D901DA4BBE424203284725E22810025
S11301E0C9F124ECA1E53D2711241FBECFEFD8E0CF
S11301F0DEBFCDBF11E0A0E0B1E0E4ECF3E402C067
S113020005900D92AC35B107D9F722E0ACE5B1E029
S113021001C01D92A935B207E1F70E9413010C94A5
S1130220E0210C94000087E690E00E9498170E9459
S1130230FA160E94AF0A0E9433010E94A5010E948F
S1130240DA0188E0E2E2F1E0AFE1B2E001900D9280
S11302508A95E1F78FE192E00E94AF170E94B802FD
S11302600E947A11FFCFF894E4E6F0E080818E7F5B
S11302708083ACE7B0E08C9180648C938C918F7711
S11302808C93EAE7F0E080818460808380818260DF
S113029080838081816080838C918E7F8C938C910C
S11302A08D7F8C938C918B7F8C938C91877F8C9397
S11302B0808180628083ABE7B0E08C918E7F8C93E9
S11302C08C918E7F8C938C918E7F8C93AEE7B0E073
S11302D08C9181608C93808180688083808180642C
S11302E0808378940895BC01990F880B990B0E9420
S11302F067192AE737EC41E350E40E947F1A20E0B3
S113030030E04AEF52E40E94BF170E9436197093FE
S11303108900609388000895BC01990F880B990B9C
S11303200E9467192AE737EC41E350E40E947F1AE0
S113033020E030E04AEF52E40E94BF170E943619D1
S113034070938B0060938A000895F89484B186605A
S113035084B9109285001092840087E893E1909309
S1130360870080938600E0E8F0E0808180688083E5
S113037080818F7B808380818062808380818F7E77
S1130380808380818E7F8083808182608083E1E8A6
S1130390F0E08081886080838081806180838081B7
S11303A08160808380818260808380818B7F808371
S11303B078940895F894559A85B5846085BD85B57B
S11303C08D7F85BD85B5816085BD84B5816084BD23
S11303D084B5826084BD85B5886085BD8FEF87BD97
S11303E087B5869588BD84B5806284BD7894089568
S11303F0CF93DF9300D0CDB7DEB70E94AE119A83BE
S1130400898308E710E061E070E0CE0101960E9464
S1130410FA12F8016081718180E090E00E94651910
S11304206093290270932A0280932B0290932C02EA
S1130430F8016081718180E090E00E94651920E0FC
S113044030E040EF51E40E947F1A20E030E040E8C1
S11304505AE30E947F1A20E030E040E251E40E9417
S1130460BF170E94361968BDCECFCF93DF9300D05B
S1130470CDB7DEB70E94AE119A8389830F2EF6E1C1
S11304808F2EF1E09F2EF02D0F2EFAE06F2EF1E06B
S11304907F2EF02D61E070E0CE0101960E94FA12E9
S11304A0D401AD90BD90CD90DC901397F301E0841E
S11304B0F1840285138524813581468157816081C9
S11304C07181828193811B96EC911B97EF931A960D
S11304D0EC911A97EF931996EC911997EF9318965C
S11304E0EC911897EF931796EC911797EF93169654
S11304F0EC911697EF931596EC911597EF9314964C
S1130500EC91EF930E943D048DE292E00E948107FA
S11305100FB6F894DEBF0FBECDBFBCCFCF93DF9331
S113052000D0CDB7DEB70E94AE119A83898361E013
S113053070E0CE0101960E94FA126AE071E086E151
S113054091E00E94C608F3CFCF93DF9300D0CDB7DC
S1130550DEB70E94AE119A83898361E070E0CE0118
S113056001960E94FA128DE292E00E948603F5CF72
S1130570EF92FF920F93E12CF12C03E020E030E0A6
S113058040E051E06AE271E085E392E00E945E108F
S113059002E020E030E040E051E060E371E08EE80A
S11305A092E00E945E1001E020E030E040E051E083
S11305B066E371E084EA92E00E945E1004E020E0C9
S11305C030E040E051E06CE371E088EF91E00E949C
S11305D05E100F91FF90EF9008958F929F92AF92CB
S11305E0BF92CF92DF92EF92FF920F931F93CF931C
S11305F0DF93CDB7DEB728970FB6F894DEBF0FBEF2
S1130600CDBF4B015C01C982DA82EB82FC820D838F
S11306101E832F8338872FE632E143E85AE36D8146
S11306207E818F8198850E947F1A26E636E645E80A
S113063052E40E94BD186B017C0120E030E040E0F0
S11306405FE3C501B4010E947F1A9B01AC01C7019D
S1130650B6010E94BF176B017C0129813A814B814D
S11306605C81C501B4010E94BE1720E030E0A901FD
S11306700E947F1A26E636E645E852E40E947F1A75
S11306809B01AC01C701B6010E94BF176B017C013D
S113069020E030E044EB52E40E94721A18169CF0F9
S11306A020E030E044EB52ECC701B6010E94B818D8
S11306B088238CF40F2EC12CD12CF4EBEF2EF2EC0A
S11306C0FF2EF02D08C00F2EC12CD12CF4EBEF2EF1
S11306D0F2E4FF2EF02D20E030E044EB52E4C701B9
S11306E0B6010E94BF1728960FB6F894DEBF0FBE5E
S11306F0CDBFDF91CF911F910F91FF90EF90DF90CD
S1130700CF90BF90AF909F908F9008958F929F92BB
S1130710AF92BF92CF92DF92EF92FF920F931F930B
S1130720CF93DF934C01FC016081718182819381BD
S1130730C0906401D0906501E0906601F09067017B
S1130740009168011091690120916A0130916B0157
S113075042E450E00E94ED02A62EB72ED82FC92FF6
S1130760F4016481758186819781C0905C01D09089
S11307705D01E0905E01F0905F01009160011091D5
S11307806101209162013091630142E450E00E94D2
S1130790ED026B017C01CF93DF93BF92AF9282E4B1
S11307A091E09F938F938FE192E09F938F930E94A8
S11307B060218FE192E00E94AF176A2D7B2D8D2F6F
S11307C09C2F0E942F19CB010E947301C701B6010F
S11307D00E942F19CB010E948C018DB79EB70896F9
S11307E00FB6F8949EBF0FBE8DBFDF91CF911F91BE
S11307F00F91FF90EF90DF90CF90BF90AF909F90BC
S11308008F900895CF92DF92EF92FF920F931F93F0
S11308108B019C0135952795179507950F2EFFEDB4
S1130820CF2EF9E5DF2EF7E3EF2EFFE5FF2EF02DB7
S1130830C01AD10AE20AF30A20E030E040E05FE3A4
S11308400E947F1AA70196010E947F1AA7019601B0
S11308500E947F1A9B01AC0160E070E080EC9FE392
S11308600E94BE17A70196010E947F1A1F910F9143
S1130870FF90EF90DF90CF9008954F925F926F9228
S11308807F928F929F92AF92BF92CF92DF92EF921C
S1130890FF920F931F93CF93DF93CDB7DEB7A0974B
S11308A00FB6F894DEBF0FBECDBF69877A878B87FA
S11308B09C872D873E874F87588BE98AFA8A0B8B52
S11308C01C8B20E030E0A901C601B5010E94B818D4
S11308D0811117C020E030E0A9016BA97CA98DA982
S11308E09EA90E94B81881110CC020E030E0A90133
S11308F06FA978AD89AD9AAD0E94B818882309F420
S113090050C1A6019501C601B5010E947F1A2B01B1
S11309103C012BA93CA94DA95EA9CA01B9010E94B9
S11309207F1A9B01AC01C301B2010E94BF172B01C6
S11309303C012FA938AD49AD5AADCA01B9010E9495
S11309407F1A9B01AC01C301B2010E94BF170E9430
S113095002042B013C019B01AC01C601B5010E94BC
S11309607F1A698F7A8F8B8F9C8FA30192016BA959
S11309707CA98DA99EA90E947F1A6D8F7E8F8F8F6F
S113098098A3A30192016FA978AD89AD9AAD0E9495
S11309907F1A6D837E838F839887809080019090E7
S11309A08101A0908201B090830140907801509021
S11309B0790160907A0170907B01C0900601D0901B
S11309C00701E0900801F090090180917C01909169
S11309D07D01A0917E01B0917F0189839A83AB83CD
S11309E0BC83A3019201C501B4010E947F1A6D8BDF
S11309F07E8B8F8B988F29813A814B815C81C701D3
S1130A00B6010E947F1A9B01AC016D897E898F8992
S1130A10988D0E94BE176D8B7E8B8F8B988FA7014C
S1130A209601C501B4010E947F1A4B015C01298122
S1130A303A814B815C81C301B2010E947F1A9B0100
S1130A40AC01C501B4010E94BF1769837A838B830B
S1130A509C83A7019601C701B6010E947F1A20E07A
S1130A6030E040E05FE30E94BE176B017C01A3010C
S1130A709201C301B2010E947F1A9B01AC01C7011C
S1130A80B6010E94BF176B017C0110927401109291
S1130A9075011092760110927701109270011092F4
S1130AA07101109272011092730110926C011092F4
S1130AB06D0110926E0110926F019B01AC016D8D5E
S1130AC07E8D8F8D98A10E947F1A4B015C01298134
S1130AD03A814B815C816D817E818F8198850E94F2
S1130AE07F1A9B01AC01C501B4010E94BE179B0192
S1130AF0AC0169857A858B859C850E94BF176987BF
S1130B007A878B879C872D893E894F89588D6D8183
S1130B107E818F8198850E947F1A4B015C01A70119
S1130B209601698D7A8D8B8D9C8D0E947F1A9B0115
S1130B30AC01C501B4010E94BE179B01AC016D85D7
S1130B407E858F8598890E94BF176D877E878F87E2
S1130B50988B29813A814B815C81698D7A8D8B8D4B
S1130B609C8D0E947F1A6B017C012D893E894F89DF
S1130B70588D6D8D7E8D8F8D98A10E947F1A9B015B
S1130B80AC01C701B6010E94BE179B01AC01698983
S1130B907A898B899C890E94BF17698B7A8B8B8B8E
S1130BA09C8B2FE133EA45EF5BE369857A858B857E
S1130BB09C850E947F1A69877A878B879C872FE19F
S1130BC033EA45EF5BE36D857E858F8598890E94C6
S1130BD07F1A6D877E878F87988B2FE133EA45EFE5
S1130BE05BE369897A898B899C890E947F1A698B66
S1130BF07A8B8B8B9C8B8091060190910701A0913D
S1130C000801B091090189839A83AB83BC83C090A6
S1130C108001D0908101E0908201F0908301809165
S1130C207C0190917D01A0917E01B0917F018D8323
S1130C309E83AF83B887409078015090790160908B
S1130C407A0170907B01C701B601905829853A85D5
S1130C504B855C850E947F1A4B015C012D813E818E
S1130C604F8158856D857E858F8598890E947F1A6E
S1130C709B01AC01C501B4010E94BE174B015C018C
S1130C80A301920169897A898B899C890E947F1AC0
S1130C909B01AC01C501B4010E94BE1729813A81B0
S1130CA04B815C810E94BF17698F7A8F8B8F9C8FD9
S1130CB029813A814B815C8169857A858B859C8504
S1130CC00E947F1A4B015C012D813E814F81588522
S1130CD069897A898B899C890E947F1A9B01AC015E
S1130CE0C501B4010E94BF174B015C01A30192012D
S1130CF06D857E858F8598890E947F1A9B01AC0142
S1130D00C501B4010E94BE17A70196010E94BF1736
S1130D106D8F7E8F8F8F98A329813A814B815C815F
S1130D206D857E858F8598890E947F1A4B015C01B1
S1130D30A701960169897A898B899C890E947F1A07
S1130D409B01AC01C501B4010E94BE174B015C01BB
S1130D50A301920169857A858B859C850E947F1AFF
S1130D609B01AC01C501B4010E94BF172D813E81D6
S1130D704F8158850E94BF176D8B7E8B8F8B988F08
S1130D8029813A814B815C8169897A898B899C8923
S1130D900E947F1A4B015C01A70196016D857E8537
S1130DA08F8598890E947F1A9B01AC01C501B4010B
S1130DB00E94BF176B017C012D813E814F815885B4
S1130DC069857A858B859C850E947F1A9B01AC017D
S1130DD0C701B6010E94BE17A30192010E94BF176A
S1130DE04B015C01298D3A8D4B8D5C8DCA01B90193
S1130DF00E947F1A6B017C012D8D3E8D4F8D58A171
S1130E00CA01B9010E947F1A9B01AC01C701B60156
S1130E100E94BF176B017C012D893E894F89588D33
S1130E20CA01B9010E947F1A9B01AC01C701B60136
S1130E300E94BF176B017C01A5019401C501B40197
S1130E400E947F1A9B01AC01C701B6010E94BF1723
S1130E500E9402046B017C019B01AC01698D7A8DB7
S1130E608B8D9C8D0E947F1A6093060170930701FD
S1130E708093080190930901A70196016D8D7E8DE1
S1130E808F8D98A10E947F1A6093800170938101D5
S1130E908093820190938301A70196016D897E89D5
S1130EA08F89988D0E947F1A60937C0170937D01D5
S1130EB080937E0190937F01A7019601C501B4013F
S1130EC00E947F1A609378017093790180937A016C
S1130ED090937B01A0960FB6F894DEBF0FBECDBFF2
S1130EE0DF91CF911F910F91FF90EF90DF90CF9002
S1130EF0BF90AF909F908F907F906F905F904F9036
S1130F0008954F925F926F927F928F929F92AF92C9
S1130F10BF92CF92DF92EF92FF92CF93DF93CDB740
S1130F20DEB72E970FB6F894DEBF0FBECDBF9E87F7
S1130F308D87C0907C01D0907D01E0907E01F0907F
S1130F407F018090780190907901A0907A01B0900F
S1130F507B014090800150908101609082017090EB
S1130F6083016091060170910701809108019091BD
S1130F7009019B01AC010E94BF1769877A878B879F
S1130F809C8720E030E040E050ECC701B6010E94AD
S1130F907F1AA70196010E947F1A69837A838B8343
S1130FA09C83A5019401C501B4010E94BF17A5014A
S1130FB094010E947F1A9B01AC0169817A818B8123
S1130FC09C810E94BE1720E030E040E85FE30E946D
S1130FD0BF1769837A838B839C83A3019201C30126
S1130FE0B2010E94BF17A70196010E947F1A6D8368
S1130FF07E838F83988729853A854B855C85C501D7
S1131000B4010E947F1A9B01AC016D817E818F81A6
S113101098850E94BF1729813A814B815C810E9487
S1131020591823E333E345E652E40E947F1AED8521
S1131030FE85608771878287938720E030E040E0F7
S113104050ECC301B2010E947F1A69837A838B83B7
S11310509C839B01AC01C501B4010E947F1A6D837E
S11310607E838F83988729853A854B855C85C70164
S1131070B6010E947F1A9B01AC016D817E818F8134
S113108098850E94BF170E942B1823E333E345E69B
S113109052E40E947F1AED85FE85648375838683FE
S11310A09783A7019601C701B6010E94BF176D83FC
S11310B07E838F83988729813A814B815C81C30128
S11310C0B2010E947F1A69837A838B839C832D816A
S11310D03E814F815885C701B6010E947F1A9B014A
S11310E0AC0169817A818B819C810E94BE1720E0CA
S11310F030E040E85FE30E94BF176B017C012D8163
S11311003E814F815885C501B4010E947F1A4B016D
S11311105C0129853A854B855C85C301B2010E9437
S11311207F1A9B01AC01C501B4010E94BF17A7013E
S113113096010E94591823E333E345E652E40E94E2
S11311407F1AED85FE8560837183828393832E9657
S11311500FB6F894DEBF0FBECDBFDF91CF91FF90E5
S1131160EF90DF90CF90BF90AF909F908F907F9043
S11311706F905F904F90089580ED0E942F178BE33E
S11311800E946B1781ED0E94001708954F925F92A1
S11311906F927F92AF92BF92CF92DF92EF92FF92C3
S11311A00F931F93CF93DF938C01EB010E94BC0834
S11311B00E948217F82E0E9482176F2D70E0762FFE
S11311C06627682B072E000C880B990B0E94671961
S11311D0F80160837183828393830E948217F82EBF
S11311E00E9482176F2D70E0762F6627682B072EDA
S11311F0000C880B990B0E946719F80164837583AE
S1131200868397830E948217F82E0E9482176F2D7F
S113121070E0762F6627682B072E000C880B990B3D
S11312200E946719F80160877187828793870E94FB
S11312308217F82E0E9482176F2D70E0762F662792
S1131240682B072E000C880B990B0E94671960937A
S1131250390270933A0280933B0290933C020E94BD
S11312608217F82E0E9482176F2D70E0762F662762
S1131270682B072E000C880B990B0E946719688352
S113128079838A839B830E948217F82E0E94821797
S11312906F2D70E0762F6627682B072E000C880BC5
S11312A0990B0E9467196C837D838E839F830E94B0
S11312B08217F82E0E948D176F2D70E0762F662707
S11312C0682B072E000C880B990B0E9467196887FE
S11312D079878A879B870E9426170F2EFDE3EF2EBE
S11312E0F2E0FF2EF02D0F2EF9E4CF2EF2E0DF2EE8
S11312F0F02D0F2EF9E4AF2EF2E0BF2EF02DF70102
S113130041905190619071907F0120E030E040E085
S113131051E4F80160817181828193810E947F1A76
S11313202DEC3CEC4CE151E40E947F1A20E030E0CB
S113133040E058E30E947F1AA30192010E94BE1765
S1131340F80161937193819391938F01F601419018
S11313505190619071906F0120E030E04AE754E4CD
S1131360688179818A819B810E947F1A20E030E024
S113137040E058E30E947F1A20E030E044E353E465
S11313800E94BD1823EC35EF48E450E40E947F1A14
S1131390A30192010E94BE1769937993899399934B
S11313A0EA14FB0409F0ABCFDF91CF911F910F91A9
S11313B0FF90EF90DF90CF90BF90AF907F906F90B1
S11313C05F904F9008952F923F924F925F926F9249
S11313D07F928F929F92AF92BF92CF92DF92EF92C1
S11313E0FF920F931F93CF93DF9300D000D0CDB71C
S11313F0DEB71C0169837A83812C912C5C018CE01B
S1131400A80EB11C69817A81C1010E94C6087101CC
S11314100F2EF0E96F2EF1E07F2EF02DC980DA80D7
S11314200F2EF4E84F2EF1E05F2EF02D82017C8226
S11314306B82F70121913191419151917F01EB81AF
S1131440FC8160817181828193810E94BF17EB814D
S1131450FC816193719381939193FC83EB83F601F7
S113146021913191419151916F01F8016081718114
S1131470828193810E94BF17F801619371938193D4
S113148091938F01EA14FB04A1F6FFEF8F1A9F0AD0
S113149084E68816910409F0B5CF0DE312E0E9E47F
S11314A0F2E0FC83EB830F2EFCE9EF2EF1E0FF2E3C
S11314B0F02DF30161917191819191913F0120E0AF
S11314C030E048EC52E40E94BD18F8016193719336
S11314D0819391938F01F201619171918191919125
S11314E02F0120E030E048EC52E40E94BD18EB816B
S11314F0FC816193719381939193FC83EB836E14CC
S11315007F04B9F620E030E040E251E46091450206
S11315107091460280914702909148020E94BE1742
S11315206093450270934602809347029093480269
S11315300F900F900F900F90DF91CF911F910F910B
S1131540FF90EF90DF90CF90BF90AF909F908F90DF
S11315507F906F905F904F903F902F9008958BE70E
S113156092E90197F1F700C0000080ED0E942F1767
S11315708BE60E946B1781E00E946B170E9426176E
S113158080ED0E942F178AE10E946B1785E00E946C
S11315906B170E94261780ED0E942F178BE10E9483
S11315A06B1788E00E946B170E94261780ED0E943B
S11315B02F178CE10E946B1780E10E946B170E9429
S11315C0261780ED0E942F1788E30E946B1781E095
S11315D00E946B170E94261780ED0E942F1789E145
S11315E00E946B1787E00E946B170E9426176AE01F
S11315F071E086E191E00E94E3090895CF93DF93BF
S1131600EC010E94A811CE010E94051FEC010E946A
S11316107712209711F40E943C0BCE01DF91CF91F9
S11316200895CF93DF93009741F0EC010E94A81135
S1131630CE010E949D1F0E947712DF91CF910895E1
S11316408FE380937E0080B7877F80BF80B78068F8
S113165080BF83B7817F83BF0FB6F8940F9283B79F
S1131660816083BF85B7806685BF8F7D85BF0F90FE
S11316700FBE889513BE0895259A2D9A83ED90E3A5
S11316800197F1F700C000001D9AF8CF259A2D9A12
S11316902FE78AE196E0215080409040E1F700C0B6
S11316A000001D9AF5CFFC010396928381832FEFEE
S11316B03FEF3483238396838583908787831082C7
S11316C00895FC01118610860895CF93DF939C0141
S11316D0FB01DC011196CD91DC911297D383C28377
S11316E08C819D81958384838C819D81DC011396FB
S11316F07C936E9312977D836C8331872087F901E5
S113170080818F5F8083DF91CF910895CF93DF93A2
S1131710EB01488159814F3F2FEF520721F4FC011F
S1131720A781B0850DC0DC01139601C0DF011296BC
S1131730ED91FC9113972081318142175307B0F743
S11317401296ED91FC911397FB83EA83D583C483AE
S1131750BD83AC831396DC93CE93129799878887C5
S1131760FC0120812F5F2083DF91CF910895CF93D7
S1131770DF93FC01A085B185C281D38184819581E9
S11317809D838C83C481D581828193819B838A8349
S113179011968D919C911297E817F90731F4848181
S11317A0958112969C938E931197118610868C9135
S11317B081508C938C91DF91CF910895FC016083CB
S11317C03197708331971082319720E820833197C5
S11317D01082779740833197508383970895A89513
S11317E090EC88E10FB6F894A895809360000FBE42
S11317F090936000A0910102B0910202CD91CDBFFF
S1131800DD91DEBFFF91EF91DF91CF91BF91AF9159
S11318109F918F917F916F915F914F913F912F9104
S11318201F910F91FF90EF90DF90CF90BF90AF90FA
S11318309F908F907F906F905F904F903F902F90EC
S11318401F900F900FBE0F90089581E008950F929E
S11318500FB6F8940F921F9211242F923F924F9239
S11318605F926F927F928F929F92AF92BF92CF922C
S1131870DF92EF92FF920F931F932F933F934F9317
S11318805F936F937F938F939F93AF93BF93CF9304
S1131890DF93EF93FF93A0910102B09102020DB682
S11318A00D920EB60D920E943813A0910102B091D0
S11318B00202CD91CDBFDD91DEBFFF91EF91DF91AB
S11318C0CF91BF91AF919F918F917F916F915F91D4
S11318D04F913F912F911F910F91FF90EF90DF90C7
S11318E0CF90BF90AF909F908F907F906F905F90BC
S11318F04F903F902F901F900F900FBE0F90089520
S11319000F920FB6F8940F921F9211242F923F92C8
S11319104F925F926F927F928F929F92AF92BF92FB
S1131920CF92DF92EF92FF920F931F932F933F93E7
S11319304F935F936F937F938F939F93AF93BF93D3
S1131940CF93DF93EF93FF93A0910102B091020232
S11319500DB60D920EB60D9213BE0E94B8118111F0
S11319600E943813A0910102B0910202CD91CDBF23
S1131970DD91DEBFFF91EF91DF91CF91BF91AF91E8
S11319809F918F917F916F915F914F913F912F9193
S11319901F910F91FF90EF90DF90CF90BF90AF9089
S11319A09F908F907F906F905F904F903F902F907B
S11319B01F900F900FBE0F9008950E94800C1895F1
S11319C00FB6F8940F92FC01928D0F900FBE81E038
S11319D0911180E008950F931F93CF93DF93EC014F
S11319E0042F1A8D4C8D41110CC088819981892B4B
S11319F009F042C08C819D810E947F141D821C824B
S1131A0042C0011117C050E08A819B810E940921C4
S1131A102C8D8A819B81820F911D9B838A832C81CB
S1131A203D818217930750F1888199819B838A8332
S1131A3080E029C050E08E819F810E9409218C8D15
S1131A4090E09195819591092E813F81280F391F4E
S1131A503F832E83488159812417350730F42C8124
S1131A603D81820F931F9F838E83023049F411239B
S1131A7049F0115080E007C080E005C080E003C059
S1131A8080E001C080E01F5F1A8FDF91CF911F912A
S1131A900F910895FC01448D4423A9F050E0268160
S1131AA03781240F351F3783268384819581281736
S1131AB0390720F08081918197838683CB016681E9
S1131AC077810E9409210895EF92FF920F931F934B
S1131AD0CF938C010FB6F8940F92FC01C68D1C169F
S1131AE0ACF48189811106C011C0F801818981118A
S1131AF005C00CC07801F1E1EF0EF11CC7010E9492
S1131B00E41381110E946D14C15079F78FEFF8012D
S1131B10868F0F900FBE0FB6F8940F92C58D1C16CA
S1131B20ACF48085811106C011C0F8018085811153
S1131B3005C00CC07801F8E0EF0EF11CC7010E944B
S1131B40E41381110E946D14C15079F78FEFF801ED
S1131B50858F0F900FBECF911F910F91FF90EF9043
S1131B600895CF93DF93EC010FB6F8940F92E881B8
S1131B70F9818B8D2C8D90E030E0829FA001839FB2
S1131B80500D929F500D11244E0F5F1F5D834C83A7
S1131B901A8EFB83EA830197829FA001839F500DD5
S1131BA0929F500D1124CF01840F951F9F838E8324
S1131BB08FEF8D8F8E8F61110CC08885882389F0FB
S1131BC0CE0108960E94E413882359F00E94270C42
S1131BD008C0CE0108960E94530BCE0141960E9484
S1131BE0530B0F900FBE81E0DF91CF9108950F93B7
S1131BF01F93CF93DF93082F162F869FC0011124C4
S1131C004F960E94FE0AEC01009771F0111103C077
S1131C109983888303C04F96998388830B8F1C8F85
S1131C2061E0CE010E94B10DCE01DF91CF911F91F1
S1131C300F9108959F92AF92BF92CF92DF92EF924D
S1131C40FF920F931F93CF93DF9300D000D01F9286
S1131C50CDB7DEB78C016B015D834C83A22EB12C12
S1131C60992493947C0188E0E80EF11C0FB6F89453
S1131C700F92F801928D838D981718F0F2E0AF124D
S1131C8019C04A2DB601C8010E94EB0CF8019189D4
S1131C90992349F0C80141960E94E413882331F046
S1131CA00E94270C03C081110E94270C0F900FBEC5
S1131CB081E050C08C819D81892B21F40F900FBE4F
S1131CC080E048C0B11005C0CE0101960E942C14DA
S1131CD0B92C0F900FBE0E94A8110FB6F8940F9262
S1131CE0F801858D8F3F09F4158EF801868D8F3F9D
S1131CF009F4168E0F900FBEBE016C5F7F4FCE01AC
S1131D0001960E94371481111FC00FB6F8940F92E8
S1131D10F801928D838D0F900FBE98130FC06C81C4
S1131D207D81C7010E94B913C8010E94640D0E94FD
S1131D30771281119BCF0E94270C98CFC8010E9473
S1131D40640D0E94771292CFC8010E94640D0E9414
S1131D50771280E00F900F900F900F900F90DF910B
S1131D60CF911F910F91FF90EF90DF90CF90BF9094
S1131D70AF909F900895EF92FF920F931F93CF938C
S1131D80DF938A01FC01528D338D531710F02230FA
S1131D9001F5422F7801EC011E8D8A8DCE010E943F
S1131DA0EB0C1F3F81F489898823A9F0CE01419669
S1131DB00E94E413882389F0E114F10481F081E0A6
S1131DC0F70180830DC0FF24F394F10EFE8E81E0B1
S1131DD007C080E005C081E003C081E001C081E06C
S1131DE0DF91CF911F910F91FF90EF9008959F92F3
S1131DF0AF92BF92CF92DF92EF92FF920F931F9315
S1131E00CF93DF9300D000D01F92CDB7DEB78C0103
S1131E105B015D834C83E12C992493946C0181E1F3
S1131E20C80ED11C0FB6F8940F92F801F28CFF2063
S1131E30A9F0B501C8010E944A0DFA94F801F28E86
S1131E408085882339F0C80108960E94E413811123
S1131E500E94270C0F900FBE81E051C08C819D81A0
S1131E60892B21F40F900FBE80E049C0E11005C01A
S1131E70CE0101960E942C14E92C0F900FBE0E94F3
S1131E80A8110FB6F8940F92F801858D8F3F09F4CD
S1131E90158EF801868D8F3F09F4168E0F900FBEB4
S1131EA0BE016C5F7F4FCE0101960E9437148111F1
S1131EB01AC0C8010E94E00C882379F06C817D81EE
S1131EC0C6010E94B913C8010E94640D0E947712D2
S1131ED08111A8CF0E94270CA5CFC8010E94640DD0
S1131EE00E9477129FCFC8010E94640D0E9477124E
S1131EF0C8010E94E00C882309F494CF80E00F907D
S1131F000F900F900F900F90DF91CF911F910F9131
S1131F10FF90EF90DF90CF90BF90AF909F90089587
S1131F20CF93DF93EC010FB6F8940F928D8D8F3F12
S1131F3009F41D8E8E8D8F3F09F41E8E0F900FBEF7
S1131F408A8D811104C0CE0141960E94CB13CE012B
S1131F500E94640DDF91CF910895E091C901F09141
S1131F60CA018081811107C08FEF9FEF9093A00178
S1131F7080939F010895E091C901F091CA01058001
S1131F80F681E02D0680F781E02D82819381909384
S1131F90A00180939F010895FF920F931F93CF9305
S1131FA0DF93EC01F62E0091A8011091A901809114
S1131FB001029091020202960E94B70BCF3F8FEF6D
S1131FC0D80769F4FF2059F0609101027091020270
S1131FD06E5F7F4F8BEA91E00E94650B2FC0C00FAC
S1131FE0D11FE0910102F0910202D383C283C01792
S1131FF0D10768F460910102709102028091C701D7
S11320009091C8016E5F7F4F0E94860B17C060914C
S11320100102709102028091C9019091CA016E5F20
S11320207F4F0E94860B80919F019091A001C81759
S1132030D90720F4D093A001C0939F01DF91CF91E1
S11320401F910F91FF90089505EB11E00F2EFDED08
S1132050EF2EF1E0FF2EF02D8091B401882329F1B9
S11320600FB6F8940F92D8011596ED91FC9116973E
S1132070C681D781CE0102960E94B70B8091AA0136
S113208081508093AA018091B40181508093B4015E
S11320900F900FBE8F89988D0E94110BCE010E9464
S11320A0110B8091B4018111DBCFF7018081823063
S11320B010F00E94270C0E94200BCECF4F925F920B
S11320C06F927F928F929F92AF92BF92CF92DF9244
S11320D0EF92FF920F93CF93DF934C016B015A0160
S11320E02901CA010E94FE0A3C01892B09F4F1C0AE
S11320F088E290E00E94FE0AEC01892B99F0788E28
S11321006F8AA50165EA70E0C3010E94122181E093
S1132110A81AB1088F89988DA80EB91EC114D104CC
S113212029F420C0C3010E94110BD3C0D6018C91A5
S1132130898F8C918823A1F0AE01465E5F4FF60132
S11321403196B8E0CB0ED11CCF012191DA012D9349
S1132150AD01DC018C91882319F0EC15FD05A1F784
S113216018A201C0198E043008F003E00E8B09A3F5
S11321701AA26E01B2E0CB0ED11CC6010E94610B03
S1132180CE010C960E94610BD987C88784E090E049
S1132190801B91099D878C87DB8BCA8B1BA21CA299
S11321A01DA21EA21FA2A201B401C5010E94DE0B42
S11321B099838883E114F10419F0F701D183C08372
S11321C00FB6F8940F928091AA018F5F8093AA01B1
S11321D08091010290910202892BD1F5D0930202E1
S11321E0C09301028091AA01813009F041C08DEDB4
S11321F091E00E94530B86EE91E00E94530B8FEE08
S113220091E00E94530B88EF91E00E94530B84ED00
S113221091E00E94530B8BEC91E00E94530B8EEBE8
S113222091E00E94530B85EB91E00E94530B8BEAE3
S113223091E00E94530B84ED91E09093CA01809346
S1132240C9018BEC91E09093C8018093C70110C041
S11322508091A60181110CC0E0910102F09102026B
S113226096898E89891720F0D0930202C0930102C7
S11322708091A1018F5F8093A1018E899091A70124
S1132280981710F48093A70190E09C01220F331F4C
S1132290220F331F220F331F820F931FB601835265
S11322A09E4F0E94650B0F900FBE8091A60188235C
S11322B061F0E0910102F091020296898E899817EB
S11322C030F40E94270C81E005C081E003C081E066
S11322D001C08FEFDF91CF910F91FF90EF90DF90CE
S11322E0CF90BF90AF909F908F907F906F905F90B2
S11322F04F900895EF92FF920F930F2EFDE9EF2E6A
S1132300F1E0FF2EF02D00E020E030E045E550E064
S11323106EE471E084E290E10E945E108130A1F4E9
S11323200E941715813081F4F8948FEF9FEF9093FA
S1132330A00180939F0181E08093A6011092A901DE
S11323401092A8010E94EF0B0F91FF90EF90089557
S113235080919C018F5F80939C0108950FB6F8943F
S11323600F928091A8019091A9010F900FBE08953A
S1132370CF92DF92EF92FF920F931F93CF93DF934D
S113238080919C0181119FC0E090A801F090A90167
S11323908FEFE81AF80AF092A901E092A801E1147B
S11323A0F104B9F48091C9019091CA012091C70147
S11323B03091C8013093CA012093C9019093C80198
S11323C08093C7018091A2018F5F8093A2010E9434
S11323D0AD0F80919F019091A001E816F90610F4C9
S11323E0D12C53C0D12CCC24C394E091C901F091D9
S11323F0CA018081811107C08FEF9FEF9093A001E4
S113240080939F0142C0E091C901F091CA01058007
S1132410F681E02DC681D7818A819B81E816F90671
S113242028F49093A00180939F012FC08E010E5F2A
S11324301F4FC8010E94B70B8C899D89892B21F0FD
S1132440CE010C960E94B70B8E899091A701981724
S113245010F48093A70190E09C01220F331F220FF8
S1132460331F220F331F820F931FB80183529E4FD5
S11324700E94650BE0910102F09102029E89868917
S1132480981708F4B2CFDC2CB0CFE0910102F091A0
S11324900202868990E0FC01EE0FFF1FEE0FFF1F82
S11324A0EE0FFF1F8E0F9F1FFC01E352FE4F808132
S11324B0823010F0DD24D3948091A301882369F045
S11324C0DD24D3940AC08091A4019091A5010196C2
S11324D09093A5018093A401D12C8D2DDF91CF91F0
S11324E01F910F91FF90EF90DF90CF900895DF92AE
S11324F0EF92FF920F931F93CF93DF930FB6F8944D
S11325000F9280919C01815080939C0180919C0149
S1132510811163C08091AA01811133C061C0D701C8
S11325201596ED91FC911697C681D781CE010C9634
S11325300E94B70B8E010E5F1F4FC8010E94B70B9C
S11325408E899091A701981710F48093A70190E0C9
S11325509C01220F331F220F331F220F331F820FC0
S1132560931FB80183529E4F0E94650BE0910102B4
S1132570F09102029E898689981768F0D092A3018F
S11325800AC0C0E0D0E00F2EFEEBEF2EF1E0FF2EEC
S1132590F02DDD24D394F70180818111C0CFCD2BA0
S11325A011F00E94AD0FC091A401D091A501209714
S11325B061F011E00E94B81181111093A3012197D9
S11325C0C9F71092A5011092A4018091A301882358
S11325D031F00E94270C81E003C080E001C080E05C
S11325E00F900FBEDF91CF911F910F91FF90EF904D
S11325F0DF9008950F931F93CF93DF938C01EB012A
S11326000E94A8114091A8015091A901F8012081CC
S11326103181C9018C0F9D1F4217530748F482175B
S11326209307E8F4918380834817590768F407C037
S11326308217930780F04817590768F010C060E0CC
S1132640841B950B0E94CC0F0E94771281110BC042
S11326500E94270C08C0F80191838083F0CFF80111
S113266091838083F1CFDF91CF911F910F910895D2
S113267080919C01882321F081E08093A301089537
S11326801092A301A0910102B0910202E091010213
S1132690F09102022D913C918789908D82179307C6
S11326A060F06091010270910202809101029091A8
S11326B00202675E7F4F0E94460B2091A701822F82
S11326C090E0FC01EE0FFF1FEE0FFF1FEE0FFF1F48
S11326D0E80FF91FE352FE4F3081311111C0215030
S11326E0822F90E0FC01EE0FFF1FEE0FFF1FEE0F95
S11326F0FF1FE80FF91FE352FE4F3081332379F3B4
S1132700AC01440F551F440F551F440F551F480F6C
S1132710591FDA01A352BE4F1196ED91FC91129705
S11327200280F381E02D1296FC93EE9311974052B0
S11327305E4FE417F50729F442815381FD0152836A
S11327404183FC01EE0FFF1FEE0FFF1FEE0FFF1F73
S11327508E0F9F1FFC01E352FE4F0180F281E02D9A
S11327608681978190930202809301022093A701AE
S11327700895CF93DF93EB016091010270910202FF
S1132780645F7F4F0E94860B61E0CE010E94CC0FF4
S1132790DF91CF9108950F931F93CF938B01C42F93
S11327A06091010270910202645F7F4F0E94650B89
S11327B0CC2311F00FEF1FEF6C2FC8010E94CC0F38
S11327C0CF911F910F9108950F931F93CF93DF9390
S11327D0DC011596ED91FC911697C681D7818E0187
S11327E0045F1F4FC8010E94B70B80919C018111A7
S11327F01CC00A501109C8010E94B70B8E89909120
S1132800A701981710F48093A70190E09C01220F70
S1132810331F220F331F220F331F820F931FB80160
S113282083529E4F0E94650B05C0B8018EEB91E068
S11328300E94650BE0910102F09102029E89868953
S1132840891720F481E08093A30101C080E0DF9127
S1132850CF911F910F9108952091A201FC01208333
S11328602091A8013091A901328321830895CF9347
S1132870DF930FB6F8940F922091A8013091A9012B
S1132880DB014D915C914F3FBFEF5B07F1F0EC0131
S1132890E981FA81A091A201B881BA1719F02E1723
S11328A03F07A8F42E1B3F0B2417350748F4FB0100
S11328B0421B530B518340830E942C1480E008C0B8
S11328C0FB011182108281E003C080E001C081E03D
S11328D00F900FBEDF91CF91089581E08093A30103
S11328E008958091A601882331F080919C0188236A
S11328F021F080E0089581E0089582E008950F9327
S11329001F93CF93DF93FC01892B79F182A181502E
S113291082A3268991A1291751F181112AC0EF01BF
S11329208F010E5F1F4FC8010E94B70B89A18E8BC8
S113293024E030E0281B31093D872C879091A701C2
S1132940981710F48093A70190E09C01220F331F85
S1132950220F331F220F331F820F931FB80183529C
S11329609E4F0E94650B81E005C080E003C080E0BB
S113297001C080E0DF91CF911F910F910895FC0178
S113298073836283918780874617570790F0421BB1
S1132990530B8485958548175907E0F4BF016E5F92
S11329A07F4F8091090290910A020E94860B80E079
S11329B008954217530718F46217730768F4BF01A8
S11329C06E5F7F4F80910B0290910C020E94860BE8
S11329D080E0089581E0089581E008950FB6F894A9
S11329E00F928091070290910802892BE9F486E105
S11329F092E00E94530B8DE092E00E94530B86E11B
S1132A0092E090930C0280930B028DE092E09093FD
S1132A100A028093090240E065E08AE00E94F70D13
S1132A2090930802809307020F900FBE0895EF92CF
S1132A30FF920F930E94EE14809107029091080276
S1132A40892B91F00F2EF5E0EF2EF2E0FF2EF02D02
S1132A5003E020E030E045E550E063E571E081EF1C
S1132A6095E10E945E1001C080E00F91FF90EF900D
S1132A7008950F931F93CF93DF9300D000D01F923C
S1132A80CDB7DEB7E0910702F0910802309771F1FB
S1132A90D90169835B834A839D838C836630ECF41C
S1132AA00E947114823061F420E0A801BE016F5FBE
S1132AB07F4F80910702909108020E941A0E17C05E
S1132AC020E040E050E0BE016F5F7F4F809107023D
S1132AD0909108020E941A0E0AC020E0AD01BE01C6
S1132AE06F5F7F4FCF010E94BB0E01C080E00F904B
S1132AF00F900F900F900F90DF91CF911F910F9136
S1132B000895AF92BF92CF92DF92EF92FF920F930C
S1132B101F93CF93DF936C010E94AE117C018091CF
S1132B20030290910402E816F90608F048C030C088
S1132B300580F681E02DA080B180C681D7818E0109
S1132B400E5F1F4FC8010E94B70BE889F989CE01B7
S1132B5009958A8982FF1CC08C859D858A0D9B1DE1
S1132B60A816B90660F49B838A83D987C887B801FD
S1132B7080910B0290910C020E94860B09C000E028
S1132B8010E020E030E0A50160E0CE010E9439159C
S1132B90E0910B02F0910C0280818111C9CF8091E8
S1132BA0090290910A0290930C0280930B02F09315
S1132BB00A02E093090281E0F601808302C0F60173
S1132BC01082F0920402E0920302C701DF91CF91D8
S1132BD01F910F91FF90EF90DF90CF90BF90AF9037
S1132BE00895CF93DF9300D000D000D0CDB7DEB7E7
S1132BF0CE0101964C0144244394E12CF12C512C38
S1132C00C82ED92CE0910B02F0910C02808188230C
S1132C1009F4DCC00580F681E02DA080B1800E941B
S1132C20A811C4010E9481158C01898181114BC0B6
S1132C300A151B05B8F10E947712E0910B02F0917E
S1132C400C020580F681E02D66807780C301029630
S1132C500E94B70BD30152968C91529782FF17C0F2
S1132C601C966D917C911D976A0D7B1D9501A801A1
S1132C70C3010E94BF14882369F00E2D1F2D2E2D31
S1132C803F2DA501652DC3010E94391503C08E7F18
S1132C90F301828BD3015096ED91FC915197C301BE
S1132CA0099587C0452DB501601B710B8091070202
S1132CB0909108020E94900F0E947712811179C0AE
S1132CC00E94270C76C00E94771273C089818823E2
S1132CD00CF46FC0AC80BD80F50182859385892B8F
S1132CE021F0C50102960E94B70BCE0106960E9400
S1132CF08115E9810E2E000CFF0BEA30F10508F076
S1132D0058C0EC5CFF4F0C94C81ED50152962C9110
S1132D105297216052962C9352972A813B811C969C
S1132D206D917C911D97620F731FAC01C5010E94C8
S1132D30BF148823F1F1D5015096ED91FC91519780
S1132D40C5010995F501828982FF33C04A815B81FF
S1132D5084859585480F591F0E2D1F2D2E2D3F2D2F
S1132D60652DC5010E94391524C0D50152968C9158
S1132D7052978E7F52968C931CC0F5012289216054
S1132D80228B6A817B8175876487680F791F9C0118
S1132D90AC01C5010E94BF140CC0D50152968C91A0
S1132DA081FD04C0C5010E94110B03C08E7FF50193
S1132DB0828B4E2D5F2D6C2D7D2D8091070290917D
S1132DC008020E94F70E811181CF1CCF0E94A81126
S1132DD0C4010E9481158C018981811174CFE09115
S1132DE00902F0910A028081442D8111452DAE2CF7
S1132DF0BF2C59CF1092B90088E48093B80008958D
S1132E0094EA9093BC00ECEBF0E090819923ECF70A
S1132E109091B900987F903199F48093BB0084E835
S1132E208093BC00ECEBF0E080818823ECF7809188
S1132E30B900887F803431F0803231F083E0089526
S1132E4080E0089581E0089582E0089584E9809304
S1132E50BC00ECEBF0E0808184FDFDCF0895BF92CF
S1132E60CF92DF92EF92FF920F931F93CF93DF9352
S1132E70B82ECCEBD0E00F2EF4EADF2EF02D09EBC8
S1132E8010E00F2EFBEBEF2EF12CF02D0F2EF4E8BB
S1132E90CF2EF02DD88288818823ECF7F801808129
S1132EA0887F8830B9F7F701B082C8828881882387
S1132EB0ECF7F8018081887F883119F00E94261789
S1132EC0E9CFDF91CF911F910F91FF90EF90DF90A9
S1132ED0CF90BF9008958093BB0084E88093BC009A
S1132EE0ECEBF0E080818823ECF78091B900887FD7
S1132EF0883221F0803321F082E0089580E0089543
S1132F0081E0089584EC8093BC00ECEBF0E08081D8
S1132F108823ECF78091BB00089584E88093BC007B
S1132F20ECEBF0E080818823ECF78091BB000895FE
S1132F309093C5008093C40088E18093C100E2ECC3
S1132F40F0E080818860808386E080830895E0ECEF
S1132F50F0E0908195FFFDCF8093C6000895CF9354
S1132F60DF93EC018881882331F021960E94A71712
S1132F7089918111FBCFDF91CF9108955058BB27E0
S1132F80AA270E94D6170C94381A0E942A1A38F0DD
S1132F900E94311A20F039F49F3F19F426F40C945E
S1132FA0EC190EF4E095E7FB0C94E619E92F0E9466
S1132FB0491A58F3BA17620773078407950720F074
S1132FC079F4A6F50C946B1A0EF4E0950B2EBA2F37
S1132FD0A02D0B01B90190010C01CA01A00111241B
S1132FE0FF27591B99F0593F50F4503E68F11A16C7
S1132FF0F040A22F232F342F4427585FF3CF469558
S113300037952795A795F0405395C9F77EF41F1679
S1133010BA0B620B730B840BBAF09150A1F0FF0F43
S1133020BB1F661F771F881FC2F70EC0BA0F621F2F
S1133030731F841F48F4879577956795B795F7951F
S11330409E3F08F0B0CF9395880F08F09927EE0FB4
S11330509795879508959F939F77EEE389379E0709
S113306028F4ECE7F0E00E94161A0CC00E94A219A2
S11330709058A2EA2AED3FE049EC5FE30E94D6179C
S11330800E94381A0F9007FC905808950E942A1A3B
S113309060F080E891E009F49EEF0E94311A28F074
S11330A040E851E071F45EEF0CC00C94EC190C9400
S11330B06B1AE92FE0780E94491A40F3092E052A79
S11330C0B1F3261737074807590738F00E2E07F8CB
S11330D0E02569F0E025E0640AC0EF6307F8009496
S11330E007FADB01B9019D01DC01CA01AD01EF93CF
S11330F00E94D4180E94381A0E9489185F9155239F
S113310039F02BED3FE049E450FD49EC0C94BF1736
S11331100895DF93DD27B92FBF7740E85FE31616E4
S1133120170648075B0718F4D92F0E94771A9F9354
S11331308F937F936F930E94321BE0E9F0E00E942B
S1133140EF190E94381A2F913F914F915F910E947D
S1133150921ADD2351F09058A2EA2AED3FE049EC9F
S11331605FE3D0785D270E94D617DF910C94381A5C
S11331700E94C21908F481E008950E94D1180C94A9
S1133180381A0E94311A58F00E942A1A40F029F481
S11331905F3F29F00C94E61951110C946C1A0C94AD
S11331A0EC190E94491A68F39923B1F3552391F35A
S11331B0951B550BBB27AA2762177307840738F0A2
S11331C09F5F5F4F220F331F441FAA1FA9F335D0FF
S11331D00E2E3AF0E0E832D091505040E695001CB3
S11331E0CAF72BD0FE2F29D0660F771F881FBB1F6D
S11331F0261737074807AB07B0E809F0BB0B802D4B
S1133200BF01FF2793585F4F3AF09E3F510578F076
S11332100C94E6190C946C1A5F3FE4F3983ED4F3D3
S1133220869577956795B795F7959F5FC9F7880F4A
S1133230911D9695879597F90895E1E0660F771F9C
S1133240881FBB1F621773078407BA0720F0621B2D
S1133250730B840BBA0BEE1F88F7E09508950E9458
S113326036196894B1110C946C1A08950E94511A7D
S113327088F09F5798F0B92F9927B751B0F0E1F033
S1133280660F771F881F991F1AF0BA95C9F714C0E3
S1133290B13091F00E946B1AB1E008950C946B1A4E
S11332A0672F782F8827B85F39F0B93FCCF386951C
S11332B077956795B395D9F73EF490958095709579
S11332C061957F4F8F4F9F4F0895E89409C097FBF6
S11332D03EF490958095709561957F4F8F4F9F4FE9
S11332E09923A9F0F92F96E9BB279395F69587952D
S11332F077956795B795F111F8CFFAF4BB0F11F4F0
S113330060FF1BC06F5F7F4F8F4F9F4F16C0882396
S113331011F096E911C0772321F09EE8872F762FCC
S113332005C0662371F096E8862F70E060E02AF00D
S11333309A95660F771F881FDAF7880F96958795F9
S113334097F90895DF93CF931F930F938B01EC01AB
S1133350EDEBF0E00E94EF190E94381A9801AE01DB
S11333608B01EC0160E070E080E89FE30E94BE17EF
S11333700E94F21A9801AE010F911F91CF91DF9133
S11333800C94921A990F0008550FAA0BE0E8FEEF6F
S113339016161706E807F907C0F012161306E40715
S11333A0F50798F0621B730B840B950B39F40A260E
S11333B061F0232B242B252B21F408950A2609F4EC
S11333C0A140A6958FEF811D811D089597F99F67F0
S11333D080E870E060E008959FEF80EC0895DF934B
S11333E0CF931F930F93FF92EF92DF927B018C0197
S11333F0689406C0DA2EEF010E94921AFE01E89446
S1133400A5912591359145915591A6F3EF010E941F
S1133410D617FE019701A801DA9469F7DF90EF90BF
S1133420FF900F911F91CF91DF9108959F938F93F8
S11334307F936F93FF93EF939B01AC010E947F1ADC
S1133440EF91FF910E94EF192F913F914F915F915E
S11334500C947F1A00240A941616170618060906F7
S1133460089500240A9412161306140605060895F6
S1133470092E0394000C11F4882352F0BB0F40F47E
S1133480BF2B11F460FF04C06F5F7F4F8F4F9F4FBE
S1133490089557FD9058440F551F59F05F3F71F040
S11334A04795880F97FB991F61F09F3F79F08795A7
S11334B00895121613061406551FF2CF4695F1DF30
S11334C008C0161617061806991FF1CF86957105C0
S11334D0610508940895E894BB2766277727CB01F4
S11334E097F908950E94C21908F48FEF08959B017B
S11334F0AC0160E070E080E89FE30C94BD180E948A
S1133500921A0C94381A0E942A1A38F00E94311A1E
S113351020F0952311F00C94E6190C94EC19112465
S11335200C946C1A0E94491A70F3959FC1F3950F7D
S113353050E0551F629FF001729FBB27F00DB11D33
S1133540639FAA27F00DB11DAA1F649F6627B00DC3
S1133550A11D661F829F2227B00DA11D621F739FAC
S1133560B00DA11D621F839FA00D611D221F749FBA
S11335703327A00D611D231F849F600D211D822F01
S1133580762F6A2F11249F5750409AF0F1F0882328
S11335904AF0EE0FFF1FBB1F661F771F881F915055
S11335A05040A9F79E3F510580F00C94E6190C9405
S11335B06C1A5F3FE4F3983ED4F38695779567954C
S11335C0B795F795E7959F5FC1F7FE2B880F911D7F
S11335D09695879597F9089519F416F40C94EC19B7
S11335E00C94361B0E94511AB8F39923C9F3B6F30D
S11335F09F57550B87FF0E94441B0024A0E640EA16
S1133600900180585695979528F4805C660F771F33
S1133610881F20F026173707480730F4621B730B06
S1133620840B202931294A2BA69517940794202529
S113363031254A2758F7660F771F881F20F0261771
S11336403707480730F4620B730B840B200D311DD0
S1133650411DA09581F7B901842F9158880F969543
S1133660879508959B01AC010C947F1A9F3F31F01C
S1133670915020F4879577956795B795880F911D9C
S11336809695879597F9089591505040660F771F46
S1133690881FD2F70895A0E1B0E0E1E5FBE10C94C6
S11336A0CE1E7C011B016A01FC01178216828381F4
S11336B081FF44C39E012F5F3F4F3901F70193817E
S11336C0F10193FD859193FF81911F01882309F4F2
S11336D031C3853239F493FD859193FF81911F01A4
S11336E0853239F4B70190E00E9424215601650126
S11336F0E5CF10E0512C912CFFE1F915D8F08B3275
S113370079F038F4803279F08332A1F4F92DF06144
S11337102EC08D3261F0803369F4292D21602DC0D3
S1133720392D3260932E892D8460982E2AC0E92D7C
S1133730E86015C097FC2DC020ED280F2A3088F4CE
S113374096FE06C03AE0139F200D1124122F19C0D3
S11337508AE0589E200D1124522EE92DE0629E2EFF
S113376010C08E3231F496FCE5C2F92DF0649F2E20
S113377008C08C3621F4292D2068922E02C0883688
S113378041F4F10193FD859193FF81911F01811112
S1133790B3CF9BEB980F933020F4992D9061805E0A
S11337A007C09BE9980F933008F066C1992D9F7E5E
S11337B096FF16E09F73992E853619F49064992E1E
S11337C008C0863621F4392F3068932E02C01111B7
S11337D0115097FE07C01C3350F444244394410E07
S11337E027E00BC0183038F027E017E005C027E0C9
S11337F09CE3492E02C0212F412C560184E0A80EDF
S1133800B11CF6016081718182819381042DA30131
S11338100E9426206C01F981FC87F0FF02C0F3FFAF
S113382006C091FC06C092FE06C000E205C00DE28F
S113383003C00BE201C000E08C858C7019F001110B
S11338405AC29BC297FE10C04C0CFC85F4FF04C006
S11338508A81813309F44A94141474F528E02415F8
S113386078F588E0482E2CC096FC2AC0812F90E081
S11338708C159D059CF03CEFC3163FEFD30674F006
S1133880892D8068982E0AC0E2E0F0E0EC0FFD1F5D
S1133890E10FF11D8081803319F411501111F4CF1F
S11338A097FE0EC044244394410E812F90E0C81625
S11338B0D9062CF41C1904C04424439401C010E01C
S11338C097FE06C01C141D0434F4C601019605C0FD
S11338D085E090E002C081E090E00111019611239F
S11338E031F0212F30E02F5F3F4F820F931F252DA2
S11338F030E08217930714F4581A01C0512C892D13
S1133900897049F4552039F0B70180E290E00E94B3
S113391024215A94F7CF002329F0B701802F90E097
S11339200E94242193FC09C0552039F0B70180E39B
S113393090E00E9424215A94F7CF97FE4CC0460190
S1133940D7FE02C0812C912CC60188199909F30174
S1133950E80FF91FFE87ED87960124193109388B8A
S11339602F87012F10E01195019511093FEF831660
S1133970930629F4B7018EE290E00E942421C81432
S1133980D9044CF08F8598898815990524F4ED8520
S1133990FE85818101C080E3F1E08F1A91082D85B5
S11339A03E852F5F3F4F3E872D87801691062CF072
S11339B0B70190E00E942421D9CFC814D90441F45E
S11339C09A81963320F4953319F43C8534FF81E3CE
S11339D0B70190E04EC08A81813319F09C859F7EA7
S11339E09C87B70190E00E942421111105C094FC2A
S11339F018C085E690E017C0B7018EE290E00E94FF
S1133A0024211E5F82E001E0080FF301E80FF11D9D
S1133A108081B70190E00E942421802F0113F3CF0D
S1133A20E6CF85E490E0B7010E942421D7FC06C0CC
S1133A30C114D10441F4EC85E4FF05C0D194C194D0
S1133A40D1088DE201C08BE2B70190E00E942421ED
S1133A5080E32AE0C216D1042CF08F5FFAE0CF1A7B
S1133A60D108F7CFB70190E00E942421B701C60125
S1133A70C0960E94242154C1833631F0833779F0F3
S1133A80833509F056C020C0560132E0A30EB11CA4
S1133A90F6018081898301E010E0630112C05601C0
S1133AA0F2E0AF0EB11CF601C080D18096FE03C0D7
S1133AB0612F70E002C06FEF7FEFC6010E941921F1
S1133AC08C01F92DFF7714C0560122E0A20EB11C1F
S1133AD0F601C080D18096FE03C0612F70E002C061
S1133AE06FEF7FEFC6010E94FE208C01F92DF06874
S1133AF09F2EF3FD1AC0852D90E008171907A8F42E
S1133B00B70180E290E00E9424215A94F4CFF60198
S1133B1097FC859197FE81916F01B70190E00E9417
S1133B20242151105A94015011090115110579F7F6
S1133B30F7C0843611F0893661F5560197FE09C045
S1133B4024E0A20EB11CF60160817181828193810F
S1133B500AC0F2E0AF0EB11CF60160817181072E3C
S1133B60000C880B990BF92DFF769F2E97FF09C047
S1133B7090958095709561957F4F8F4F9F4FF0681A
S1133B809F2E2AE030E0A3010E948221C82EC6188D
S1133B903FC0092D853721F40F7E2AE030E01DC097
S1133BA0097F8F3691F018F4883559F0C3C08037F7
S1133BB019F0883711F0BEC0006104FF09C0046029
S1133BC007C094FE08C0066006C028E030E005C0C7
S1133BD020E130E002C020E132E0560107FF09C0D5
S1133BE084E0A80EB11CF601608171818281938109
S1133BF008C0F2E0AF0EB11CF6016081718180E073
S1133C0090E0A3010E948221C82EC6180F77902E3F
S1133C1096FE0BC0092D0E7FC11650F494FE0AC007
S1133C2092FC08C0092D0E7E05C0DC2C092D03C0B2
S1133C30DC2C01C0D12E04FF0DC0FE01EC0DF11DE2
S1133C408081803311F4097E09C002FF06C0D39439
S1133C50D39404C0802F867809F0D39403FD11C057
S1133C6000FF06C01C2DD51480F4150D1D190DC0C0
S1133C70D51458F4B70180E290E00E942421D39433
S1133C80F7CFD51410F45D1801C0512C04FF10C0F7
S1133C90B70180E390E00E94242102FF17C001FDD8
S1133CA003C088E790E002C088E590E0B7010CC04B
S1133CB0802F867859F001FF02C08BE201C080E2B8
S1133CC007FD8DE2B70190E00E942421C11638F46B
S1133CD0B70180E390E00E9424211150F7CFCA94E9
S1133CE0F301EC0DF11D8081B70190E00E942421C5
S1133CF0C110F5CF15C0F4E0F51560F584E0581A4D
S1133D0093FE1FC0011127C02C8523FF2AC006EE95
S1133D1010E0392D3071932EF8018491811124C063
S1133D20552009F4E4CCB70180E290E00E942421FC
S1133D305A94F6CFF7018681978126C08FEF9FEFC3
S1133D4023C0B70180E290E00E9424215A945110CC
S1133D50F8CFD8CF512CB701802F90E00E942421B6
S1133D60D3CF0AEE10E0D5CF91108052B70190E086
S1133D700E9424210F5F1F4FCFCF23E0251510F49D
S1133D8083E0BDCF512CC0CF6096E2E10C94EA1ED3
S1133D90EE0FFF1F0590F491E02D09942F923F92AE
S1133DA04F925F926F927F928F929F92AF92BF9247
S1133DB0CF92DF92EF92FF920F931F93CF93DF93F3
S1133DC0CDB7DEB7CA1BDB0B0FB6F894DEBF0FBE50
S1133DD0CDBF09942A88398848885F846E847D849D
S1133DE08C849B84AA84B984C884DF80EE80FD809F
S1133DF00C811B81AA81B981CE0FD11D0FB6F89415
S1133E00DEBF0FBECDBFED0108950F931F93CF9377
S1133E10DF938230910510F482E090E0E091570244
S1133E20F091580220E030E0A0E0B0E0309719F1C2
S1133E30408151810281138148175907C8F08417C2
S1133E40950769F4109731F012960C931297139614
S1133E501C9327C0009357021093580222C02115C7
S1133E60310519F04217530718F49A01BD01EF0107
S1133E70DF01F801DBCF21153105F9F0281B390BDF
S1133E802430310580F48A819B816115710521F00C
S1133E90FB019383828304C090935802809357025A
S1133EA0FE01329644C0FE01E20FF31F8193919309
S1133EB022503109398328833AC020915502309128
S1133EC05602232B41F420910201309103013093D7
S1133ED056022093550220910001309101012115D1
S1133EE0310541F42DB73EB74091040150910501CD
S1133EF0241B350BE0915502F0915602E217F307AB
S1133F00A0F42E1B3F0B2817390778F0AC014E5F45
S1133F105F4F2417350748F04E0F5F1F509356022A
S1133F20409355028193919302C0E0E0F0E0CF0109
S1133F30DF91CF911F910F910895CF93DF93009755
S1133F4009F481C0FC01329713821282A0915702B6
S1133F50B0915802109781F420813181820F931F10
S1133F6020915502309156022817390751F5F093E4
S1133F705602E093550267C0ED0120E030E0CE1711
S1133F80DF0740F44A815B819E0141155105F1F040
S1133F90EA01F5CFD383C28340815181840F951FF9
S1133FA0C817D90759F488819981840F951F0296FF
S1133FB0918380838A819B81938382832115310538
S1133FC029F4F0935802E09357023DC0E901FB83C2
S1133FD0EA8349915991C40FD51FEC17FD0761F489
S1133FE080819181840F951F0296E90199838883CA
S1133FF0828193819B838A83E0E0F0E012968D9125
S11340009C911397009719F0FD01DC01F7CF8D9176
S11340109C9111979D012E5F3F4F820F931F20911A
S11340205502309156022817390769F4309729F45C
S1134030109258021092570202C013821282B09357
S11340405602A0935502DF91CF910895283008F0CD
S113405027E03327DA01990F311D87FD916000961F
S11340606105710539F432602E5F3D9330E32A9582
S1134070E1F708959F3F30F080387105610509F03C
S11340803C5F3C5F3D93913008F08068911DDF9365
S1134090CF931F930F93FF92EF92192F987F9695CA
S11340A0E92F96959695E90FFF27E85BFE4F992730
S11340B03327EE24FF24A701E70105900894079411
S11340C028F4360FE71EF81E491F511D660F771F8F
S11340D0881F991F0694A1F70590079428F4E70E0A
S11340E0F81E491F561FC11D770F881F991F661F91
S11340F00694A1F70590079428F4F80E491F561F5B
S1134100C71FD11D880F991F661F771F0694A1F73B
S11341100590079420F4490F561FC71FD81F990F05
S1134120661F771F881F0694A9F78491109517704E
S113413041F0D695C79557954795F794E7941A9506
S1134140C1F7EEEEF0E06894159015913591659104
S1134150959105907FE27395E118F10A430B560B94
S1134160C90BD009C0F7E10CF11E431F561FC91F2C
S1134170D01D7EF4703311F48A95E6CFE894015093
S113418030F0080F0AF40027021708F4202F2395B3
S1134190022F7A3328F079E37D932A95E9F710C04A
S11341A07D932A9589F60694979567953795179583
S11341B01794E118F10A430B560BC90BD00998F078
S11341C023957E9173957A3308F070E37C932013E2
S11341D0B8F77E9170617D9330F0839571E37D93A0
S11341E070E32A95E1F71124EF90FF900F911F914E
S11341F0CF91DF91992787FD90950895FC01059053
S1134200615070400110D8F7809590958E0F9F1FD4
S11342100895FB01DC0102C001900D924150504011
S1134220D8F70895DC0101C06D9341505040E0F788
S11342300895FC016150704001900110D8F78095F9
S113424090958E0F9F1F08950F931F93CF93DF9325
S1134250FB01238121FD03C08FEF9FEF2CC022FFC0
S113426016C046815781248135814217530744F48F
S1134270A081B1819D012F5F3F4F318320838C93B7
S1134280268137812F5F3F4F3783268314C08B01EC
S1134290EC01FB010084F185E02D0995892BE1F601
S11342A0D80116968D919C911797019617969C9319
S11342B08E931697CE01DF91CF911F910F910895A0
S11342C0AEE0B0E0E6E6F1E20C94DC1E0D891E8956
S11342D086E08C831A8309838FEF9FE79E838D8307
S11342E0AE01475E5F4F6F89788DCE0101960E94C3
S11342F04B1BEF81F885E00FF11F10822E96E4E04E
S11343000C94F81EFA01AA27283051F1203181F1CA
S1134310E8946F936E7F6E5F7F4F8F4F9F4FAF4FC9
S1134320B1E03ED0B4E03CD0670F781F891F9A1FDC
S1134330A11D680F791F8A1F911DA11D6A0F711D90
S1134340811D911DA11D20D009F468943F912AE09C
S1134350269F11243019305D3193DEF6CF01089584
S1134360462F4770405D4193B3E00FD0C9F7F6CFB5
S1134370462F4F70405D4A3318F0495D31FD40527D
S1134380419302D0A9F7EACFB4E0A6959795879513
S113439077956795BA95C9F70097610571050895F2
S11343A09B01AC010A2E069457954795379527959E
S11343B0BA95C9F7620F731F841F951FA01D089536
S10743C0F894FFCF9B
S11343C40000590220000000803F0000803F0000EC
S11343D4803F0000803F0000803F0000803F0000D9
S11343E4803F496E6974204F4B005441534B410044
S11343F45441534B42005441534B43005441534B97
S1134404440058206572726F722025660A0049447C
S10F44144C4500546D7220537663000088
S9030000FC
