:100000000C94F4000C9411010C9411010C94110146
:100010000C9411010C9411010C94F30C0C9411012B
:100020000C9411010C9411010C9411010C94110108
:100030000C9411010C9411010C9411010C941101F8
:100040000C9411010C9411010C9411010C941101E8
:100050000C9411010C9411010C9411010C941101D8
:100060000C9411010C9411019B169B169B16CB1638
:10007000D316E3169B169B16CB16D316036EDB36F0
:100080003D9A9999993DABAAAA2A3E000000803F6B
:10009000084AD73B3BCE016E84BCBFFDC12F3D6CEF
:1000A00074319ABD56833DDA3D00C77F11BED9E455
:1000B000BB4C3E916BAAAABE000000803F072C7A81
:1000C000A5BA6CC590DA3B9365FC8BBC53F810FD68
:1000D0003C5692834DBD879D3AB63DCBC9BF5BBEB2
:1000E00073DA0FC93F006E616E00696E66000040F2
:1000F0007A10F35A00A0724E18090010A5D4E80037
:1001000000E87648170000E40B54020000CA9A3B4E
:10011000000000E1F50500008096980000004042D4
:100120000F000000A0860100000010270000000062
:10013000E803000000006400000000000A00000066
:1001400000000100000000002C76D888DC674F0812
:1001500023DFC1DFAE59E1B1B796E5E3E453C63A18
:10016000E651997696E8E6C28426EB898C9B62ED8F
:10017000407C6FFCEFBC9C9F40F2BAA56FA5F49049
:10018000055A2AF75C936B6CF9676DC11BFCE0E4C0
:100190000D47FEF520E6B500D0ED902E0300943516
:1001A00077050080841E080000204E0A000000C869
:1001B0000C333333330F986E12831141EF8D2114BA
:1001C000893BE65516CFFEE6DB18D1844B381BF78A
:1001D0007C1D901DA4BBE424203284725E22810029
:1001E000C9F124ECA1E53D2711241FBECFEFD8E0D3
:1001F000DEBFCDBF11E0A0E0B1E0E6EEF3E402C067
:1002000005900D92AC37B107D9F722E0ACE7B1E029
:1002100001C01D92A937B207E1F70E9413010C94A7
:10022000F1210C94000087E690E00E94AE170E9436
:1002300010170E94C50A0E9433010E94A5010E9466
:10024000DA0188E0E2E2F1E0AFE3B2E001900D9282
:100250008A95E1F78FE392E00E94C5170E94390367
:100260000E949011FFCFF894E4E6F0E080818E7F49
:100270008083ACE7B0E08C9180648C938C918F7715
:100280008C93EAE7F0E080818460808380818260E3
:1002900080838081816080838C918E7F8C938C9110
:1002A0008D7F8C938C918B7F8C938C91877F8C939B
:1002B000808180628083ABE7B0E08C918E7F8C93ED
:1002C0008C918E7F8C938C918E7F8C93AEE7B0E077
:1002D0008C9181608C938081806880838081806430
:1002E000808378940895BC01990F880B990B0E9424
:1002F0007D192AE737EC41E350E40E94901A20E090
:1003000030E04AEF52E40E94D5170E944C197093D6
:100310008900609388000895BC01990F880B990BA0
:100320000E947D192AE737EC41E350E40E94901ABD
:1003300020E030E04AEF52E40E94D5170E944C19A9
:1003400070938B0060938A000895F89484B186605E
:1003500084B9109285001092840087E893E190930D
:10036000870080938600E0E8F0E0808180688083E9
:1003700080818F7B808380818062808380818F7E7B
:10038000808380818E7F8083808182608083E1E8AA
:10039000F0E08081886080838081806180838081BB
:1003A0008160808380818260808380818B7F808375
:1003B00078940895F894559A85B5846085BD85B57F
:1003C0008D7F85BD85B5816085BD84B5816084BD27
:1003D00084B5826084BD85B5886085BD8FEF87BD9B
:1003E00087B5869588BD84B5806284BD789408956C
:1003F000CF93DF9300D0CDB7DEB70E94C4119A83AC
:1004000089830F2EF6E18F2EF1E09F2EF02D0F2E17
:10041000FAE04F2EF1E05F2EF02D0F2EFAE22F2E94
:10042000F1E03F2EF02D0F2EFFE36F2EF2E07F2E36
:10043000F02D61E070E0CE0101960E941013D4010E
:10044000AD90BD90CD90DC901397F201E084F184E3
:1004500002851385248135814681578160817181B0
:10046000828193811B96EC911B97EF931A96EC91E6
:100470001A97EF931996EC911997EF931896EC91C0
:100480001897EF931796EC911797EF931696EC91B8
:100490001697EF931596EC911597EF931496EC91B0
:1004A000EF930E9453048DE492E00E9497070DE4BD
:1004B00012E0D80113968C9113978F9312968C911A
:1004C00012978F9311968C9111978F938C918F9394
:1004D0003F922F927F926F920E947121C3010E94DE
:1004E000C517F80187818F9386818F9385818F93BC
:1004F00084818F938AE391E09F938F937F926F9291
:100500000E947121C3010E94C5170FB6F894DEBF87
:100510000FBECDBF8ECFCF93DF9300D0CDB7DEB768
:100520000E94C4119A8389830F2EF8E7CF2ED12C15
:10053000F02D0F2EF7E2AF2EF02D0F2EFBE0BF2E89
:10054000F02D0F2EFAE4EF2EF1E0FF2EF02D0FE349
:1005500012E061E070E0CE0101960E941013F601F6
:100560006081718180E090E00E947B196093490274
:1005700070934A0280934B0290934C0228B52B3023
:1005800050F128B5283238F520E030E040EA50E458
:100590000E94901A20E030E040E85AE30E94901A4E
:1005A0002B013C0120E030E0A9010E94CE1881110E
:1005B00004C088B5815088BD17C020E030E040E815
:1005C00050E4C301B2010E94CE1881110DC088B55C
:1005D0008F5F88BD09C088B58B3010F4B8BC04C0EB
:1005E00088B5883208F0A8BC80914C028F93809126
:1005F0004B028F9380914A028F93809149028F938F
:10060000FF92EF921F930F930E947121C8010E94E5
:10061000C5170FB6F894DEBF0FBECDBF9ACFCF93EC
:10062000DF9300D0CDB7DEB70E94C4119A838983CF
:1006300061E070E0CE0101960E9410136AE071E063
:1006400086E191E00E94DC08F3CFCF93DF9300D0E6
:10065000CDB7DEB70E94C4119A83898361E070E050
:10066000CE0101960E9410138DE492E00E946E0369
:10067000F5CFEF92FF920F93E12CF12C03E020E0F5
:1006800030E040E051E067E571E088EF91E00E94E2
:10069000741002E020E030E040E051E06DE571E0F0
:1006A0008FE093E00E94741001E020E030E040E031
:1006B00051E063E671E085E293E00E94741004E08B
:1006C00020E030E040E051E069E671E08BE892E044
:1006D0000E9474100F91FF90EF9008954F925F92D7
:1006E0006F927F928F929F92AF92BF92CF92DF9242
:1006F000EF92FF92CF93DF93FC0180809180A280E4
:10070000B380C480D580E680F780C4E8D1E02FE6CE
:1007100032E143E85AE36C817D818E819F810E94A2
:10072000901A26E636E645E852E40E94D3182B01DB
:100730003C0120E030E040E05FE3C501B4010E94ED
:10074000901A9B01AC01C301B2010E94D5172B0185
:100750003C01288139814A815B81C501B4010E9435
:10076000D41720E030E0A9010E94901A26E636E670
:1007700045E852E40E94901A9B01AC01C301B2010A
:100780000E94D5170E944519CB010E947301CCE746
:10079000D1E02FE632E143E85AE36C817D818E811E
:1007A0009F810E94901A26E636E645E852E40E94B0
:1007B000D3184B015C0120E030E040E05FE3C7016B
:1007C000B6010E94901A9B01AC01C501B4010E94C0
:1007D000D5174B015C01288139814A815B81C701B2
:1007E000B6010E94D41720E030E0A9010E94901ABF
:1007F00026E636E645E852E40E94901A9B01AC01D9
:10080000C501B4010E94D5170E944519CB010E9471
:100810008C01DF91CF91FF90EF90DF90CF90BF9050
:10082000AF909F908F907F906F905F904F900895C2
:10083000CF92DF92EF92FF920F931F938B019C0157
:1008400035952795179507950F2EFFEDCF2EF9E5D6
:10085000DF2EF7E3EF2EFFE5FF2EF02DC01AD10AB1
:10086000E20AF30A20E030E040E05FE30E94901AE1
:10087000A70196010E94901AA70196010E94901A62
:100880009B01AC0160E070E080EC9FE30E94D41714
:10089000A70196010E94901A1F910F91FF90EF906F
:1008A000DF90CF9008954F925F926F927F928F92D8
:1008B0009F92AF92BF92CF92DF92EF92FF920F93EF
:1008C0001F93CF93DF93CDB7DEB7A0970FB6F89401
:1008D000DEBF0FBECDBF69877A878B879C872D8748
:1008E0003E874F87588BE98AFA8A0B8B1C8B20E056
:1008F00030E0A901C601B5010E94CE18811117C0D0
:1009000020E030E0A9016BA97CA98DA99EA90E94D5
:10091000CE1881110CC020E030E0A9016FA978AD9C
:1009200089AD9AAD0E94CE18882309F450C1A60162
:100930009501C601B5010E94901A2B013C012BA91B
:100940003CA94DA95EA9CA01B9010E94901A9B0158
:10095000AC01C301B2010E94D5172B013C012FA9A4
:1009600038AD49AD5AADCA01B9010E94901A9B0138
:10097000AC01C301B2010E94D5170E9418042B01DB
:100980003C019B01AC01C601B5010E94901A698F20
:100990007A8F8B8F9C8FA30192016BA97CA98DA963
:1009A0009EA90E94901A6D8F7E8F8F8F98A3A301AE
:1009B00092016FA978AD89AD9AAD0E94901A6D83AE
:1009C0007E838F8398878090A0019090A101A09052
:1009D000A201B090A30140909801509099016090BD
:1009E0009A0170909B01C0900601D0900701E090A1
:1009F0000801F090090180919C0190919D01A091C6
:100A00009E01B0919F0189839A83AB83BC83A3012C
:100A10009201C501B4010E94901A6D8B7E8B8F8B61
:100A2000988F29813A814B815C81C701B6010E9470
:100A3000901A9B01AC016D897E898F89988D0E94E7
:100A4000D4176D8B7E8B8F8B988FA7019601C50174
:100A5000B4010E94901A4B015C0129813A814B81BB
:100A60005C81C301B2010E94901A9B01AC01C501D7
:100A7000B4010E94D51769837A838B839C83A70175
:100A80009601C701B6010E94901A20E030E040E0D4
:100A90005FE30E94D4176B017C01A3019201C301A3
:100AA000B2010E94901A9B01AC01C701B6010E94DD
:100AB000D5176B017C011092940110929501109250
:100AC000960110929701109290011092910110924C
:100AD00092011092930110928C0110928D0110924C
:100AE0008E0110928F019B01AC016D8D7E8D8F8DDB
:100AF00098A10E94901A4B015C0129813A814B8197
:100B00005C816D817E818F8198850E94901A9B0106
:100B1000AC01C501B4010E94D4179B01AC016985E9
:100B20007A858B859C850E94D51769877A878B8704
:100B30009C872D893E894F89588D6D817E818F815B
:100B400098850E94901A4B015C01A7019601698D5E
:100B50007A8D8B8D9C8D0E94901A9B01AC01C501F2
:100B6000B4010E94D4179B01AC016D857E858F85F1
:100B700098890E94D5176D877E878F87988B2981EA
:100B80003A814B815C81698D7A8D8B8D9C8D0E9421
:100B9000901A6B017C012D893E894F89588D6D8D8E
:100BA0007E8D8F8D98A10E94901A9B01AC01C70188
:100BB000B6010E94D4179B01AC0169897A898B899F
:100BC0009C890E94D517698B7A8B8B8B9C8B2FE12C
:100BD00033EA45EF5BE369857A858B859C850E94C6
:100BE000901A69877A878B879C872FE133EA45EFD4
:100BF0005BE36D857E858F8598890E94901A6D874D
:100C00007E878F87988B2FE133EA45EF5BE3698915
:100C10007A898B899C890E94901A698B7A8B8B8B3D
:100C20009C8B8091060190910701A0910801B091E1
:100C3000090189839A83AB83BC83C090A001D090C3
:100C4000A101E090A201F090A30180919C019091FC
:100C50009D01A0919E01B0919F018D839E83AF83E2
:100C6000B887409098015090990160909A017090D7
:100C70009B01C701B601905829853A854B855C8553
:100C80000E94901A4B015C012D813E814F81588555
:100C90006D857E858F8598890E94901A9B01AC0195
:100CA000C501B4010E94D4174B015C01A30192015C
:100CB00069897A898B899C890E94901A9B01AC0171
:100CC000C501B4010E94D41729813A814B815C810E
:100CD0000E94D517698F7A8F8B8F9C8F29813A81DB
:100CE0004B815C8169857A858B859C850E94901AF1
:100CF0004B015C012D813E814F81588569897A893C
:100D00008B899C890E94901A9B01AC01C501B4019A
:100D10000E94D5174B015C01A30192016D857E8570
:100D20008F8598890E94901A9B01AC01C501B4017E
:100D30000E94D417A70196010E94D5176D8F7E8F50
:100D40008F8F98A329813A814B815C816D857E8547
:100D50008F8598890E94901A4B015C01A70196012A
:100D600069897A898B899C890E94901A9B01AC01C0
:100D7000C501B4010E94D4174B015C01A30192018B
:100D800069857A858B859C850E94901A9B01AC01B0
:100D9000C501B4010E94D5172D813E814F81588530
:100DA0000E94D5176D8B7E8B8F8B988F29813A810E
:100DB0004B815C8169897A898B899C890E94901A10
:100DC0004B015C01A70196016D857E858F85988911
:100DD0000E94901A9B01AC01C501B4010E94D51775
:100DE0006B017C012D813E814F81588569857A8513
:100DF0008B859C850E94901A9B01AC01C701B601AE
:100E00000E94D417A30192010E94D5174B015C01E7
:100E1000298D3A8D4B8D5C8DCA01B9010E94901AC3
:100E20006B017C012D8D3E8D4F8D58A1CA01B901FA
:100E30000E94901A9B01AC01C701B6010E94D51710
:100E40006B017C012D893E894F89588DCA01B901FA
:100E50000E94901A9B01AC01C701B6010E94D517F0
:100E60006B017C01A5019401C501B4010E94901A97
:100E70009B01AC01C701B6010E94D5170E9418045E
:100E80006B017C019B01AC01698D7A8D8B8D9C8DF2
:100E90000E94901A609306017093070180930801E5
:100EA00090930901A70196016D8D7E8D8F8D98A17C
:100EB0000E94901A6093A0017093A1018093A201F7
:100EC0009093A301A70196016D897E898F89988DE2
:100ED0000E94901A60939C0170939D0180939E01E3
:100EE00090939F01A7019601C501B4010E94901A39
:100EF000609398017093990180939A0190939B015C
:100F0000A0960FB6F894DEBF0FBECDBFDF91CF9194
:100F10001F910F91FF90EF90DF90CF90BF90AF9017
:100F20009F908F907F906F905F904F9008954F9219
:100F30005F926F927F928F929F92AF92BF92CF9269
:100F4000DF92EF92FF92CF93DF93CDB7DEB72E976C
:100F50000FB6F894DEBF0FBECDBF9E878D87C090C1
:100F60009C01D0909D01E0909E01F0909F018090A7
:100F7000980190909901A0909A01B0909B014090A7
:100F8000A0015090A1016090A2017090A301609116
:100F900006017091070180910801909109019B0160
:100FA000AC010E94D51769877A878B879C8720E0E0
:100FB00030E040E050ECC701B6010E94901AA70152
:100FC00096010E94901A69837A838B839C83A50182
:100FD0009401C501B4010E94D517A50194010E9496
:100FE000901A9B01AC0169817A818B819C810E945E
:100FF000D41720E030E040E85FE30E94D517698312
:101000007A838B839C83A3019201C301B2010E9466
:10101000D517A70196010E94901A6D837E838F8356
:10102000988729853A854B855C85C501B4010E9466
:10103000901A9B01AC016D817E818F8198850E9401
:10104000D51729813A814B815C810E946F1823E377
:1010500033E345E652E40E94901AED85FE856087F1
:1010600071878287938720E030E040E050ECC30135
:10107000B2010E94901A69837A838B839C839B01BF
:10108000AC01C501B4010E94901A6D837E838F83E9
:10109000988729853A854B855C85C701B6010E94F2
:1010A000901A9B01AC016D817E818F8198850E9491
:1010B000D5170E94411823E333E345E652E40E942A
:1010C000901AED85FE856483758386839783A701D7
:1010D0009601C701B6010E94D5176D837E838F8369
:1010E000988729813A814B815C81C301B2010E94BA
:1010F000901A69837A838B839C832D813E814F81F3
:101100005885C701B6010E94901A9B01AC01698104
:101110007A818B819C810E94D41720E030E040E8E6
:101120005FE30E94D5176B017C012D813E814F81C9
:101130005885C501B4010E94901A4B015C012985B4
:101140003A854B855C85C301B2010E94901A9B01D0
:10115000AC01C501B4010E94D517A70196010E94F8
:101160006F1823E333E345E652E40E94901AED85BD
:10117000FE8560837183828393832E960FB6F894E5
:10118000DEBF0FBECDBFDF91CF91FF90EF90DF901C
:10119000CF90BF90AF909F908F907F906F905F9017
:1011A0004F90089580ED0E9445178BE30E948117B0
:1011B00081ED0E94161708954F925F926F927F9271
:1011C000AF92BF92CF92DF92EF92FF920F931F9355
:1011D000CF93DF938C01EB010E94D2080E949817F5
:1011E000F82E0E9498176F2D70E0762F6627682BD7
:1011F000072E000C880B990B0E947D19F801608363
:101200007183828393830E949817F82E0E94981707
:101210006F2D70E0762F6627682B072E000C880B49
:10122000990B0E947D19F8016483758386839783E7
:101230000E949817F82E0E9498176F2D70E0762F55
:101240006627682B072E000C880B990B0E947D19CE
:10125000F80160877187828793870E949817F82E1C
:101260000E9498176F2D70E0762F6627682B072E47
:10127000000C880B990B0E947D19609359027093A2
:101280005A0280935B0290935C020E949817F82E9A
:101290000E9498176F2D70E0762F6627682B072E17
:1012A000000C880B990B0E947D19688379838A83CF
:1012B0009B830E949817F82E0E9498176F2D70E05C
:1012C000762F6627682B072E000C880B990B0E943F
:1012D0007D196C837D838E839F830E949817F82EDF
:1012E0000E94A3176F2D70E0762F6627682B072EBC
:1012F000000C880B990B0E947D19688779878A8773
:101300009B870E943C170F2EFDE5EF2EF2E0FF2E8B
:10131000F02D0F2EF9E6CF2EF2E0DF2EF02D0F2E5E
:10132000F9E6AF2EF2E0BF2EF02DF701419051907B
:10133000619071907F0120E030E040E051E4F801DD
:1013400060817181828193810E94901A2DEC3CEC26
:101350004CE151E40E94901A20E030E040E058E374
:101360000E94901AA30192010E94D417F801619380
:101370007193819391938F01F60141905190619007
:1013800071906F0120E030E04AE754E46881798190
:101390008A819B810E94901A20E030E040E058E36F
:1013A0000E94901A20E030E044E353E40E94D318F6
:1013B00023EC35EF48E450E40E94901AA301920117
:1013C0000E94D4176993799389939993EA14FB0443
:1013D00009F0ABCFDF91CF911F910F91FF90EF906C
:1013E000DF90CF90BF90AF907F906F905F904F90C5
:1013F00008952F923F924F925F926F927F928F92B9
:101400009F92AF92BF92CF92DF92EF92FF920F9393
:101410001F93CF93DF9300D000D0CDB7DEB71C0170
:1014200069837A83812C912C5C018CE0A80EB11C1D
:1014300069817A81C1010E94DC0871010F2EF0EBF5
:101440006F2EF1E07F2EF02DC980DA800F2EF4EAA6
:101450004F2EF1E05F2EF02D82017C826B82F7012E
:1014600021913191419151917F01EB81FC8160810A
:101470007181828193810E94D517EB81FC816193F8
:10148000719381939193FC83EB83F60121913191C8
:10149000419151916F01F801608171818281938145
:1014A0000E94D517F80161937193819391938F01F5
:1014B000EA14FB04A1F6FFEF8F1A9F0A84E6881650
:1014C000910409F0B5CF0DE512E0E9E6F2E0FC8306
:1014D000EB830F2EFCEBEF2EF1E0FF2EF02DF3014E
:1014E00061917191819191913F0120E030E048EC50
:1014F00052E40E94D318F801619371938193919300
:101500008F01F20161917191819191912F0120E000
:1015100030E048EC52E40E94D318EB81FC816193E7
:10152000719381939193FC83EB836E147F04B9F6DE
:1015300020E030E040E251E4609165027091660283
:1015400080916702909168020E94D41760936502AF
:101550007093660280936702909368020F900F90D9
:101560000F900F90DF91CF911F910F91FF90EF900F
:10157000DF90CF90BF90AF909F908F907F906F90B3
:101580005F904F903F902F9008958BE792E90197DD
:10159000F1F700C0000080ED0E9445178BE60E9425
:1015A000811781E00E9481170E943C1780ED0E9404
:1015B00045178AE10E94811785E00E9481170E94E9
:1015C0003C1780ED0E9445178BE10E94811788E04F
:1015D0000E9481170E943C1780ED0E9445178CE104
:1015E0000E94811780E10E9481170E943C1780EDC4
:1015F0000E94451788E30E94811781E00E948117AD
:101600000E943C1780ED0E94451789E10E948117D6
:1016100087E00E9481170E943C176AE071E086E132
:1016200091E00E94F9090895CF93DF93EC010E94A5
:10163000BE11CE010E94161FEC010E948D12209750
:1016400011F40E94520BCE01DF91CF910895CF93F8
:10165000DF93009741F0EC010E94BE11CE010E9481
:10166000AE1F0E948D12DF91CF9108958FE380937A
:101670007E0080B7877F80BF80B7806880BF83B7D8
:10168000817F83BF0FB6F8940F9283B7816083BFC9
:1016900085B7806685BF8F7D85BF0F900FBE88950B
:1016A00013BE0895259A2D9A83ED90E30197F1F7E3
:1016B00000C000001D9AF8CF259A2D9A2FE78AE1E5
:1016C00096E0215080409040E1F700C000001D9A54
:1016D000F5CFFC010396928381832FEF3FEF348394
:1016E0002383968385839087878310820895FC01E6
:1016F000118610860895CF93DF939C01FB01DC01D6
:101700001196CD91DC911297D383C2838C819D81F8
:10171000958384838C819D81DC0113967C936E93E9
:1017200012977D836C8331872087F90180818F5FD9
:101730008083DF91CF910895CF93DF93EB014881B0
:1017400059814F3F2FEF520721F4FC01A781B0854B
:101750000DC0DC01139601C0DF011296ED91FC91E2
:1017600013972081318142175307B0F71296ED91FC
:10177000FC911397FB83EA83D583C483BD83AC8339
:101780001396DC93CE93129799878887FC0120816A
:101790002F5F2083DF91CF910895CF93DF93FC01DA
:1017A000A085B185C281D381848195819D838C83FD
:1017B000C481D581828193819B838A8311968D9187
:1017C0009C911297E817F90731F48481958112965C
:1017D0009C938E931197118610868C9181508C93D7
:1017E0008C91DF91CF910895FC01608331977083D4
:1017F00031971082319720E82083319710827797B4
:1018000040833197508383970895A89590EC88E1A1
:101810000FB6F894A895809360000FBE9093600077
:10182000A0912102B0912202CD91CDBFDD91DEBF0A
:10183000FF91EF91DF91CF91BF91AF919F918F91E8
:101840007F916F915F914F913F912F911F910F91D8
:10185000FF90EF90DF90CF90BF90AF909F908F90D0
:101860007F906F905F904F903F902F901F900F90C0
:101870000FBE0F90089581E008950F920FB6F8946F
:101880000F921F9211242F923F924F925F926F926C
:101890007F928F929F92AF92BF92CF92DF92EF9200
:1018A000FF920F931F932F933F934F935F936F93E9
:1018B0007F938F939F93AF93BF93CF93DF93EF93D8
:1018C000FF93A0912102B09122020DB60D920EB6A7
:1018D0000D920E944E13A0912102B0912202CD914F
:1018E000CDBFDD91DEBFFF91EF91DF91CF91BF9131
:1018F000AF919F918F917F916F915F914F913F91A8
:101900002F911F910F91FF90EF90DF90CF90BF909C
:10191000AF909F908F907F906F905F904F903F908F
:101920002F901F900F900FBE0F9008950F920FB63B
:10193000F8940F921F9211242F923F924F925F9230
:101940006F927F928F929F92AF92BF92CF92DF92CF
:10195000EF92FF920F931F932F933F934F935F93B9
:101960006F937F938F939F93AF93BF93CF93DF93A7
:10197000EF93FF93A0912102B09122020DB60D9238
:101980000EB60D9213BE0E94CE1181110E944E130D
:10199000A0912102B0912202CD91CDBFDD91DEBF99
:1019A000FF91EF91DF91CF91BF91AF919F918F9177
:1019B0007F916F915F914F913F912F911F910F9167
:1019C000FF90EF90DF90CF90BF90AF909F908F905F
:1019D0007F906F905F904F903F902F901F900F904F
:1019E0000FBE0F9008950E94960C18950FB6F894AC
:1019F0000F92FC01928D0F900FBE81E0911180E05B
:101A000008950F931F93CF93DF93EC01042F1A8D4A
:101A10004C8D41110CC088819981892B09F042C0FD
:101A20008C819D810E9495141D821C8242C00111EF
:101A300017C050E08A819B810E941A212C8D8A81D7
:101A40009B81820F911D9B838A832C813D8182170C
:101A5000930750F1888199819B838A8380E029C014
:101A600050E08E819F810E941A218C8D90E091958B
:101A7000819591092E813F81280F391F3F832E8345
:101A8000488159812417350730F42C813D81820F1C
:101A9000931F9F838E83023049F4112349F0115024
:101AA00080E007C080E005C080E003C080E001C0A6
:101AB00080E01F5F1A8FDF91CF911F910F910895E2
:101AC000FC01448D4423A9F050E026813781240F86
:101AD000351F37832683848195812817390720F0A5
:101AE0008081918197838683CB01668177810E9473
:101AF0001A210895EF92FF920F931F93CF938C01B9
:101B00000FB6F8940F92FC01C68D1C16ACF48189B7
:101B1000811106C011C0F8018189811105C00CC076
:101B20007801F1E1EF0EF11CC7010E94FA13811157
:101B30000E948314C15079F78FEFF801868F0F90C0
:101B40000FBE0FB6F8940F92C58D1C16ACF48085AD
:101B5000811106C011C0F8018085811105C00CC03B
:101B60007801F8E0EF0EF11CC7010E94FA13811111
:101B70000E948314C15079F78FEFF801858F0F9081
:101B80000FBECF911F910F91FF90EF900895CF93CB
:101B9000DF93EC010FB6F8940F92E881F9818B8DF9
:101BA0002C8D90E030E0829FA001839F500D929F8A
:101BB000500D11244E0F5F1F5D834C831A8EFB83E3
:101BC000EA830197829FA001839F500D929F500D41
:101BD0001124CF01840F951F9F838E838FEF8D8FEC
:101BE0008E8F61110CC08885882389F0CE010896FC
:101BF0000E94FA13882359F00E943D0C08C0CE01C0
:101C000008960E94690BCE0141960E94690B0F90C5
:101C10000FBE81E0DF91CF9108950F931F93CF9373
:101C2000DF93082F162F869FC00111244F960E9424
:101C3000140BEC01009771F0111103C09983888394
:101C400003C04F96998388830B8F1C8F61E0CE0170
:101C50000E94C70DCE01DF91CF911F910F91089582
:101C60009F92AF92BF92CF92DF92EF92FF920F932B
:101C70001F93CF93DF9300D000D01F92CDB7DEB774
:101C80008C016B015D834C83A22EB12C992493941B
:101C90007C0188E0E80EF11C0FB6F8940F92F80171
:101CA000928D838D981718F0F2E0AF1219C04A2D6B
:101CB000B601C8010E94010DF8019189992349F0EC
:101CC000C80141960E94FA13882331F00E943D0C0E
:101CD00003C081110E943D0C0F900FBE81E050C0E7
:101CE0008C819D81892B21F40F900FBE80E048C02C
:101CF000B11005C0CE0101960E944214B92C0F907C
:101D00000FBE0E94BE110FB6F8940F92F801858D98
:101D10008F3F09F4158EF801868D8F3F09F4168EDA
:101D20000F900FBEBE016C5F7F4FCE0101960E94E7
:101D30004D1481111FC00FB6F8940F92F801928DC7
:101D4000838D0F900FBE98130FC06C817D81C701EA
:101D50000E94CF13C8010E947A0D0E948D1281113A
:101D60009BCF0E943D0C98CFC8010E947A0D0E9423
:101D70008D1292CFC8010E947A0D0E948D1280E0D0
:101D80000F900F900F900F900F90DF91CF911F91B8
:101D90000F91FF90EF90DF90CF90BF90AF909F900A
:101DA0000895EF92FF920F931F93CF93DF938A01D1
:101DB000FC01528D338D531710F0223001F5422F64
:101DC0007801EC011E8D8A8DCE010E94010D1F3F0E
:101DD00081F489898823A9F0CE0141960E94FA13E3
:101DE000882389F0E114F10481F081E0F701808318
:101DF0000DC0FF24F394F10EFE8E81E007C080E059
:101E000005C081E003C081E001C081E0DF91CF9196
:101E10001F910F91FF90EF9008959F92AF92BF9204
:101E2000CF92DF92EF92FF920F931F93CF93DF93A6
:101E300000D000D01F92CDB7DEB78C015B015D836F
:101E40004C83E12C992493946C0181E1C80ED11C40
:101E50000FB6F8940F92F801F28CFF20A9F0B501AB
:101E6000C8010E94600DFA94F801F28E80858823E3
:101E700039F0C80108960E94FA1381110E943D0CA6
:101E80000F900FBE81E051C08C819D81892B21F480
:101E90000F900FBE80E049C0E11005C0CE01019651
:101EA0000E944214E92C0F900FBE0E94BE110FB683
:101EB000F8940F92F801858D8F3F09F4158EF80183
:101EC000868D8F3F09F4168E0F900FBEBE016C5F9A
:101ED0007F4FCE0101960E944D1481111AC0C80196
:101EE0000E94F60C882379F06C817D81C6010E94E6
:101EF000CF13C8010E947A0D0E948D128111A8CFC4
:101F00000E943D0CA5CFC8010E947A0D0E948D123F
:101F10009FCFC8010E947A0D0E948D12C8010E94B5
:101F2000F60C882309F494CF80E00F900F900F9067
:101F30000F900F90DF91CF911F910F91FF90EF9035
:101F4000DF90CF90BF90AF909F900895CF93DF9395
:101F5000EC010FB6F8940F928D8D8F3F09F41D8E12
:101F60008E8D8F3F09F41E8E0F900FBE8A8D8111CA
:101F700004C0CE0141960E94E113CE010E947A0D69
:101F8000DF91CF910895E091E901F091EA0180811C
:101F9000811107C08FEF9FEF9093C0018093BF0125
:101FA0000895E091E901F091EA010580F681E02DC4
:101FB0000680F781E02D828193819093C001809308
:101FC000BF010895FF920F931F93CF93DF93EC010E
:101FD000F62E0091C8011091C901809121029091C3
:101FE000220202960E94CD0BCF3F8FEFD80769F4F3
:101FF000FF2059F060912102709122026E5F7F4FA5
:102000008BEC91E00E947B0B2FC0C00FD11FE091A1
:102010002102F0912202D383C283C017D10768F452
:1020200060912102709122028091E7019091E80174
:102030006E5F7F4F0E949C0B17C0609121027091D0
:1020400022028091E9019091EA016E5F7F4F0E9428
:102050009C0B8091BF019091C001C817D90720F453
:10206000D093C001C093BF01DF91CF911F910F9119
:10207000FF90089505ED11E00F2EFDEFEF2EF1E03A
:10208000FF2EF02D8091D401882329F10FB6F8940A
:102090000F92D8011596ED91FC911697C681D781C4
:1020A000CE0102960E94CD0B8091CA01815080938F
:1020B000CA018091D40181508093D4010F900FBE4A
:1020C0008F89988D0E94270BCE010E94270B80914B
:1020D000D4018111DBCFF7018081823010F00E94A2
:1020E0003D0C0E94360BCECF4F925F926F927F9243
:1020F0008F929F92AF92BF92CF92DF92EF92FF9218
:102100000F93CF93DF934C016B015A012901CA0150
:102110000E94140B3C01892B09F4F1C088E290E085
:102120000E94140BEC01892B99F0788E6F8AA5011F
:1021300065EA70E0C3010E94232181E0A81AB1087A
:102140008F89988DA80EB91EC114D10429F420C01E
:10215000C3010E94270BD3C0D6018C91898F8C912B
:102160008823A1F0AE01465E5F4FF6013196B8E0DC
:10217000CB0ED11CCF012191DA012D93AD01DC01F1
:102180008C91882319F0EC15FD05A1F718A201C068
:10219000198E043008F003E00E8B09A31AA26E0119
:1021A000B2E0CB0ED11CC6010E94770BCE010C967B
:1021B0000E94770BD987C88784E090E0801B910943
:1021C0009D878C87DB8BCA8B1BA21CA21DA21EA223
:1021D0001FA2A201B401C5010E94F40B9983888358
:1021E000E114F10419F0F701D183C0830FB6F8941C
:1021F0000F928091CA018F5F8093CA018091210262
:1022000090912202892BD1F5D0932202C093210212
:102210008091CA01813009F041C08DEF91E00E94A8
:10222000690B86E092E00E94690B8FE092E00E94C9
:10223000690B88E192E00E94690B84EF91E00E94B3
:10224000690B8BEE91E00E94690B8EED91E00E948C
:10225000690B85ED91E00E94690B8BEC91E00E9487
:10226000690B84EF91E09093EA018093E9018BEE92
:1022700091E09093E8018093E70110C08091C6013E
:1022800081110CC0E0912102F091220296898E8981
:10229000891720F0D0932202C09321028091C101BE
:1022A0008F5F8093C1018E899091C701981710F4B8
:1022B0008093C70190E09C01220F331F220F331F30
:1022C000220F331F820F931FB60183509E4F0E942F
:1022D0007B0B0F900FBE8091C601882361F0E091C7
:1022E0002102F091220296898E89981730F40E947B
:1022F0003D0C81E005C081E003C081E001C08FEFAB
:10230000DF91CF910F91FF90EF90DF90CF90BF9032
:10231000AF909F908F907F906F905F904F900895B7
:10232000EF92FF920F930F2EFDEBEF2EF1E0FF2EB9
:10233000F02D00E020E030E045E550E06FE671E090
:102340008AE390E10E9474108130A1F40E942D155F
:10235000813081F4F8948FEF9FEF9093C0018093C8
:10236000BF0181E08093C6011092C9011092C8019B
:102370000E94050C0F91FF90EF9008958091BC0191
:102380008F5F8093BC0108950FB6F8940F928091EF
:10239000C8019091C9010F900FBE0895CF92DF92AE
:1023A000EF92FF920F931F93CF93DF938091BC0125
:1023B00081119FC0E090C801F090C9018FEFE81A29
:1023C000F80AF092C901E092C801E114F104B9F4ED
:1023D0008091E9019091EA012091E7013091E801B3
:1023E0003093EA012093E9019093E8018093E7019B
:1023F0008091C2018F5F8093C2010E94C30F8091C0
:10240000BF019091C001E816F90610F4D12C53C019
:10241000D12CCC24C394E091E901F091EA018081B0
:10242000811107C08FEF9FEF9093C0018093BF0190
:1024300042C0E091E901F091EA010580F681E02DCA
:10244000C681D7818A819B81E816F90628F490938A
:10245000C0018093BF012FC08E010E5F1F4FC801C6
:102460000E94CD0B8C899D89892B21F0CE010C9681
:102470000E94CD0B8E899091C701981710F480931C
:10248000C70190E09C01220F331F220F331F220F40
:10249000331F820F931FB80183509E4F0E947B0B06
:1024A000E0912102F09122029E898689981708F412
:1024B000B2CFDC2CB0CFE0912102F09122028689CC
:1024C00090E0FC01EE0FFF1FEE0FFF1FEE0FFF1F4E
:1024D0008E0F9F1FFC01E350FE4F8081823010F071
:1024E000DD24D3948091C301882369F0DD24D39443
:1024F0000AC08091C4019091C50101969093C501D5
:102500008093C401D12C8D2DDF91CF911F910F911C
:10251000FF90EF90DF90CF900895DF92EF92FF92BF
:102520000F931F93CF93DF930FB6F8940F92809180
:10253000BC0181508093BC018091BC01811163C0BA
:102540008091CA01811133C061C0D7011596ED9108
:10255000FC911697C681D781CE010C960E94CD0BB7
:102560008E010E5F1F4FC8010E94CD0B8E89909186
:10257000C701981710F48093C70190E09C01220FC7
:10258000331F220F331F220F331F820F931FB801F7
:1025900083509E4F0E947B0BE0912102F09122021A
:1025A0009E898689981768F0D092C3010AC0C0E05E
:1025B000D0E00F2EFEEDEF2EF1E0FF2EF02DDD240A
:1025C000D394F70180818111C0CFCD2B11F00E94EF
:1025D000C30FC091C401D091C501209761F011E0F3
:1025E0000E94CE1181111093C3012197C9F7109257
:1025F000C5011092C4018091C301882331F00E946B
:102600003D0C81E003C080E001C080E00F900FBE70
:10261000DF91CF911F910F91FF90EF90DF90089580
:102620000F931F93CF93DF938C01EB010E94BE1198
:102630004091C8015091C901F80120813181C9013F
:102640008C0F9D1F4217530748F482179307E8F435
:10265000918380834817590768F407C0821793074E
:1026600080F04817590768F010C060E0841B950B94
:102670000E94E20F0E948D1281110BC00E943D0C3E
:1026800008C0F80191838083F0CFF80191838083A3
:10269000F1CFDF91CF911F910F9108958091BC01EF
:1026A000882321F081E08093C30108951092C30133
:1026B000A0912102B0912202E0912102F091220228
:1026C0002D913C918789908D8217930760F06091DE
:1026D0002102709122028091210290912202675E74
:1026E0007F4F0E945C0B2091C701822F90E0FC017C
:1026F000EE0FFF1FEE0FFF1FEE0FFF1FE80FF91F7A
:10270000E350FE4F3081311111C02150822F90E0F3
:10271000FC01EE0FFF1FEE0FFF1FEE0FFF1FE80F74
:10272000F91FE350FE4F3081332379F3AC01440F9E
:10273000551F440F551F440F551F480F591FDA01ED
:10274000A350BE4F1196ED91FC9112970280F38138
:10275000E02D1296FC93EE93119740505E4FE417D4
:10276000F50729F442815381FD0152834183FC0125
:10277000EE0FFF1FEE0FFF1FEE0FFF1F8E0F9F1FAD
:10278000FC01E350FE4F0180F281E02D86819781AC
:1027900090932202809321022093C7010895CF9342
:1027A000DF93EB016091210270912202645F7F4F01
:1027B0000E949C0B61E0CE010E94E20FDF91CF915D
:1027C00008950F931F93CF938B01C42F6091210223
:1027D00070912202645F7F4F0E947B0BCC2311F02B
:1027E0000FEF1FEF6C2FC8010E94E20FCF911F91D6
:1027F0000F9108950F931F93CF93DF93DC011596EC
:10280000ED91FC911697C681D7818E01045F1F4F11
:10281000C8010E94CD0B8091BC0181111CC00A50DF
:102820001109C8010E94CD0B8E899091C70198179C
:1028300010F48093C70190E09C01220F331F220FF8
:10284000331F220F331F820F931FB80183509E4FF7
:102850000E947B0B05C0B8018EED91E00E947B0BBE
:10286000E0912102F09122029E898689891720F445
:1028700081E08093C30101C080E0DF91CF911F917F
:102880000F9108952091C201FC0120832091C8017D
:102890003091C901328321830895CF93DF930FB61E
:1028A000F8940F922091C8013091C901DB014D913C
:1028B0005C914F3FBFEF5B07F1F0EC01E981FA81DA
:1028C000A091C201B881BA1719F02E173F07A8F4DA
:1028D0002E1B3F0B2417350748F4FB01421B530BFB
:1028E000518340830E94421480E008C0FB011182A2
:1028F000108281E003C080E001C081E00F900FBE34
:10290000DF91CF91089581E08093C3010895809174
:10291000C601882331F08091BC01882321F080E03A
:10292000089581E0089582E008950F931F93CF9357
:10293000DF93FC01892B79F182A1815082A3268942
:1029400091A1291751F181112AC0EF018F010E5F6A
:102950001F4FC8010E94CD0B89A18E8B24E030E06F
:10296000281B31093D872C879091C701981710F4D7
:102970008093C70190E09C01220F331F220F331F69
:10298000220F331F820F931FB80183509E4F0E9466
:102990007B0B81E005C080E003C080E001C080E0E7
:1029A000DF91CF911F910F910895FC017383628392
:1029B000918780874617570790F0421B530B8485F9
:1029C000958548175907E0F4BF016E5F7F4F8091EE
:1029D000290290912A020E949C0B80E008954217E0
:1029E000530718F46217730768F4BF016E5F7F4FD7
:1029F00080912B0290912C020E949C0B80E0089504
:102A000081E0089581E008950FB6F8940F928091C7
:102A1000270290912802892BE9F486E392E00E9434
:102A2000690B8DE292E00E94690B86E392E090933D
:102A30002C0280932B028DE292E090932A028093E5
:102A4000290240E065E08AE00E940D0E9093280282
:102A5000809327020F900FBE0895EF92FF920F937D
:102A60000E9404158091270290912802892B91F0F1
:102A70000F2EF5E2EF2EF2E0FF2EF02D03E020E026
:102A800030E045E550E064E771E087E096E10E94C0
:102A9000741001C080E00F91FF90EF9008950F93A4
:102AA0001F93CF93DF9300D000D01F92CDB7DEB736
:102AB000E0912702F0912802309771F1D9016983E2
:102AC0005B834A839D838C836630ECF40E94871479
:102AD000823061F420E0A801BE016F5F7F4F8091DA
:102AE0002702909128020E94300E17C020E040E09B
:102AF00050E0BE016F5F7F4F8091270290912802C6
:102B00000E94300E0AC020E0AD01BE016F5F7F4F12
:102B1000CF010E94D10E01C080E00F900F900F9066
:102B20000F900F90DF91CF911F910F910895AF9269
:102B3000BF92CF92DF92EF92FF920F931F93CF93AA
:102B4000DF936C010E94C4117C018091230290915B
:102B50002402E816F90608F048C030C00580F68166
:102B6000E02DA080B180C681D7818E010E5F1F4FFE
:102B7000C8010E94CD0BE889F989CE0109958A899F
:102B800082FF1CC08C859D858A0D9B1DA816B906E9
:102B900060F49B838A83D987C887B80180912B0210
:102BA00090912C020E949C0B09C000E010E020E0F4
:102BB00030E0A50160E0CE010E944F15E0912B02AC
:102BC000F0912C0280818111C9CF809129029091CE
:102BD0002A0290932C0280932B02F0932A02E09316
:102BE000290281E0F601808302C0F6011082F09292
:102BF0002402E0922302C701DF91CF911F910F9130
:102C0000FF90EF90DF90CF90BF90AF900895CF935B
:102C1000DF9300D000D000D0CDB7DEB7CE01019653
:102C20004C0144244394E12CF12C512CC82ED92C76
:102C3000E0912B02F0912C028081882309F4DCC002
:102C40000580F681E02DA080B1800E94BE11C401F4
:102C50000E9497158C01898181114BC00A151B05B3
:102C6000B8F10E948D12E0912B02F0912C020580A8
:102C7000F681E02D66807780C30102960E94CD0B1D
:102C8000D30152968C91529782FF17C01C966D917A
:102C90007C911D976A0D7B1D9501A801C3010E94BF
:102CA000D514882369F00E2D1F2D2E2D3F2DA50143
:102CB000652DC3010E944F1503C08E7FF301828BE7
:102CC000D3015096ED91FC915197C301099587C0AE
:102CD000452DB501601B710B809127029091280250
:102CE0000E94A60F0E948D12811179C00E943D0C96
:102CF00076C00E948D1273C0898188230CF46FC046
:102D0000AC80BD80F50182859385892B21F0C501BA
:102D100002960E94CD0BCE0106960E949715E9817E
:102D20000E2E000CFF0BEA30F10508F058C0EC5CE9
:102D3000FF4F0C94D91ED50152962C9152972160C9
:102D400052962C9352972A813B811C966D917C91CF
:102D50001D97620F731FAC01C5010E94D514882313
:102D6000F1F1D5015096ED91FC915197C50109956E
:102D7000F501828982FF33C04A815B818485958514
:102D8000480F591F0E2D1F2D2E2D3F2D652DC501CE
:102D90000E944F1524C0D50152968C9152978E7F78
:102DA00052968C931CC0F50122892160228B6A8186
:102DB0007B8175876487680F791F9C01AC01C50111
:102DC0000E94D5140CC0D50152968C9181FD04C08F
:102DD000C5010E94270B03C08E7FF501828B4E2D0B
:102DE0005F2D6C2D7D2D80912702909128020E94ED
:102DF0000D0F811181CF1CCF0E94BE11C4010E9412
:102E000097158C018981811174CFE0912902F0918D
:102E10002A028081442D8111452DAE2CBF2C59CF23
:102E20001092B90088E48093B800089594EA9093D2
:102E3000BC00ECEBF0E090819923ECF79091B900A5
:102E4000987F903199F48093BB0084E88093BC0014
:102E5000ECEBF0E080818823ECF78091B900887F6B
:102E6000803431F0803231F083E0089580E00895BD
:102E700081E0089582E0089584E98093BC00ECEB42
:102E8000F0E0808184FDFDCF0895BF92CF92DF9264
:102E9000EF92FF920F931F93CF93DF93B82ECCEB5B
:102EA000D0E00F2EF4EADF2EF02D09EB10E00F2E0C
:102EB000FBEBEF2EF12CF02D0F2EF4E8CF2EF02DA2
:102EC000D88288818823ECF7F8018081887F883058
:102ED000B9F7F701B082C88288818823ECF7F8013E
:102EE0008081887F883119F00E943C17E9CFDF91FB
:102EF000CF911F910F91FF90EF90DF90CF90BF90F7
:102F000008958093BB0084E88093BC00ECEBF0E074
:102F100080818823ECF78091B900887F883221F086
:102F2000803321F082E0089580E0089581E00895E3
:102F300084EC8093BC00ECEBF0E080818823ECF71C
:102F40008091BB00089584E88093BC00ECEBF0E036
:102F500080818823ECF78091BB0008959093C50091
:102F60008093C40088E18093C100E2ECF0E08081AE
:102F70008860808386E080830895E0ECF0E09081B3
:102F800095FFFDCF8093C6000895CF93DF93EC01AA
:102F90008881882331F021960E94BD178991811183
:102FA000FBCFDF91CF9108955058BB27AA270E94ED
:102FB000EC170C944E1A0E94401A38F00E94471ADF
:102FC00020F039F49F3F19F426F40C94021A0EF401
:102FD000E095E7FB0C94FC19E92F0E945F1A58F367
:102FE000BA17620773078407950720F079F4A6F5EE
:102FF0000C94811A0EF4E0950B2EBA2FA02D0B0124
:10300000B90190010C01CA01A0011124FF27591B2D
:1030100099F0593F50F4503E68F11A16F040A22F33
:10302000232F342F4427585FF3CF469537952795A4
:10303000A795F0405395C9F77EF41F16BA0B620BA3
:10304000730B840BBAF09150A1F0FF0FBB1F661FEA
:10305000771F881FC2F70EC0BA0F621F731F841F2D
:1030600048F4879577956795B795F7959E3F08F053
:10307000B0CF9395880F08F09927EE0F9795879515
:1030800008959F939F77EEE389379E0728F4ECE736
:10309000F0E00E942C1A0CC00E94B8199058A2EAC5
:1030A0002AED3FE049EC5FE30E94EC170E944E1AC4
:1030B0000F9007FC905808950E94401A60F080E835
:1030C00091E009F49EEF0E94471A28F040E851E091
:1030D00071F45EEF0CC00C94021A0C94811AE92F63
:1030E000E0780E945F1A40F3092E052AB1F32617F3
:1030F00037074807590738F00E2E07F8E02569F022
:10310000E025E0640AC0EF6307F8009407FADB01EA
:10311000B9019D01DC01CA01AD01EF930E94EA18DB
:103120000E944E1A0E949F185F91552339F02BED93
:103130003FE049E450FD49EC0C94D5170895DF9326
:10314000DD27B92FBF7740E85FE31616170648075B
:103150005B0718F4D92F0E94881A9F938F937F934F
:103160006F930E94431BE0E9F0E00E94051A0E9461
:103170004E1A2F913F914F915F910E94A31ADD2328
:1031800051F09058A2EA2AED3FE049EC5FE3D07895
:103190005D270E94EC17DF910C944E1A0E94D819FB
:1031A00008F481E008950E94E7180C944E1A0E94DA
:1031B000471A58F00E94401A40F029F45F3F29F066
:1031C0000C94FC1951110C94821A0C94021A0E944E
:1031D0005F1A68F39923B1F3552391F3951B550BAF
:1031E000BB27AA2762177307840738F09F5F5F4FDA
:1031F000220F331F441FAA1FA9F335D00E2E3AF019
:10320000E0E832D091505040E695001CCAF72BD030
:10321000FE2F29D0660F771F881FBB1F2617370781
:103220004807AB07B0E809F0BB0B802DBF01FF27B3
:1032300093585F4F3AF09E3F510578F00C94FC197B
:103240000C94821A5F3FE4F3983ED4F38695779509
:103250006795B795F7959F5FC9F7880F911D96956C
:10326000879597F90895E1E0660F771F881FBB1FC8
:10327000621773078407BA0720F0621B730B840B75
:10328000BA0BEE1F88F7E09508950E944C196894D8
:10329000B1110C94821A08950E94671A88F09F5702
:1032A00098F0B92F9927B751B0F0E1F0660F771F6A
:1032B000881F991F1AF0BA95C9F714C0B13091F060
:1032C0000E94811AB1E008950C94811A672F782F1B
:1032D0008827B85F39F0B93FCCF386957795679525
:1032E000B395D9F73EF490958095709561957F4F91
:1032F0008F4F9F4F0895E89409C097FB3EF4909537
:103300008095709561957F4F8F4F9F4F9923A9F0BE
:10331000F92F96E9BB279395F6958795779567954D
:10332000B795F111F8CFFAF4BB0F11F460FF1BC091
:103330006F5F7F4F8F4F9F4F16C0882311F096E924
:1033400011C0772321F09EE8872F762F05C06623D2
:1033500071F096E8862F70E060E02AF09A95660F8B
:10336000771F881FDAF7880F9695879597F9089544
:10337000DF93CF931F930F938B01EC01EDEBF0E004
:103380000E94051A0E944E1A9801AE018B01EC01B1
:1033900060E070E080E89FE30E94D4170E94031B66
:1033A0009801AE010F911F91CF91DF910C94A31A58
:1033B000990F0008550FAA0BE0E8FEEF1616170646
:1033C000E807F907C0F012161306E407F50798F0AE
:1033D000621B730B840B950B39F40A2661F0232BC7
:1033E000242B252B21F408950A2609F4A140A69543
:1033F0008FEF811D811D089597F99F6780E870E028
:1034000060E008959FEF80EC0895DF93CF931F93C2
:103410000F93FF92EF92DF927B018C01689406C0BC
:10342000DA2EEF010E94A31AFE01E894A5912591DE
:10343000359145915591A6F3EF010E94EC17FE01DD
:103440009701A801DA9469F7DF90EF90FF900F9150
:103450001F91CF91DF9108959F938F937F936F93E7
:10346000FF93EF939B01AC010E94901AEF91FF91A3
:103470000E94051A2F913F914F915F910C94901AE1
:1034800000240A9416161706180609060895002443
:103490000A9412161306140605060895092E0394BD
:1034A000000C11F4882352F0BB0F40F4BF2B11F431
:1034B00060FF04C06F5F7F4F8F4F9F4F089557FD90
:1034C0009058440F551F59F05F3F71F04795880F92
:1034D00097FB991F61F09F3F79F087950895121629
:1034E00013061406551FF2CF4695F1DF08C01616D5
:1034F00017061806991FF1CF869571056105089486
:103500000895E894BB2766277727CB0197F908959C
:103510009B01AC0160E070E080E89FE30C94D3185D
:103520000E94A31A0C944E1A0E94401A38F00E946E
:10353000471A20F0952311F00C94FC190C94021AF0
:1035400011240C94821A0E945F1A70F3959FC1F3A4
:10355000950F50E0551F629FF001729FBB27F00D41
:10356000B11D639FAA27F00DB11DAA1F649F662796
:10357000B00DA11D661F829F2227B00DA11D621FE5
:10358000739FB00DA11D621F839FA00D611D221F9F
:10359000749F3327A00D611D231F849F600D211D83
:1035A000822F762F6A2F11249F5750409AF0F1F006
:1035B00088234AF0EE0FFF1FBB1F661F771F881F6F
:1035C00091505040A9F79E3F510580F00C94FC1992
:1035D0000C94821A5F3FE4F3983ED4F38695779576
:1035E0006795B795F795E7959F5FC1F7FE2B880F15
:1035F000911D9695879597F9089519F416F40C94F2
:10360000021A0C94471B0E94671AB8F39923C9F356
:10361000B6F39F57550B87FF0E94551B0024A0E669
:1036200040EA900180585695979528F4805C660F83
:10363000771F881F20F026173707480730F4621BD2
:10364000730B840B202931294A2BA69517940794D4
:10365000202531254A2758F7660F771F881F20F04D
:1036600026173707480730F4620B730B840B200DC5
:10367000311D411DA09581F7B901842F9158880F04
:103680009695879508959B01AC010C94901A9F3FE5
:1036900031F0915020F4879577956795B795880F0D
:1036A000911D9695879597F9089591505040660F12
:1036B000771F881FD2F70895A0E1B0E0E2E6FBE1B2
:1036C0000C94DF1E7C011B016A01FC01178216822B
:1036D000838181FF44C39E012F5F3F4F3901F70172
:1036E0009381F10193FD859193FF81911F018823BF
:1036F00009F431C3853239F493FD859193FF8191AB
:103700001F01853239F4B70190E00E94352156013E
:103710006501E5CF10E0512C912CFFE1F915D8F0AF
:103720008B3279F038F4803279F08332A1F4F92DBC
:10373000F0612EC08D3261F0803369F4292D216053
:103740002DC0392D3260932E892D8460982E2AC089
:10375000E92DE86015C097FC2DC020ED280F2A3018
:1037600088F496FE06C03AE0139F200D1124122F14
:1037700019C08AE0589E200D1124522EE92DE062D6
:103780009E2E10C08E3231F496FCE5C2F92DF06405
:103790009F2E08C08C3621F4292D2068922E02C05D
:1037A000883641F4F10193FD859193FF81911F01CA
:1037B0008111B3CF9BEB980F933020F4992D90613A
:1037C000805E07C09BE9980F933008F066C1992D81
:1037D0009F7E96FF16E09F73992E853619F49064AC
:1037E000992E08C0863621F4392F3068932E02C0F6
:1037F0001111115097FE07C01C3350F44424439418
:10380000410E27E00BC0183038F027E017E005C064
:1038100027E09CE3492E02C0212F412C560184E071
:10382000A80EB11CF6016081718182819381042D03
:10383000A3010E9437206C01F981FC87F0FF02C0D0
:10384000F3FF06C091FC06C092FE06C000E205C070
:103850000DE203C00BE201C000E08C858C7019F012
:1038600001115AC29BC297FE10C04C0CFC85F4FF9C
:1038700004C08A81813309F44A94141474F528E051
:10388000241578F588E0482E2CC096FC2AC0812F9C
:1038900090E08C159D059CF03CEFC3163FEFD306DE
:1038A00074F0892D8068982E0AC0E2E0F0E0EC0FF9
:1038B000FD1FE10FF11D8081803319F411501111AA
:1038C000F4CF97FE0EC044244394410E812F90E024
:1038D000C816D9062CF41C1904C04424439401C012
:1038E00010E097FE06C01C141D0434F4C6010196B6
:1038F00005C085E090E002C081E090E001110196F2
:10390000112331F0212F30E02F5F3F4F820F931FA3
:10391000252D30E08217930714F4581A01C0512C5A
:10392000892D897049F4552039F0B70180E290E083
:103930000E9435215A94F7CF002329F0B701802F38
:1039400090E00E94352193FC09C0552039F0B70161
:1039500080E390E00E9435215A94F7CF97FE4CC047
:103960004601D7FE02C0812C912CC6018819990905
:10397000F301E80FF91FFE87ED879601241931093D
:10398000388B2F87012F10E01195019511093FEF1A
:103990008316930629F4B7018EE290E00E94352148
:1039A000C814D9044CF08F8598898815990524F49A
:1039B000ED85FE85818101C080E3F1E08F1A9108D9
:1039C0002D853E852F5F3F4F3E872D8780169106C0
:1039D0002CF0B70190E00E943521D9CFC814D9044A
:1039E00041F49A81963320F4953319F43C8534FFE1
:1039F00081E3B70190E04EC08A81813319F09C8544
:103A00009F7E9C87B70190E00E943521111105C06F
:103A100094FC18C085E690E017C0B7018EE290E0F4
:103A20000E9435211E5F82E001E0080FF301E80FDC
:103A3000F11D8081B70190E00E943521802F011394
:103A4000F3CFE6CF85E490E0B7010E943521D7FCA3
:103A500006C0C114D10441F4EC85E4FF05C0D19443
:103A6000C194D1088DE201C08BE2B70190E00E94C1
:103A7000352180E32AE0C216D1042CF08F5FFAE0F2
:103A8000CF1AD108F7CFB70190E00E943521B701D6
:103A9000C601C0960E94352154C1833631F0833768
:103AA00079F0833509F056C020C0560132E0A30EEC
:103AB000B11CF6018081898301E010E0630112C02E
:103AC0005601F2E0AF0EB11CF601C080D18096FE27
:103AD00003C0612F70E002C06FEF7FEFC6010E944C
:103AE0002A218C01F92DFF7714C0560122E0A20E85
:103AF000B11CF601C080D18096FE03C0612F70E03A
:103B000002C06FEF7FEFC6010E940F218C01F92DDB
:103B1000F0689F2EF3FD1AC0852D90E00817190755
:103B2000A8F4B70180E290E00E9435215A94F4CFC6
:103B3000F60197FC859197FE81916F01B70190E0A6
:103B40000E94352151105A94015011090115110597
:103B500079F7F7C0843611F0893661F5560197FE82
:103B600009C024E0A20EB11CF6016081718182813E
:103B700093810AC0F2E0AF0EB11CF6016081718141
:103B8000072E000C880B990BF92DFF769F2E97FFBF
:103B900009C090958095709561957F4F8F4F9F4F8D
:103BA000F0689F2E2AE030E0A3010E949321C82EE6
:103BB000C6183FC0092D853721F40F7E2AE030E07A
:103BC0001DC0097F8F3691F018F4883559F0C3C0B5
:103BD000803719F0883711F0BEC0006104FF09C0BA
:103BE000046007C094FE08C0066006C028E030E00C
:103BF00005C020E130E002C020E132E0560107FFBD
:103C000009C084E0A80EB11CF60160817181828137
:103C1000938108C0F2E0AF0EB11CF60160817181A2
:103C200080E090E0A3010E949321C82EC6180F7770
:103C3000902E96FE0BC0092D0E7FC11650F494FEF7
:103C40000AC092FC08C0092D0E7E05C0DC2C092D8F
:103C500003C0DC2C01C0D12E04FF0DC0FE01EC0D11
:103C6000F11D8081803311F4097E09C002FF06C076
:103C7000D394D39404C0802F867809F0D39403FDA5
:103C800011C000FF06C01C2DD51480F4150D1D19A0
:103C90000DC0D51458F4B70180E290E00E943521A0
:103CA000D394F7CFD51410F45D1801C0512C04FF44
:103CB00010C0B70180E390E00E94352102FF17C0D9
:103CC00001FD03C088E790E002C088E590E0B701FD
:103CD0000CC0802F867859F001FF02C08BE201C032
:103CE00080E207FD8DE2B70190E00E943521C11608
:103CF00038F4B70180E390E00E9435211150F7CFEE
:103D0000CA94F301EC0DF11D8081B70190E00E948F
:103D10003521C110F5CF15C0F4E0F51560F584E04C
:103D2000581A93FE1FC0011127C02C8523FF2AC0FB
:103D300006EE10E0392D3071932EF8018491811137
:103D400024C0552009F4E4CCB70180E290E00E9441
:103D500035215A94F6CFF7018681978126C08FEFDF
:103D60009FEF23C0B70180E290E00E9435215A9472
:103D70005110F8CFD8CF512CB701802F90E00E947E
:103D80003521D3CF0AEE10E0D5CF91108052B70184
:103D900090E00E9435210F5F1F4FCFCF23E0251504
:103DA00010F483E0BDCF512CC0CF6096E2E10C94BB
:103DB000FB1EEE0FFF1F0590F491E02D09942F924A
:103DC0003F924F925F926F927F928F929F92AF92AB
:103DD000BF92CF92DF92EF92FF920F931F93CF93F8
:103DE000DF93CDB7DEB7CA1BDB0B0FB6F894DEBF8F
:103DF0000FBECDBF09942A88398848885F846E84B5
:103E00007D848C849B84AA84B984C884DF80EE80FE
:103E1000FD800C811B81AA81B981CE0FD11D0FB607
:103E2000F894DEBF0FBECDBFED0108950F931F9331
:103E3000CF93DF938230910510F482E090E0E0911F
:103E40007702F091780220E030E0A0E0B0E0309717
:103E500019F1408151810281138148175907C8F037
:103E60008417950769F4109731F012960C93129706
:103E700013961C9327C0009377021093780222C0F8
:103E80002115310519F04217530718F49A01BD01A5
:103E9000EF01DF01F801DBCF21153105F9F0281B17
:103EA000390B2430310580F48A819B8161157105BD
:103EB00021F0FB019383828304C090937802809366
:103EC0007702FE01329644C0FE01E20FF31F819398
:103ED000919322503109398328833AC02091750289
:103EE00030917602232B41F420910201309103019D
:103EF00030937602209375022091000130910101E8
:103F00002115310541F42DB73EB740910401509180
:103F10000501241B350BE0917502F0917602E21742
:103F2000F307A0F42E1B3F0B2817390778F0AC01DC
:103F30004E5F5F4F2417350748F04E0F5F1F5093B9
:103F40007602409375028193919302C0E0E0F0E025
:103F5000CF01DF91CF911F910F910895CF93DF9300
:103F6000009709F481C0FC01329713821282A0915C
:103F70007702B0917802109781F420813181820F0D
:103F8000931F20917502309176022817390751F559
:103F9000F0937602E093750267C0ED0120E030E017
:103FA000CE17DF0740F44A815B819E014115510520
:103FB000F1F0EA01F5CFD383C28340815181840FB0
:103FC000951FC817D90759F488819981840F951FC7
:103FD0000296918380838A819B81938382832115BA
:103FE000310529F4F0937802E09377023DC0E901AE
:103FF000FB83EA8349915991C40FD51FEC17FD0744
:1040000061F480819181840F951F0296E901998363
:104010008883828193819B838A83E0E0F0E012961B
:104020008D919C911397009719F0FD01DC01F7CF5A
:104030008D919C9111979D012E5F3F4F820F931F91
:1040400020917502309176022817390769F430976C
:1040500029F4109278021092770202C01382128221
:10406000B0937602A0937502DF91CF910895283026
:1040700008F027E03327DA01990F311D87FD9160A1
:1040800000966105710539F432602E5F3D9330E38F
:104090002A95E1F708959F3F30F08038710561055A
:1040A00009F03C5F3C5F3D93913008F08068911DC2
:1040B000DF93CF931F930F93FF92EF92192F987F67
:1040C0009695E92F96959695E90FFF27E85BFE4FA9
:1040D00099273327EE24FF24A701E70105900894D0
:1040E000079428F4360FE71EF81E491F511D660F6E
:1040F000771F881F991F0694A1F70590079428F44D
:10410000E70EF81E491F561FC11D770F881F991F04
:10411000661F0694A1F70590079428F4F80E491F2E
:10412000561FC71FD11D880F991F661F771F069442
:10413000A1F70590079420F4490F561FC71FD81FF9
:10414000990F661F771F881F0694A9F78491109511
:10415000177041F0D695C79557954795F794E79412
:104160001A95C1F7EEEEF0E068941590159135912F
:104170006591959105907FE27395E118F10A430BE3
:10418000560BC90BD009C0F7E10CF11E431F561F97
:10419000C91FD01D7EF4703311F48A95E6CFE894E0
:1041A000015030F0080F0AF40027021708F4202FFE
:1041B0002395022F7A3328F079E37D932A95E9F746
:1041C00010C07D932A9589F6069497956795379543
:1041D00017951794E118F10A430B560BC90BD00938
:1041E00098F023957E9173957A3308F070E37C9371
:1041F0002013B8F77E9170617D9330F0839571E361
:104200007D9370E32A95E1F71124EF90FF900F91D1
:104210001F91CF91DF91992787FD90950895FC011B
:104220000590615070400110D8F7809590958E0FE1
:104230009F1F0895FB01DC0102C001900D924150C7
:104240005040D8F70895DC0101C06D9341505040B3
:10425000E0F70895FC016150704001900110D8F71B
:10426000809590958E0F9F1F08950F931F93CF9366
:10427000DF93FB01238121FD03C08FEF9FEF2CC053
:1042800022FF16C04681578124813581421753078A
:1042900044F4A081B1819D012F5F3F4F3183208382
:1042A0008C93268137812F5F3F4F3783268314C03D
:1042B0008B01EC01FB010084F185E02D0995892B30
:1042C000E1F6D80116968D919C9117970196179655
:1042D0009C938E931697CE01DF91CF911F910F91F2
:1042E0000895AEE0B0E0E7E7F1E20C94ED1E0D8931
:1042F0001E8986E08C831A8309838FEF9FE79E8354
:104300008D83AE01475E5F4F6F89788DCE01019638
:104310000E945C1BEF81F885E00FF11F10822E9642
:10432000E4E00C94091FFA01AA27283051F120314A
:1043300081F1E8946F936E7F6E5F7F4F8F4F9F4F39
:10434000AF4FB1E03ED0B4E03CD0670F781F891F7B
:104350009A1FA11D680F791F8A1F911DA11D6A0F49
:10436000711D811D911DA11D20D009F468943F91FC
:104370002AE0269F11243019305D3193DEF6CF01FB
:104380000895462F4770405D4193B3E00FD0C9F7C1
:10439000F6CF462F4F70405D4A3318F0495D31FD2E
:1043A0004052419302D0A9F7EACFB4E0A695979581
:1043B000879577956795BA95C9F700976105710557
:1043C00008959B01AC010A2E0694579547953795A1
:1043D0002795BA95C9F7620F731F841F951FA01DFB
:0643E0000895F894FFCFE0
:1043E6000000790220000000803F0000803F0000AE
:1043F600803F0000803F0000803F0000803F0000BB
:10440600803F496E6974204F4B00416E676C652092
:10441600783A202566206D730A00416E676C652028
:10442600793A202566206D730A005461736B20412A
:1044360044433A25660A005441534B4100544153C4
:104446004B42005441534B43005441534B440049A3
:0C445600444C4500546D72205376630006
:00000001FF
