:100000000C94F4000C9411010C9411010C94110146
:100010000C9411010C9411010C94770D0C941101A6
:100020000C9411010C9411010C9411010C94110108
:100030000C9411010C9411010C9411010C941101F8
:100040000C9411010C9411010C9411010C941101E8
:100050000C9411010C9411010C9411010C941101D8
:100060000C9411010C9411011F171F171F174F1724
:10007000571767171F171F174F175717036EDB36D2
:100080003D9A9999993DABAAAA2A3E000000803F6B
:10009000084AD73B3BCE016E84BCBFFDC12F3D6CEF
:1000A00074319ABD56833DDA3D00C77F11BED9E455
:1000B000BB4C3E916BAAAABE000000803F072C7A81
:1000C000A5BA6CC590DA3B9365FC8BBC53F810FD68
:1000D0003C5692834DBD879D3AB63DCBC9BF5BBEB2
:1000E00073DA0FC93F006E616E00696E66000040F2
:1000F0007A10F35A00A0724E18090010A5D4E80037
:1001000000E87648170000E40B54020000CA9A3B4E
:10011000000000E1F50500008096980000004042D4
:100120000F000000A0860100000010270000000062
:10013000E803000000006400000000000A00000066
:1001400000000100000000002C76D888DC674F0812
:1001500023DFC1DFAE59E1B1B796E5E3E453C63A18
:10016000E651997696E8E6C28426EB898C9B62ED8F
:10017000407C6FFCEFBC9C9F40F2BAA56FA5F49049
:10018000055A2AF75C936B6CF9676DC11BFCE0E4C0
:100190000D47FEF520E6B500D0ED902E0300943516
:1001A00077050080841E080000204E0A000000C869
:1001B0000C333333330F986E12831141EF8D2114BA
:1001C000893BE65516CFFEE6DB18D1844B381BF78A
:1001D0007C1D901DA4BBE424203284725E22810029
:1001E000C9F124ECA1E53D2711241FBECFEFD8E0D3
:1001F000DEBFCDBF11E0A0E0B1E0E4EBF4E402C06B
:1002000005900D92A035B107D9F722E0A0E5B1E045
:1002100001C01D92A535B207E1F70E9413010C94AD
:1002200058220C94000087E690E00E9432180E9449
:1002300094170E94490B0E9433010E94A5010E945D
:10024000DA0188E0E2E2F1E0ABE1B2E001900D9288
:100250008A95E1F78BE192E00E9449180E94D5034C
:100260000E941412FFCFF894E4E6F0E080818E7FC4
:100270008083ACE7B0E08C9180648C938C918F7715
:100280008C93EAE7F0E080818460808380818260E3
:1002900080838081816080838C918E7F8C938C9110
:1002A0008D7F8C938C918B7F8C938C91877F8C939B
:1002B000808180628083ABE7B0E08C918E7F8C93ED
:1002C0008C918E7F8C938C918E7F8C93AEE7B0E077
:1002D0008C9181608C938081806880838081806430
:1002E000808378940895BC01990F880B990B0E9424
:1002F000011A2AE737EC41E350E40E94191B20E081
:1003000030E04AEF52E40E9459180E94D0197093CD
:100310008900609388000895BC01990F880B990BA0
:100320000E94011A2AE737EC41E350E40E94191BAE
:1003300020E030E04AEF52E40E9459180E94D019A0
:1003400070938B0060938A000895F89484B186605E
:1003500084B9109285001092840087E893E190930D
:10036000870080938600E0E8F0E0808180688083E9
:1003700080818F7B808380818062808380818F7E7B
:10038000808380818E7F8083808182608083E1E8AA
:10039000F0E08081886080838081806180838081BB
:1003A0008160808380818260808380818B7F808375
:1003B00078940895F894559A85B5846085BD85B57F
:1003C0008D7F85BD85B5816085BD84B5816084BD27
:1003D00084B5826084BD85B5886085BD8FEF87BD9B
:1003E00087B5869588BD84B5806284BD789408956C
:1003F000CF93DF9300D0CDB7DEB70E9448129A8327
:10040000898308E710E00F2EFBE0FF2EF02D0F2E62
:10041000F7E2EF2EF02D61E070E0CE0101960E9430
:100420009413F8016081718180E090E00E94FF19CF
:1004300060932502709326028093270290932802EE
:1004400020E030E048E454E40E940C1B18163CF411
:1004500088B5815088BD88B58B3008F4F8BC20E0A1
:1004600030E046E953E460912502709126028091C4
:100470002702909128020E945219882364F688B5B9
:100480008F5F88BD88B5883230F2E8BCC4CFCF9387
:10049000DF9300D0CDB7DEB70E9448129A838983DC
:1004A0000F2EF6E18F2EF1E09F2EF02D0F2EFAE0A9
:1004B0006F2EF1E07F2EF02D61E070E0CE0101960D
:1004C0000E949413D401AD90BD90CD90DC90139711
:1004D000F301E084F184028513852481358146810E
:1004E000578160817181828193811B96EC911B976A
:1004F000EF931A96EC911A97EF931996EC9119973E
:10050000EF931896EC911897EF931796EC91179735
:10051000EF931696EC911697EF931596EC9115972D
:10052000EF931496EC91EF930E94F10489E292E02C
:100530000E941D080FB6F894DEBF0FBECDBFBCCF22
:10054000CF93DF9300D0CDB7DEB70E9448129A83D5
:10055000898361E070E0CE0101960E9494136AE005
:1005600071E086E191E00E945809F3CFCF93DF93C9
:1005700000D0CDB7DEB70E9448129A8389830F2E30
:10058000F9E2CF2EF2E0DF2EF02D61E070E0CE0137
:1005900001960E949413F60180819181A281B3811A
:1005A000BC01CD01905860936C0170936D018093F4
:1005B0006E0190936F010481158126813781305837
:1005C000009368011093690120936A0130936B01D5
:1005D000E0906401F090650100916601109167015F
:1005E000209160013091610140916201509163015D
:1005F0000E94090460935C0170935D0180935E0129
:1006000090935F01E0905801F090590100915A01D8
:1006100010915B0120915401309155014091560198
:1006200050915701609168017091690180916A0150
:1006300090916B010E9409046093500170935101E5
:1006400080935201909353018090640190906501D2
:10065000A0906601B0906701C501B4010E94C9195C
:100660009B01772324F422273327261B370BB9015C
:10067000330F880B990B0E94011A2BED36EB4DECD2
:1006800051E40E9452198823D4F426E636E645E860
:1006900052E460916C0170916D0180916E019091B6
:1006A0006F010E945719A50194010E945918609387
:1006B0006401709365018093660190936701809156
:1006C0006C0190916D01A0916E01B0916F018093CA
:1006D000600190936101A0936201B09363018090E7
:1006E000580190905901A0905A01B0905B01C5014A
:1006F000B4010E94C9199B01772324F422273327D0
:10070000261B370BB901330F880B990B0E94011A76
:100710002BED36EB4DEC51E40E9452198823D4F4B2
:1007200026E636E645E852E4609168017091690179
:1007300080916A0190916B010E945719A501940163
:100740000E945918609358017093590180935A017F
:1007500090935B018091680190916901A0916A0179
:10076000B0916B018093540190935501A093560171
:10077000B093570160915C0170915D0180915E01C1
:1007800090915F010E94C919CB010E947301609191
:1007900050017091510180915201909153010E943A
:1007A000C919CB010E948C01F0CEEF92FF920F93FA
:1007B000E12CF12C03E020E030E040E051E06AE27F
:1007C00071E087E492E00E94F81002E020E030E05F
:1007D00040E051E060E371E080EA92E00E94F810AE
:1007E00004E020E030E040E051E066E371E086EBB9
:1007F00092E00E94F81020E030E040E850E06CE326
:1008000071E088EF91E00E94F8100F91FF90EF9057
:1008100008954F925F926F927F928F929F92AF92C4
:10082000BF92CF92DF92EF92FF920F931F93CF93DD
:10083000DF9300D000D0CDB7DEB74B015C012901BA
:100840003A01E982FA820B831C832DEC3CEC4CE4E8
:100850005FE30E94191B6B017C0120E030E040E661
:1008600050E469817A818B819C810E94191B9B01D4
:10087000AC01C701B6010E9459186B017C01A301AC
:100880009201C501B4010E94581820E030E0A9018E
:100890000E94191B26E636E645E852E40E94191B21
:1008A0009B01AC01C701B6010E9459186B017C0184
:1008B0006093700170937101809372019093730142
:1008C00020E030E04AEA52E40E940C1B18166CF457
:1008D00080E090E0AAEAB2E4809370019093710105
:1008E000A0937201B093730116C020E030E04AEA91
:1008F00052ECC701B6010E945219882364F480E0CB
:1009000090E0AAEAB2EC8093700190937101A093F9
:100910007201B093730120E030E044EB52E4609147
:1009200070017091710180917201909173010E9428
:1009300059186093700170937101809372019093C4
:1009400073010F900F900F900F90DF91CF911F9137
:100950000F91FF90EF90DF90CF90BF90AF909F905E
:100960008F907F906F905F904F900895CF92DF921D
:10097000EF92FF920F931F938B019C013595279562
:10098000179507950F2EFFEDCF2EF9E5DF2EF7E334
:10099000EF2EFFE5FF2EF02DC01AD10AE20AF30A6E
:1009A00020E030E040E05FE30E94191BA7019601C0
:1009B0000E94191BA70196010E94191B9B01AC0103
:1009C00060E070E080EC9FE30E945818A701960158
:1009D0000E94191B1F910F91FF90EF90DF90CF9015
:1009E00008954F925F926F927F928F929F92AF92F3
:1009F000BF92CF92DF92EF92FF920F931F93CF930C
:100A0000DF93CDB7DEB7A0970FB6F894DEBF0FBE69
:100A1000CDBF69877A878B879C872D873E874F87D5
:100A2000588BE98AFA8A0B8B1C8B20E030E0A901F5
:100A3000C601B5010E945219811117C020E030E0B3
:100A4000A9016BA97CA98DA99EA90E9452198111A7
:100A50000CC020E030E0A9016FA978AD89AD9AAD56
:100A60000E945219882309F438C1A6019501C601D4
:100A7000B5010E94191B2B013C012BA93CA94DA9D2
:100A80005EA9CA01B9010E94191B9B01AC01C301F7
:100A9000B2010E9459182B013C012FA938AD49AD74
:100AA0005AADCA01B9010E94191B9B01AC01C301D7
:100AB000B2010E9459180E94B6042B013C019B010F
:100AC000AC01C601B5010E94191B698F7A8F8B8F0B
:100AD0009C8FA30192016BA97CA98DA99EA90E945C
:100AE000191B6D8F7E8F8F8F98A3A30192016FA921
:100AF00078AD89AD9AAD0E94191B6D837E838F837B
:100B0000988780907C0190907D01A0907E01B090AC
:100B10007F01409074015090750160907601709053
:100B20007701C0900601D0900701E0900801F09095
:100B300009018091780190917901A0917A01B09199
:100B40007B0189839A83AB83BC83A3019201C50196
:100B5000B4010E94191B6D8B7E8B8F8B988F29811E
:100B60003A814B815C81C701B6010E94191B9B0130
:100B7000AC016D897E898F89988D0E9458186D8B84
:100B80007E8B8F8B988FA7019601C501B4010E94BF
:100B9000191B4B015C0129813A814B815C81C301A6
:100BA000B2010E94191B9B01AC01C501B4010E9456
:100BB000591869837A838B839C83A7019601C701A7
:100BC000B6010E94191B20E030E040E05FE30E9484
:100BD00058186B017C01A3019201C301B2010E946C
:100BE000191B9B01AC01C701B6010E9459186B018A
:100BF0007C019B01AC016D8D7E8D8F8D98A10E9433
:100C0000191B4B015C0129813A814B815C816D810B
:100C10007E818F8198850E94191B9B01AC01C501C3
:100C2000B4010E9458189B01AC0169857A858B85B7
:100C30009C850E94591869877A878B879C872D89A4
:100C40003E894F89588D6D817E818F8198850E9464
:100C5000191B4B015C01A7019601698D7A8D8B8D63
:100C60009C8D0E94191B9B01AC01C501B4010E941F
:100C700058189B01AC016D857E858F8598890E94EF
:100C800059186D877E878F87988B29813A814B8190
:100C90005C81698D7A8D8B8D9C8D0E94191B6B01F7
:100CA0007C012D893E894F89588D6D8D7E8D8F8D6C
:100CB00098A10E94191B9B01AC01C701B6010E94BB
:100CC00058189B01AC0169897A898B899C890E949B
:100CD0005918698B7A8B8B8B9C8B2FE133EA45EF0C
:100CE0005BE369857A858B859C850E94191B6987E2
:100CF0007A878B879C872FE133EA45EF5BE36D852D
:100D00007E858F8598890E94191B6D877E878F87C6
:100D1000988B2FE133EA45EF5BE369897A898B8908
:100D20009C890E94191B698B7A8B8B8B9C8B809181
:100D3000060190910701A0910801B09109018983F2
:100D40009A83AB83BC83C0907C01D0907D01E090FE
:100D50007E01F0907F018091780190917901A091BE
:100D60007A01B0917B018D839E83AF83B8874090D9
:100D70007401509075016090760170907701C70101
:100D8000B601905829853A854B855C850E94191BD0
:100D90004B015C012D813E814F8158856D857E859B
:100DA0008F8598890E94191B9B01AC01C501B40174
:100DB0000E9458184B015C01A301920169897A894C
:100DC0008B899C890E94191B9B01AC01C501B40150
:100DD0000E94581829813A814B815C810E945918E0
:100DE000698F7A8F8B8F9C8F29813A814B815C81AF
:100DF00069857A858B859C850E94191B4B015C0156
:100E00002D813E814F81588569897A898B899C899A
:100E10000E94191B9B01AC01C501B4010E94591825
:100E20004B015C01A30192016D857E858F859889B8
:100E30000E94191B9B01AC01C501B4010E94581806
:100E4000A70196010E9459186D8F7E8F8F8F98A3EE
:100E500029813A814B815C816D857E858F8598895A
:100E60000E94191B4B015C01A701960169897A89CF
:100E70008B899C890E94191B9B01AC01C501B4019F
:100E80000E9458184B015C01A301920169857A8583
:100E90008B859C850E94191B9B01AC01C501B40187
:100EA0000E9459182D813E814F8158850E94591802
:100EB0006D8B7E8B8F8B988F29813A814B815C81E2
:100EC00069897A898B899C890E94191B4B015C0175
:100ED000A70196016D857E858F8598890E94191BD3
:100EE0009B01AC01C501B4010E9459186B017C0142
:100EF0002D813E814F81588569857A858B859C85BA
:100F00000E94191B9B01AC01C701B6010E94581831
:100F1000A30192010E9459184B015C01298D3A8D61
:100F20004B8D5C8DCA01B9010E94191B6B017C01BC
:100F30002D8D3E8D4F8D58A1CA01B9010E94191BFC
:100F40009B01AC01C701B6010E9459186B017C01DD
:100F50002D893E894F89588DCA01B9010E94191BFC
:100F60009B01AC01C701B6010E9459186B017C01BD
:100F7000A5019401C501B4010E94191B9B01AC019C
:100F8000C701B6010E9459180E94B6046B017C018A
:100F90009B01AC01698D7A8D8B8D9C8D0E94191BF4
:100FA00060930601709307018093080190930901F3
:100FB000A70196016D8D7E8D8F8D98A10E94191BC2
:100FC00060937C0170937D0180937E0190937F01FB
:100FD000A70196016D897E898F89988D0E94191BC2
:100FE000609378017093790180937A0190937B01EB
:100FF000A7019601C501B4010E94191B60937401F9
:10100000709375018093760190937701A0960FB647
:10101000F894DEBF0FBECDBFDF91CF911F910F912E
:10102000FF90EF90DF90CF90BF90AF909F908F9008
:101030007F906F905F904F9008954F925F926F9264
:101040007F928F929F92AF92BF92CF92DF92EF9258
:10105000FF92CF93DF93CDB7DEB72E970FB6F894FC
:10106000DEBF0FBECDBF9E878D87C0907801D09028
:101070007901E0907A01F0907B018090740190906A
:101080007501A0907601B090770140907C0150905E
:101090007D0160907E0170907F01609106017091EA
:1010A000070180910801909109019B01AC010E9408
:1010B000591869877A878B879C8720E030E040E069
:1010C00050ECC701B6010E94191BA70196010E94AE
:1010D000191B69837A838B839C83A5019401C501C5
:1010E000B4010E945918A50194010E94191B9B018B
:1010F000AC0169817A818B819C810E94581820E023
:1011000030E040E85FE30E94591869837A838B835B
:101110009C83A3019201C301B2010E945918A70147
:1011200096010E94191B6D837E838F839887298582
:101130003A854B855C85C501B4010E94191B9B0152
:10114000AC016D817E818F8198850E94591829811B
:101150003A814B815C810E94F31823E333E345E637
:1011600052E40E94191BED85FE8560877187828796
:10117000938720E030E040E050ECC301B2010E94D0
:10118000191B69837A838B839C839B01AC01C50106
:10119000B4010E94191B6D837E838F8398872985F4
:1011A0003A854B855C85C701B6010E94191B9B01DE
:1011B000AC016D817E818F8198850E9459180E94B3
:1011C000C51823E333E345E652E40E94191BED857D
:1011D000FE856483758386839783A7019601C70183
:1011E000B6010E9459186D837E838F839887298169
:1011F0003A814B815C81C301B2010E94191B698352
:101200007A838B839C832D813E814F815885C701D2
:10121000B6010E94191B9B01AC0169817A818B8107
:101220009C810E94581820E030E040E85FE30E9473
:1012300059186B017C012D813E814F815885C50174
:10124000B4010E94191B4B015C0129853A854B852D
:101250005C85C301B2010E94191B9B01AC01C50151
:10126000B4010E945918A70196010E94F31823E3C4
:1012700033E345E652E40E94191BED85FE85608349
:101280007183828393832E960FB6F894DEBF0FBED0
:10129000CDBFDF91CF91FF90EF90DF90CF90BF90C7
:1012A000AF909F908F907F906F905F904F90089538
:1012B0004F925F926F927F92AF92BF92CF92DF92E6
:1012C000EF92FF920F931F93CF93DF938C01EB016B
:1012D00080ED0E94C9178BE30E94051881ED0E94E2
:1012E0009A170E941C18F82E0E941C186F2D70E08F
:1012F000762F6627682B072E000C880B990B0E940F
:10130000011AF80160837183828393830E941C1801
:10131000F82E0E941C186F2D70E0762F6627682B20
:10132000072E000C880B990B0E94011AF8016483A8
:101330007583868397830E941C18F82E0E941C18C0
:101340006F2D70E0762F6627682B072E000C880B18
:10135000990B0E94011AF801608771878287938731
:101360000E941C18F82E0E941C186F2D70E0762F1A
:101370006627682B072E000C880B990B0E94011A18
:10138000609335027093360280933702909338024F
:101390000E941C18F82E0E941C186F2D70E0762FEA
:1013A0006627682B072E000C880B990B0E94011AE8
:1013B000688379838A839B830E941C18F82E0E947D
:1013C0001C186F2D70E0762F6627682B072E000CF7
:1013D000880B990B0E94011A6C837D838E839F83F7
:1013E0000E941C18F82E0E9427186F2D70E0762F8F
:1013F0006627682B072E000C880B990B0E94011A98
:10140000688779878A879B870E94C0170F2EF9E328
:10141000EF2EF2E0FF2EF02D0F2EF5E4CF2EF2E0AE
:10142000DF2EF02D0F2EF5E4AF2EF2E0BF2EF02DC3
:10143000F70141905190619071907F0120E030E080
:1014400040E051E4F80160817181828193810E94C2
:10145000191B2DEC3CEC4CE151E40E94191B20E0DF
:1014600030E040E058E30E94191BA30192010E9462
:101470005818F80161937193819391938F01F6014C
:1014800041905190619071906F0120E030E04AE707
:1014900054E4688179818A819B810E94191B20E034
:1014A00030E040E058E30E94191B20E030E044E3C4
:1014B00053E40E94571923EC35EF48E450E40E94AE
:1014C000191BA30192010E9458186993799389937B
:1014D0009993EA14FB0409F0ABCFDF91CF911F91F0
:1014E0000F91FF90EF90DF90CF90BF90AF907F90E3
:1014F0006F905F904F9008952F923F924F925F921E
:101500006F927F928F929F92AF92BF92CF92DF9213
:10151000EF92FF920F931F93CF93DF9300D000D0F1
:10152000CDB7DEB71C0169837A83812C912C5C01D5
:101530008CE0A80EB11C69817A81C1010E94580912
:1015400071010F2EFCE86F2EF1E07F2EF02DC98087
:10155000DA800F2EF0E84F2EF1E05F2EF02D8201A1
:101560007C826B82F70121913191419151917F01F0
:10157000EB81FC8160817181828193810E94591885
:10158000EB81FC816193719381939193FC83EB8355
:10159000F60121913191419151916F01F8016081E2
:1015A0007181828193810E945918F801619371932E
:1015B000819391938F01EA14FB04A1F6FFEF8F1A38
:1015C0009F0A88EE881683E0980609F0B4CF09E3F5
:1015D00012E0E5E4F2E0FC83EB830F2EF8E9EF2E56
:1015E000F1E0FF2EF02DF3016191719181919191C4
:1015F0003F0120E030E04AE754E40E945719F80127
:1016000061937193819391938F01F2016191719133
:10161000819191912F0120E030E04AE754E40E944B
:101620005719EB81FC816193719381939193FC83B2
:10163000EB836E147F04B9F620E030E040E251E421
:101640006091410270914202809143029091440264
:101650000E945818609341027093420280934302A3
:10166000909344020F900F900F900F90DF91CF91C5
:101670001F910F91FF90EF90DF90CF90BF90AF90B0
:101680009F908F907F906F905F904F903F902F90A2
:1016900008958BE792E90197F1F700C0000080ED13
:1016A0000E94C9178BE60E94051881E00E94051868
:1016B0000E94C01780ED0E94C9178AE10E94051898
:1016C00085E00E9405180E94C01780ED0E94C9178E
:1016D0008BE10E94051880E10E9405180E94C01746
:1016E00080ED0E94C9178CE10E94051880E10E94DC
:1016F00005180E94C01780ED0E94C91788E30E9458
:10170000051881E00E9405180E94C01780ED0E9414
:10171000C91789E10E94051887E00E9405180E94F8
:10172000C0176AE071E086E191E00E947C0A0895AA
:10173000CF93DF93EC010E944212CE010E949F1FC3
:10174000EC010E941113209711F40E94D60BCE01D8
:10175000DF91CF910895CF93DF93009741F0EC0193
:101760000E944212CE010E9437200E941113DF9185
:10177000CF9108958FE380937E0080B7877F80BFED
:1017800080B7806880BF83B7817F83BF0FB6F8942E
:101790000F9283B7816083BF85B7806685BF8F7DD9
:1017A00085BF0F900FBE889513BE0895259A2D9A78
:1017B00083ED90E30197F1F700C000001D9AF8CF88
:1017C000259A2D9A2FE78AE196E02150804090409B
:1017D000E1F700C000001D9AF5CFFC01039692834B
:1017E00081832FEF3FEF3483238396838583908714
:1017F000878310820895FC01118610860895CF9387
:10180000DF939C01FB01DC011196CD91DC911297D5
:10181000D383C2838C819D81958384838C819D81B8
:10182000DC0113967C936E9312977D836C833187D2
:101830002087F90180818F5F8083DF91CF910895A8
:10184000CF93DF93EB01488159814F3F2FEF520730
:1018500021F4FC01A781B0850DC0DC01139601C005
:10186000DF011296ED91FC9113972081318142178F
:101870005307B0F71296ED91FC911397FB83EA831F
:10188000D583C483BD83AC831396DC93CE93129728
:1018900099878887FC0120812F5F2083DF91CF917A
:1018A0000895CF93DF93FC01A085B185C281D381D8
:1018B000848195819D838C83C481D581828193812C
:1018C0009B838A8311968D919C911297E817F90753
:1018D00031F48481958112969C938E931197118691
:1018E00010868C9181508C938C91DF91CF910895CB
:1018F000FC0160833197708331971082319720E823
:101900002083319710827797408331975083839754
:101910000895A89590EC88E10FB6F894A895809367
:1019200060000FBE90936000A091FD01B091FE0198
:10193000CD91CDBFDD91DEBFFF91EF91DF91CF91D2
:10194000BF91AF919F918F917F916F915F914F91D7
:101950003F912F911F910F91FF90EF90DF90CF90CB
:10196000BF90AF909F908F907F906F905F904F90BF
:101970003F902F901F900F900FBE0F90089581E021
:1019800008950F920FB6F8940F921F9211242F9280
:101990003F924F925F926F927F928F929F92AF92FF
:1019A000BF92CF92DF92EF92FF920F931F932F93EC
:1019B0003F934F935F936F937F938F939F93AF93D7
:1019C000BF93CF93DF93EF93FF93A091FD01B0916D
:1019D000FE010DB60D920EB60D920E94D213A0918B
:1019E000FD01B091FE01CD91CDBFDD91DEBFFF9134
:1019F000EF91DF91CF91BF91AF919F918F917F91A7
:101A00006F915F914F913F912F911F910F91FF9097
:101A1000EF90DF90CF90BF90AF909F908F907F908E
:101A20006F905F904F903F902F901F900F900FBE40
:101A30000F9008950F920FB6F8940F921F921124F1
:101A40002F923F924F925F926F927F928F929F92CE
:101A5000AF92BF92CF92DF92EF92FF920F931F93BC
:101A60002F933F934F935F936F937F938F939F93A6
:101A7000AF93BF93CF93DF93EF93FF93A091FD01BB
:101A8000B091FE010DB60D920EB60D9213BE0E94DE
:101A9000521281110E94D213A091FD01B091FE015A
:101AA000CD91CDBFDD91DEBFFF91EF91DF91CF9161
:101AB000BF91AF919F918F917F916F915F914F9166
:101AC0003F912F911F910F91FF90EF90DF90CF905A
:101AD000BF90AF909F908F907F906F905F904F904E
:101AE0003F902F901F900F900FBE0F9008950E946F
:101AF0001A0D18950FB6F8940F92FC01928D0F9065
:101B00000FBE81E0911180E008950F931F93CF9352
:101B1000DF93EC01042F1A8D4C8D41110CC088818C
:101B20009981892B09F042C08C819D810E941915F1
:101B30001D821C8242C0011117C050E08A819B8126
:101B40000E94A3212C8D8A819B81820F911D9B83F2
:101B50008A832C813D818217930750F18881998176
:101B60009B838A8380E029C050E08E819F810E9400
:101B7000A3218C8D90E09195819591092E813F81D3
:101B8000280F391F3F832E83488159812417350739
:101B900030F42C813D81820F931F9F838E8302300E
:101BA00049F4112349F0115080E007C080E005C0DE
:101BB00080E003C080E001C080E01F5F1A8FDF91EA
:101BC000CF911F910F910895FC01448D4423A9F0FA
:101BD00050E026813781240F351F37832683848187
:101BE00095812817390720F080819181978386831A
:101BF000CB01668177810E94A3210895EF92FF9225
:101C00000F931F93CF938C010FB6F8940F92FC01A2
:101C1000C68D1C16ACF48189811106C011C0F80173
:101C20008189811105C00CC07801F1E1EF0EF11C32
:101C3000C7010E947E1481110E940715C15079F7D7
:101C40008FEFF801868F0F900FBE0FB6F8940F92AA
:101C5000C58D1C16ACF48085811106C011C0F80139
:101C60008085811105C00CC07801F8E0EF0EF11CF1
:101C7000C7010E947E1481110E940715C15079F797
:101C80008FEFF801858F0F900FBECF911F910F91AD
:101C9000FF90EF900895CF93DF93EC010FB6F89487
:101CA0000F92E881F9818B8D2C8D90E030E0829F3E
:101CB000A001839F500D929F500D11244E0F5F1F66
:101CC0005D834C831A8EFB83EA830197829FA00178
:101CD000839F500D929F500D1124CF01840F951FAB
:101CE0009F838E838FEF8D8F8E8F61110CC08885BF
:101CF000882389F0CE0108960E947E14882359F02B
:101D00000E94C10C08C0CE0108960E94ED0BCE01C6
:101D100041960E94ED0B0F900FBE81E0DF91CF91B5
:101D200008950F931F93CF93DF93082F162F869F4D
:101D3000C00111244F960E94980BEC01009771F09E
:101D4000111103C09983888303C04F9699838883B8
:101D50000B8F1C8F61E0CE010E944B0ECE01DF91F4
:101D6000CF911F910F9108959F92AF92BF92CF9202
:101D7000DF92EF92FF920F931F93CF93DF9300D0E8
:101D800000D01F92CDB7DEB78C016B015D834C8311
:101D9000A22EB12C992493947C0188E0E80EF11CCA
:101DA0000FB6F8940F92F801928D838D981718F062
:101DB000F2E0AF1219C04A2DB601C8010E94850D8C
:101DC000F8019189992349F0C80141960E947E1437
:101DD000882331F00E94C10C03C081110E94C10C04
:101DE0000F900FBE81E050C08C819D81892B21F422
:101DF0000F900FBE80E048C0B11005C0CE01019623
:101E00000E94C614B92C0F900FBE0E9442120FB64A
:101E1000F8940F92F801858D8F3F09F4158EF80123
:101E2000868D8F3F09F4168E0F900FBEBE016C5F3A
:101E30007F4FCE0101960E94D11481111FC00FB6B1
:101E4000F8940F92F801928D838D0F900FBE981326
:101E50000FC06C817D81C7010E945314C8010E948C
:101E6000FE0D0E94111381119BCF0E94C10C98CFCF
:101E7000C8010E94FE0D0E94111392CFC8010E945A
:101E8000FE0D0E94111380E00F900F900F900F90A5
:101E90000F90DF91CF911F910F91FF90EF90DF9006
:101EA000CF90BF90AF909F900895EF92FF920F93C5
:101EB0001F93CF93DF938A01FC01528D338D53170B
:101EC00010F0223001F5422F7801EC011E8D8A8D31
:101ED000CE010E94850D1F3F81F489898823A9F0D6
:101EE000CE0141960E947E14882389F0E114F1040A
:101EF00081F081E0F70180830DC0FF24F394F10E9F
:101F0000FE8E81E007C080E005C081E003C081E073
:101F100001C081E0DF91CF911F910F91FF90EF9071
:101F200008959F92AF92BF92CF92DF92EF92FF926D
:101F30000F931F93CF93DF9300D000D01F92CDB7A4
:101F4000DEB78C015B015D834C83E12C9924939473
:101F50006C0181E1C80ED11C0FB6F8940F92F80104
:101F6000F28CFF20A9F0B501C8010E94E40DFA949B
:101F7000F801F28E8085882339F0C80108960E9406
:101F80007E1481110E94C10C0F900FBE81E051C0E0
:101F90008C819D81892B21F40F900FBE80E049C078
:101FA000E11005C0CE0101960E94C614E92C0F90E5
:101FB0000FBE0E9442120FB6F8940F92F801858D61
:101FC0008F3F09F4158EF801868D8F3F09F4168E28
:101FD0000F900FBEBE016C5F7F4FCE0101960E9435
:101FE000D11481111AC0C8010E947A0D882379F09A
:101FF0006C817D81C6010E945314C8010E94FE0DB0
:102000000E9411138111A8CF0E94C10CA5CFC80155
:102010000E94FE0D0E9411139FCFC8010E94FE0D69
:102020000E941113C8010E947A0D882309F494CFED
:1020300080E00F900F900F900F900F90DF91CF9155
:102040001F910F91FF90EF90DF90CF90BF90AF90D6
:102050009F900895CF93DF93EC010FB6F8940F9201
:102060008D8D8F3F09F41D8E8E8D8F3F09F41E8E4E
:102070000F900FBE8A8D811104C0CE0141960E943F
:102080006514CE010E94FE0DDF91CF910895E0917D
:10209000C501F091C6018081811107C08FEF9FEFCC
:1020A00090939C0180939B010895E091C501F0916C
:1020B000C6010580F681E02D0680F781E02D828142
:1020C000938190939C0180939B010895FF920F93BD
:1020D0001F93CF93DF93EC01F62E0091A401109192
:1020E000A5018091FD019091FE0102960E94510C84
:1020F000CF3F8FEFD80769F4FF2059F06091FD01C1
:102100007091FE016E5F7F4F87EA91E00E94FF0BA6
:102110002FC0C00FD11FE091FD01F091FE01D383CC
:10212000C283C017D10768F46091FD017091FE0170
:102130008091C3019091C4016E5F7F4F0E94200C7B
:1021400017C06091FD017091FE018091C5019091D1
:10215000C6016E5F7F4F0E94200C80919B01909181
:102160009C01C817D90720F4D0939C01C0939B0110
:10217000DF91CF911F910F91FF90089501EB11E036
:102180000F2EF9EDEF2EF1E0FF2EF02D8091B00132
:10219000882329F10FB6F8940F92D8011596ED9186
:1021A000FC911697C681D781CE0102960E94510CF0
:1021B0008091A60181508093A6018091B001815049
:1021C0008093B0010F900FBE8F89988D0E94AB0B4A
:1021D000CE010E94AB0B8091B0018111DBCFF701E2
:1021E0008081823010F00E94C10C0E94BA0BCECFC9
:1021F0004F925F926F927F928F929F92AF92BF9217
:10220000CF92DF92EF92FF920F93CF93DF934C0127
:102210006B015A012901CA010E94980B3C01892BCC
:1022200009F4F1C088E290E00E94980BEC01892B40
:1022300099F0788E6F8AA50165EA70E0C3010E946B
:10224000AC2181E0A81AB1088F89988DA80EB91E1B
:10225000C114D10429F420C0C3010E94AB0BD3C028
:10226000D6018C91898F8C918823A1F0AE01465EB6
:102270005F4FF6013196B8E0CB0ED11CCF01219112
:10228000DA012D93AD01DC018C91882319F0EC1556
:10229000FD05A1F718A201C0198E043008F003E073
:1022A0000E8B09A31AA26E01B2E0CB0ED11CC6019F
:1022B0000E94FB0BCE010C960E94FB0BD987C887AE
:1022C00084E090E0801B91099D878C87DB8BCA8B13
:1022D0001BA21CA21DA21EA21FA2A201B401C50125
:1022E0000E94780C99838883E114F10419F0F701B6
:1022F000D183C0830FB6F8940F928091A6018F5FAF
:102300008093A6018091FD019091FE01892BD1F56A
:10231000D093FE01C093FD018091A601813009F0A8
:1023200041C089ED91E00E94ED0B82EE91E00E94A8
:10233000ED0B8BEE91E00E94ED0B84EF91E00E949B
:10234000ED0B80ED91E00E94ED0B87EC91E00E9497
:10235000ED0B8AEB91E00E94ED0B81EB91E00E9486
:10236000ED0B87EA91E00E94ED0B80ED91E09093F8
:10237000C6018093C50187EC91E09093C4018093DE
:10238000C30110C08091A20181110CC0E091FD0138
:10239000F091FE0196898E89891720F0D093FE0175
:1023A000C093FD0180919D018F5F80939D018E8977
:1023B0009091A301981710F48093A30190E09C01E1
:1023C000220F331F220F331F220F331F820F931F41
:1023D000B60187529E4F0E94FF0B0F900FBE809157
:1023E000A201882361F0E091FD01F091FE01968940
:1023F0008E89981730F40E94C10C81E005C081E0FD
:1024000003C081E001C08FEFDF91CF910F91FF906A
:10241000EF90DF90CF90BF90AF909F908F907F9084
:102420006F905F904F900895EF92FF920F930F2E51
:10243000F9E9EF2EF1E0FF2EF02D00E020E030E092
:1024400045E550E062E471E08EEB90E10E94F81007
:102450008130A1F40E94B115813081F4F8948FEF9E
:102460009FEF90939C0180939B0181E08093A20158
:102470001092A5011092A4010E94890C0F91FF9067
:10248000EF900895809198018F5F8093980108954F
:102490000FB6F8940F928091A4019091A5010F902E
:1024A0000FBE0895CF92DF92EF92FF920F931F938A
:1024B000CF93DF938091980181119FC0E090A40198
:1024C000F090A5018FEFE81AF80AF092A501E092CA
:1024D000A401E114F104B9F48091C5019091C60101
:1024E0002091C3013091C4013093C6012093C501EE
:1024F0009093C4018093C30180919E018F5F80936C
:102500009E010E94471080919B0190919C01E816CA
:10251000F90610F4D12C53C0D12CCC24C394E091F3
:10252000C501F091C6018081811107C08FEF9FEF37
:1025300090939C0180939B0142C0E091C501F09172
:10254000C6010580F681E02DC681D7818A819B81F5
:10255000E816F90628F490939C0180939B012FC004
:102560008E010E5F1F4FC8010E94510C8C899D89FE
:10257000892B21F0CE010C960E94510C8E899091EE
:10258000A301981710F48093A30190E09C01220FFF
:10259000331F220F331F220F331F820F931FB801E7
:1025A00087529E4F0E94FF0BE091FD01F091FE01CA
:1025B0009E898689981708F4B2CFDC2CB0CFE091C1
:1025C000FD01F091FE01868990E0FC01EE0FFF1FF6
:1025D000EE0FFF1FEE0FFF1F8E0F9F1FFC01E75234
:1025E000FE4F8081823010F0DD24D39480919F01D2
:1025F000882369F0DD24D3940AC08091A0019091D2
:10260000A10101969093A1018093A001D12C8D2D61
:10261000DF91CF911F910F91FF90EF90DF90CF90BE
:102620000895DF92EF92FF920F931F93CF93DF9362
:102630000FB6F8940F928091980181508093980181
:1026400080919801811163C08091A601811133C0EE
:1026500061C0D7011596ED91FC911697C681D7817F
:10266000CE010C960E94510C8E010E5F1F4FC801C7
:102670000E94510C8E899091A301981710F48093B9
:10268000A30190E09C01220F331F220F331F220F62
:10269000331F820F931FB80187529E4F0E94FF0B7A
:1026A000E091FD01F091FE019E898689981768F0FE
:1026B000D0929F010AC0C0E0D0E00F2EFAEBEF2EBF
:1026C000F1E0FF2EF02DDD24D394F70180818111FC
:1026D000C0CFCD2B11F00E944710C091A001D09126
:1026E000A101209761F011E00E9452128111109314
:1026F0009F012197C9F71092A1011092A00180912A
:102700009F01882331F00E94C10C81E003C080E06A
:1027100001C080E00F900FBEDF91CF911F910F910C
:10272000FF90EF90DF9008950F931F93CF93DF9367
:102730008C01EB010E9442124091A4015091A5012D
:10274000F80120813181C9018C0F9D1F4217530769
:1027500048F482179307E8F4918380834817590758
:1027600068F407C08217930780F04817590768F08C
:1027700010C060E0841B950B0E9466100E9411132C
:1027800081110BC00E94C10C08C0F80191838083A5
:10279000F0CFF80191838083F1CFDF91CF911F912A
:1027A0000F91089580919801882321F081E0809312
:1027B0009F01089510929F01A091FD01B091FE012B
:1027C000E091FD01F091FE012D913C918789908D62
:1027D0008217930760F06091FD017091FE01809176
:1027E000FD019091FE01675E7F4F0E94E00B2091FA
:1027F000A301822F90E0FC01EE0FFF1FEE0FFF1FE1
:10280000EE0FFF1FE80FF91FE752FE4F3081311125
:1028100011C02150822F90E0FC01EE0FFF1FEE0F40
:10282000FF1FEE0FFF1FE80FF91FE752FE4F308129
:10283000332379F3AC01440F551F440F551F440F48
:10284000551F480F591FDA01A752BE4F1196ED913F
:10285000FC9112970280F381E02D1296FC93EE9387
:10286000119744525E4FE417F50729F442815381D2
:10287000FD0152834183FC01EE0FFF1FEE0FFF1F8E
:10288000EE0FFF1F8E0F9F1FFC01E752FE4F0180CE
:10289000F281E02D868197819093FE018093FD0166
:1028A0002093A3010895CF93DF93EB016091FD0185
:1028B0007091FE01645F7F4F0E94200C61E0CE01A9
:1028C0000E946610DF91CF9108950F931F93CF93CD
:1028D0008B01C42F6091FD017091FE01645F7F4FF9
:1028E0000E94FF0BCC2311F00FEF1FEF6C2FC801DC
:1028F0000E946610CF911F910F9108950F931F931F
:10290000CF93DF93DC011596ED91FC911697C6816C
:10291000D7818E01045F1F4FC8010E94510C809126
:10292000980181111CC00A501109C8010E94510C64
:102930008E899091A301981710F48093A30190E0E1
:102940009C01220F331F220F331F220F331F820FD0
:10295000931FB80187529E4F0E94FF0B05C0B8011C
:102960008AEB91E00E94FF0BE091FD01F091FE01E6
:102970009E898689891720F481E080939F0101C098
:1029800080E0DF91CF911F910F91089520919E01DA
:10299000FC0120832091A4013091A5013283218381
:1029A0000895CF93DF930FB6F8940F922091A4016E
:1029B0003091A501DB014D915C914F3FBFEF5B076B
:1029C000F1F0EC01E981FA81A0919E01B881BA177A
:1029D00019F02E173F07A8F42E1B3F0B24173507BD
:1029E00048F4FB01421B530B518340830E94C614E1
:1029F00080E008C0FB011182108281E003C080E00A
:102A000001C081E00F900FBEDF91CF91089581E06A
:102A100080939F0108958091A201882331F08091D5
:102A20009801882321F080E0089581E0089582E0F4
:102A300008950F931F93CF93DF93FC01892B79F1B6
:102A400082A1815082A3268991A1291751F1811178
:102A50002AC0EF018F010E5F1F4FC8010E94510C69
:102A600089A18E8B24E030E0281B31093D872C871B
:102A70009091A301981710F48093A30190E09C011A
:102A8000220F331F220F331F220F331F820F931F7A
:102A9000B80187529E4F0E94FF0B81E005C080E085
:102AA00003C080E001C080E0DF91CF911F910F91C2
:102AB0000895FC01738362839187808746175707C7
:102AC00090F0421B530B8485958548175907E0F415
:102AD000BF016E5F7F4F80910502909106020E94B8
:102AE000200C80E008954217530718F4621773070B
:102AF00068F4BF016E5F7F4F8091070290910802DA
:102B00000E94200C80E0089581E0089581E00895FE
:102B10000FB6F8940F928091030290910402892BD2
:102B2000E9F482E192E00E94ED0B89E092E00E94DC
:102B3000ED0B82E192E0909308028093070289E016
:102B400092E0909306028093050240E065E08AE0FF
:102B50000E94910E90930402809303020F900FBE87
:102B60000895EF92FF920F930E94881580910302BF
:102B700090910402892B91F00F2EF1E0EF2EF2E0FC
:102B8000FF2EF02D03E020E030E045E550E067E463
:102B900071E08BE896E10E94F81001C080E00F918F
:102BA000FF90EF9008950F931F93CF93DF9300D082
:102BB00000D01F92CDB7DEB7E0910302F09104027E
:102BC000309771F1D90169835B834A839D838C833C
:102BD0006630ECF40E940B15823061F420E0A8010D
:102BE000BE016F5F7F4F80910302909104020E94AB
:102BF000B40E17C020E040E050E0BE016F5F7F4F91
:102C000080910302909104020E94B40E0AC020E059
:102C1000AD01BE016F5F7F4FCF010E94550F01C014
:102C200080E00F900F900F900F900F90DF91CF9159
:102C30001F910F910895AF92BF92CF92DF92EF92C2
:102C4000FF920F931F93CF93DF936C010E94481262
:102C50007C018091FF0190910002E816F90608F0CE
:102C600048C030C00580F681E02DA080B180C681CB
:102C7000D7818E010E5F1F4FC8010E94510CE88959
:102C8000F989CE0109958A8982FF1CC08C859D85B2
:102C90008A0D9B1DA816B90660F49B838A83D98789
:102CA000C887B80180910702909108020E94200C09
:102CB00009C000E010E020E030E0A50160E0CE01B6
:102CC0000E94D315E0910702F091080280818111E2
:102CD000C9CF8091050290910602909308028093DB
:102CE0000702F0930602E093050281E0F60180837B
:102CF00002C0F6011082F0920002E092FF01C701CB
:102D0000DF91CF911F910F91FF90EF90DF90CF90C7
:102D1000BF90AF900895CF93DF9300D000D000D044
:102D2000CDB7DEB7CE0101964C0144244394E12C8B
:102D3000F12C512CC82ED92CE0910702F0910802F9
:102D40008081882309F4DCC00580F681E02DA08015
:102D5000B1800E944212C4010E941B168C0189811D
:102D600081114BC00A151B05B8F10E941113E091A7
:102D70000702F09108020580F681E02D66807780D9
:102D8000C30102960E94510CD30152968C91529726
:102D900082FF17C01C966D917C911D976A0D7B1D5B
:102DA0009501A801C3010E945915882369F00E2DD1
:102DB0001F2D2E2D3F2DA501652DC3010E94D3157A
:102DC00003C08E7FF301828BD3015096ED91FC916D
:102DD0005197C301099587C0452DB501601B710B43
:102DE00080910302909104020E942A100E94111304
:102DF000811179C00E94C10C76C00E94111373C06A
:102E0000898188230CF46FC0AC80BD80F501828578
:102E10009385892B21F0C50102960E94510CCE01A9
:102E200006960E941B16E9810E2E000CFF0BEA305D
:102E3000F10508F058C0EC5CFF4F0C94621FD501FF
:102E400052962C915297216052962C9352972A8138
:102E50003B811C966D917C911D97620F731FAC0195
:102E6000C5010E9459158823F1F1D5015096ED91C5
:102E7000FC915197C5010995F501828982FF33C004
:102E80004A815B8184859585480F591F0E2D1F2D22
:102E90002E2D3F2D652DC5010E94D31524C0D501CF
:102EA00052968C9152978E7F52968C931CC0F5014E
:102EB00022892160228B6A817B8175876487680FF4
:102EC000791F9C01AC01C5010E9459150CC0D501A8
:102ED00052968C9181FD04C0C5010E94AB0B03C0CA
:102EE0008E7FF501828B4E2D5F2D6C2D7D2D809177
:102EF0000302909104020E94910F811181CF1CCF97
:102F00000E944212C4010E941B168C01898181110A
:102F100074CFE0910502F09106028081442D811169
:102F2000452DAE2CBF2C59CF1092B90088E4809368
:102F3000B800089594EA9093BC00ECEBF0E0908127
:102F40009923ECF79091B900987F903199F4809390
:102F5000BB0084E88093BC00ECEBF0E08081882328
:102F6000ECF78091B900887F803431F0803231F005
:102F700083E0089580E0089581E0089582E0089557
:102F800084E98093BC00ECEBF0E0808184FDFDCF10
:102F90000895BF92CF92DF92EF92FF920F931F930B
:102FA000CF93DF93B82ECCEBD0E00F2EF4EADF2ED8
:102FB000F02D09EB10E00F2EFBEBEF2EF12CF02D96
:102FC0000F2EF4E8CF2EF02DD88288818823ECF7DD
:102FD000F8018081887F8830B9F7F701B082C88214
:102FE00088818823ECF7F8018081887F883119F087
:102FF0000E94C017E9CFDF91CF911F910F91FF90F1
:10300000EF90DF90CF90BF9008958093BB0084E84D
:103010008093BC00ECEBF0E080818823ECF780919A
:10302000B900887F883221F0803321F082E0089552
:1030300080E0089581E0089584EC8093BC00ECEB7F
:10304000F0E080818823ECF78091BB00089584E84C
:103050008093BC00ECEBF0E080818823ECF780915A
:10306000BB0008959093C5008093C40088E18093CD
:10307000C100E2ECF0E080818860808386E080839C
:103080000895E0ECF0E0908195FFFDCF8093C600BD
:103090000895CF93DF93EC018881882331F0219646
:1030A0000E94411889918111FBCFDF91CF91089542
:1030B0005058BB27AA270E9470180C94D21A0E945D
:1030C000C41A38F00E94CB1A20F039F49F3F19F44B
:1030D00026F40C94861A0EF4E095E7FB0C94801A03
:1030E000E92F0E94E31A58F3BA176207730784079F
:1030F000950720F079F4A6F50C94051B0EF4E095E5
:103100000B2EBA2FA02D0B01B90190010C01CA01A1
:10311000A0011124FF27591B99F0593F50F4503E4C
:1031200068F11A16F040A22F232F342F4427585F3E
:10313000F3CF469537952795A795F0405395C9F756
:103140007EF41F16BA0B620B730B840BBAF091500E
:10315000A1F0FF0FBB1F661F771F881FC2F70EC0AD
:10316000BA0F621F731F841F48F487957795679580
:10317000B795F7959E3F08F0B0CF9395880F08F06C
:103180009927EE0F9795879508959F939F77EEE384
:1031900089379E0728F4ECE7F0E00E94B01A0CC0D3
:1031A0000E943C1A9058A2EA2AED3FE049EC5FE306
:1031B0000E9470180E94D21A0F9007FC9058089530
:1031C0000E94C41A60F080E891E009F49EEF0E942A
:1031D000CB1A28F040E851E071F45EEF0CC00C947B
:1031E000861A0C94051BE92FE0780E94E31A40F33D
:1031F000092E052AB1F3261737074807590738F073
:103200000E2E07F8E02569F0E025E0640AC0EF63C0
:1032100007F8009407FADB01B9019D01DC01CA013E
:10322000AD01EF930E946E190E94D21A0E942319D9
:103230005F91552339F02BED3FE049E450FD49EC17
:103240000C9459180895DF93DD27B92FBF7740E814
:103250005FE31616170648075B0718F4D92F0E947C
:10326000111B9F938F937F936F930E94CC1BE0E978
:10327000F0E00E94891A0E94D21A2F913F914F913B
:103280005F910E942C1BDD2351F09058A2EA2AED99
:103290003FE049EC5FE3D0785D270E947018DF9132
:1032A0000C94D21A0E945C1A08F481E008950E94DE
:1032B0006B190C94D21A0E94CB1A58F00E94C41AAF
:1032C00040F029F45F3F29F00C94801A51110C94BE
:1032D000061B0C94861A0E94E31A68F39923B1F333
:1032E000552391F3951B550BBB27AA27621773072C
:1032F000840738F09F5F5F4F220F331F441FAA1FC0
:10330000A9F335D00E2E3AF0E0E832D0915050407B
:10331000E695001CCAF72BD0FE2F29D0660F771F29
:10332000881FBB1F261737074807AB07B0E809F00F
:10333000BB0B802DBF01FF2793585F4F3AF09E3F94
:10334000510578F00C94801A0C94061B5F3FE4F34F
:10335000983ED4F3869577956795B795F7959F5FD7
:10336000C9F7880F911D9695879597F90895E1E023
:10337000660F771F881FBB1F621773078407BA0782
:1033800020F0621B730B840BBA0BEE1F88F7E095DD
:1033900008950E94D0196894B1110C94061B0895E9
:1033A0000E94EB1A88F09F5798F0B92F9927B751D0
:1033B000B0F0E1F0660F771F881F991F1AF0BA95D9
:1033C000C9F714C0B13091F00E94051BB1E0089517
:1033D0000C94051B672F782F8827B85F39F0B93F09
:1033E000CCF3869577956795B395D9F73EF490958C
:1033F0008095709561957F4F8F4F9F4F0895E8940A
:1034000009C097FB3EF490958095709561957F4F2C
:103410008F4F9F4F9923A9F0F92F96E9BB279395DA
:10342000F695879577956795B795F111F8CFFAF4EA
:10343000BB0F11F460FF1BC06F5F7F4F8F4F9F4F1B
:1034400016C0882311F096E911C0772321F09EE879
:10345000872F762F05C0662371F096E8862F70E0DF
:1034600060E02AF09A95660F771F881FDAF7880FB9
:103470009695879597F90895DF93CF931F930F93B0
:103480008B01EC01EDEBF0E00E94891A0E94D21A48
:103490009801AE018B01EC0160E070E080E89FE3F1
:1034A0000E9458180E948C1B9801AE010F911F9129
:1034B000CF91DF910C942C1B990F0008550FAA0B8C
:1034C000E0E8FEEF16161706E807F907C0F0121637
:1034D0001306E407F50798F0621B730B840B950B3A
:1034E00039F40A2661F0232B242B252B21F408958F
:1034F0000A2609F4A140A6958FEF811D811D08952C
:1035000097F99F6780E870E060E008959FEF80EC96
:103510000895DF93CF931F930F93FF92EF92DF9263
:103520007B018C01689406C0DA2EEF010E942C1BEF
:10353000FE01E894A5912591359145915591A6F309
:10354000EF010E947018FE019701A801DA9469F753
:10355000DF90EF90FF900F911F91CF91DF91089531
:103560009F938F937F936F93FF93EF939B01AC0196
:103570000E94191BEF91FF910E94891A2F913F9190
:103580004F915F910C94191B00240A94161617068C
:1035900018060906089500240A9412161306140644
:1035A00005060895092E0394000C11F4882352F0A7
:1035B000BB0F40F4BF2B11F460FF04C06F5F7F4F5F
:1035C0008F4F9F4F089557FD9058440F551F59F046
:1035D0005F3F71F04795880F97FB991F61F09F3F00
:1035E00079F087950895121613061406551FF2CF29
:1035F0004695F1DF08C0161617061806991FF1CF79
:1036000086957105610508940895E894BB2766279F
:103610007727CB0197F908950E945C1A08F48FEF81
:1036200008959B01AC0160E070E080E89FE30C949A
:1036300057190E942C1B0C94D21A0E94C41A38F0FD
:103640000E94CB1A20F0952311F00C94801A0C9450
:10365000861A11240C94061B0E94E31A70F3959F9E
:10366000C1F3950F50E0551F629FF001729FBB2779
:10367000F00DB11D639FAA27F00DB11DAA1F649F15
:103680006627B00DA11D661F829F2227B00DA11DC8
:10369000621F739FB00DA11D621F839FA00D611D4E
:1036A000221F749F3327A00D611D231F849F600D6F
:1036B000211D822F762F6A2F11249F5750409AF098
:1036C000F1F088234AF0EE0FFF1FBB1F661F771F24
:1036D000881F91505040A9F79E3F510580F00C94EF
:1036E000801A0C94061B5F3FE4F3983ED4F3869552
:1036F00077956795B795F795E7959F5FC1F7FE2B8F
:10370000880F911D9695879597F9089519F416F4E9
:103710000C94861A0C94D01B0E94EB1AB8F39923D0
:10372000C9F3B6F39F57550B87FF0E94DE1B002499
:10373000A0E640EA900180585695979528F4805C61
:10374000660F771F881F20F026173707480730F4C9
:10375000621B730B840B202931294A2BA6951794E1
:103760000794202531254A2758F7660F771F881FB1
:1037700020F026173707480730F4620B730B840BD1
:10378000200D311D411DA09581F7B901842F91585D
:10379000880F9695879508959B01AC010C94191B91
:1037A0009F3F31F0915020F4879577956795B795B5
:1037B000880F911D9695879597F9089591505040DF
:1037C000660F771F881FD2F70895A0E1B0E0EBEEF7
:1037D000FBE10C94681F7C011B016A01FC0117824C
:1037E0001682838181FF44C39E012F5F3F4F3901C1
:1037F000F7019381F10193FD859193FF81911F0161
:10380000882309F431C3853239F493FD859193FF00
:1038100081911F01853239F4B70190E00E94BE21E9
:1038200056016501E5CF10E0512C912CFFE1F9150F
:10383000D8F08B3279F038F4803279F08332A1F409
:10384000F92DF0612EC08D3261F0803369F4292D9D
:1038500021602DC0392D3260932E892D8460982EE1
:103860002AC0E92DE86015C097FC2DC020ED280F77
:103870002A3088F496FE06C03AE0139F200D1124EA
:10388000122F19C08AE0589E200D1124522EE92DC6
:10389000E0629E2E10C08E3231F496FCE5C2F92D06
:1038A000F0649F2E08C08C3621F4292D2068922EBA
:1038B00002C0883641F4F10193FD859193FF819117
:1038C0001F018111B3CF9BEB980F933020F4992DFA
:1038D0009061805E07C09BE9980F933008F066C145
:1038E000992D9F7E96FF16E09F73992E853619F4C9
:1038F0009064992E08C0863621F4392F3068932EB3
:1039000002C01111115097FE07C01C3350F444241B
:103910004394410E27E00BC0183038F027E017E041
:1039200005C027E09CE3492E02C0212F412C5601FF
:1039300084E0A80EB11CF6016081718182819381BF
:10394000042DA3010E94C0206C01F981FC87F0FFC7
:1039500002C0F3FF06C091FC06C092FE06C000E262
:1039600005C00DE203C00BE201C000E08C858C7045
:1039700019F001115AC29BC297FE10C04C0CFC8575
:10398000F4FF04C08A81813309F44A94141474F555
:1039900028E0241578F588E0482E2CC096FC2AC033
:1039A000812F90E08C159D059CF03CEFC3163FEFF6
:1039B000D30674F0892D8068982E0AC0E2E0F0E00A
:1039C000EC0FFD1FE10FF11D8081803319F41150C0
:1039D0001111F4CF97FE0EC044244394410E812F61
:1039E00090E0C816D9062CF41C1904C04424439452
:1039F00001C010E097FE06C01C141D0434F4C6017B
:103A0000019605C085E090E002C081E090E00111E0
:103A10000196112331F0212F30E02F5F3F4F820FAD
:103A2000931F252D30E08217930714F4581A01C014
:103A3000512C892D897049F4552039F0B70180E265
:103A400090E00E94BE215A94F7CF002329F0B701DD
:103A5000802F90E00E94BE2193FC09C0552039F0D0
:103A6000B70180E390E00E94BE215A94F7CF97FE01
:103A70004CC04601D7FE02C0812C912CC60188198A
:103A80009909F301E80FF91FFE87ED8796012419C4
:103A90003109388B2F87012F10E0119501951109FD
:103AA0003FEF8316930629F4B7018EE290E00E945F
:103AB000BE21C814D9044CF08F85988988159905C2
:103AC00024F4ED85FE85818101C080E3F1E08F1A49
:103AD00091082D853E852F5F3F4F3E872D878016AD
:103AE00091062CF0B70190E00E94BE21D9CFC814F6
:103AF000D90441F49A81963320F4953319F43C8526
:103B000034FF81E3B70190E04EC08A81813319F020
:103B10009C859F7E9C87B70190E00E94BE21111179
:103B200005C094FC18C085E690E017C0B7018EE28E
:103B300090E00E94BE211E5F82E001E0080FF301C9
:103B4000E80FF11D8081B70190E00E94BE21802F17
:103B50000113F3CFE6CF85E490E0B7010E94BE21C8
:103B6000D7FC06C0C114D10441F4EC85E4FF05C0C4
:103B7000D194C194D1088DE201C08BE2B70190E0ED
:103B80000E94BE2180E32AE0C216D1042CF08F5F90
:103B9000FAE0CF1AD108F7CFB70190E00E94BE211A
:103BA000B701C601C0960E94BE2154C1833631F0D0
:103BB000833779F0833509F056C020C0560132E0D2
:103BC000A30EB11CF6018081898301E010E063013E
:103BD00012C05601F2E0AF0EB11CF601C080D180D8
:103BE00096FE03C0612F70E002C06FEF7FEFC60149
:103BF0000E94B3218C01F92DFF7714C0560122E0F9
:103C0000A20EB11CF601C080D18096FE03C0612FC8
:103C100070E002C06FEF7FEFC6010E9498218C0117
:103C2000F92DF0689F2EF3FD1AC0852D90E008173E
:103C30001907A8F4B70180E290E00E94BE215A94CF
:103C4000F4CFF60197FC859197FE81916F01B70142
:103C500090E00E94BE2151105A94015011090115A3
:103C6000110579F7F7C0843611F0893661F55601F0
:103C700097FE09C024E0A20EB11CF601608171819B
:103C8000828193810AC0F2E0AF0EB11CF60160811F
:103C90007181072E000C880B990BF92DFF769F2E52
:103CA00097FF09C090958095709561957F4F8F4FD4
:103CB0009F4FF0689F2E2AE030E0A3010E94FA2176
:103CC000C82EC6183FC0092D853721F40F7E2AE083
:103CD00030E01DC0097F8F3691F018F4883559F017
:103CE000C3C0803719F0883711F0BEC0006104FFEF
:103CF00009C0046007C094FE08C0066006C028E042
:103D000030E005C020E130E002C020E132E05601A1
:103D100007FF09C084E0A80EB11CF6016081718123
:103D20008281938108C0F2E0AF0EB11CF601608180
:103D3000718180E090E0A3010E94FA21C82EC6188C
:103D40000F77902E96FE0BC0092D0E7FC11650F4F2
:103D500094FE0AC092FC08C0092D0E7E05C0DC2C22
:103D6000092D03C0DC2C01C0D12E04FF0DC0FE01C3
:103D7000EC0DF11D8081803311F4097E09C002FF32
:103D800006C0D394D39404C0802F867809F0D394CE
:103D900003FD11C000FF06C01C2DD51480F4150DC5
:103DA0001D190DC0D51458F4B70180E290E00E94AF
:103DB000BE21D394F7CFD51410F45D1801C0512C57
:103DC00004FF10C0B70180E390E00E94BE2102FF13
:103DD00017C001FD03C088E790E002C088E590E0CD
:103DE000B7010CC0802F867859F001FF02C08BE22A
:103DF00001C080E207FD8DE2B70190E00E94BE2184
:103E0000C11638F4B70180E390E00E94BE21115042
:103E1000F7CFCA94F301EC0DF11D8081B70190E05A
:103E20000E94BE21C110F5CF15C0F4E0F51560F574
:103E300084E0581A93FE1FC0011127C02C8523FF70
:103E40002AC006EE10E0392D3071932EF8018491CE
:103E5000811124C0552009F4E4CCB70180E290E040
:103E60000E94BE215A94F6CFF7018681978126C021
:103E70008FEF9FEF23C0B70180E290E00E94BE2148
:103E80005A945110F8CFD8CF512CB701802F90E021
:103E90000E94BE21D3CF0AEE10E0D5CF9110805200
:103EA000B70190E00E94BE210F5F1F4FCFCF23E0EC
:103EB000251510F483E0BDCF512CC0CF6096E2E110
:103EC0000C94841FEE0FFF1F0590F491E02D0994D0
:103ED0002F923F924F925F926F927F928F929F921A
:103EE000AF92BF92CF92DF92EF92FF920F931F9308
:103EF000CF93DF93CDB7DEB7CA1BDB0B0FB6F894B9
:103F0000DEBF0FBECDBF09942A88398848885F84F8
:103F10006E847D848C849B84AA84B984C884DF8069
:103F2000EE80FD800C811B81AA81B981CE0FD11D4D
:103F30000FB6F894DEBF0FBECDBFED0108950F930D
:103F40001F93CF93DF938230910510F482E090E0CD
:103F5000E0915302F091540220E030E0A0E0B0E0A4
:103F6000309719F140815181028113814817590717
:103F7000C8F08417950769F4109731F012960C93E6
:103F8000129713961C9327C0009353021093540268
:103F900022C02115310519F04217530718F49A0170
:103FA000BD01EF01DF01F801DBCF21153105F9F08B
:103FB000281B390B2430310580F48A819B816115DF
:103FC000710521F0FB019383828304C09093540216
:103FD00080935302FE01329644C0FE01E20FF31FAC
:103FE0008193919322503109398328833AC02091DB
:103FF000510230915202232B41F420910201309161
:10400000030130935202209351022091000130911C
:1040100001012115310541F42DB73EB7409104014E
:1040200050910501241B350BE0915102F091520291
:10403000E217F307A0F42E1B3F0B2817390778F07F
:10404000AC014E5F5F4F2417350748F04E0F5F1FDE
:1040500050935202409351028193919302C0E0E049
:10406000F0E0CF01DF91CF911F910F910895CF9391
:10407000DF93009709F481C0FC013297138212820A
:10408000A0915302B0915402109781F420813181A4
:10409000820F931F20915102309152022817390745
:1040A00051F5F0935202E093510267C0ED0120E018
:1040B00030E0CE17DF0740F44A815B819E01411555
:1040C0005105F1F0EA01F5CFD383C28340815181DC
:1040D000840F951FC817D90759F488819981840FD7
:1040E000951F0296918380838A819B81938382832B
:1040F0002115310529F4F0935402E09353023DC099
:10410000E901FB83EA8349915991C40FD51FEC174C
:10411000FD0761F480819181840F951F0296E9016A
:1041200099838883828193819B838A83E0E0F0E096
:1041300012968D919C911397009719F0FD01DC0167
:10414000F7CF8D919C9111979D012E5F3F4F820F6C
:10415000931F20915102309152022817390769F4B8
:10416000309729F4109254021092530202C0138225
:104170001282B0935202A0935102DF91CF91089521
:10418000283008F027E03327DA01990F311D87FD29
:10419000916000966105710539F432602E5F3D93A0
:1041A00030E32A95E1F708959F3F30F0803871059C
:1041B000610509F03C5F3C5F3D93913008F08068F9
:1041C000911DDF93CF931F930F93FF92EF92192FBF
:1041D000987F9695E92F96959695E90FFF27E85BCE
:1041E000FE4F99273327EE24FF24A701E70105900E
:1041F0000894079428F4360FE71EF81E491F511D36
:10420000660F771F881F991F0694A1F705900794E2
:1042100028F4E70EF81E491F561FC11D770F881F8F
:10422000991F661F0694A1F70590079428F4F80ECD
:10423000491F561FC71FD11D880F991F661F771F63
:104240000694A1F70590079420F4490F561FC71F45
:10425000D81F990F661F771F881F0694A9F78491AE
:104260001095177041F0D695C79557954795F794D7
:10427000E7941A95C1F7EEEEF0E068941590159169
:1042800035916591959105907FE27395E118F10A5A
:10429000430B560BC90BD009C0F7E10CF11E431FAD
:1042A000561FC91FD01D7EF4703311F48A95E6CFD6
:1042B000E894015030F0080F0AF40027021708F4C0
:1042C000202F2395022F7A3328F079E37D932A95C6
:1042D000E9F710C07D932A9589F60694979567951E
:1042E000379517951794E118F10A430B560BC90B34
:1042F000D00998F023957E9173957A3308F070E396
:104300007C932013B8F77E9170617D9330F0839594
:1043100071E37D9370E32A95E1F71124EF90FF900C
:104320000F911F91CF91DF91992787FD9095089567
:10433000FC010590615070400110D8F78095909570
:104340008E0F9F1F0895FB01DC0102C001900D92AA
:1043500041505040D8F70895DC0101C06D934150A1
:104360005040E0F70895FC01615070400190011049
:10437000D8F7809590958E0F9F1F08950F931F93E8
:10438000CF93DF93FB01238121FD03C08FEF9FEFCC
:104390002CC022FF16C046815781248135814217E7
:1043A000530744F4A081B1819D012F5F3F4F3183BA
:1043B00020838C93268137812F5F3F4F378326835D
:1043C00014C08B01EC01FB010084F185E02D0995FF
:1043D000892BE1F6D80116968D919C91179701963D
:1043E00017969C938E931697CE01DF91CF911F91D4
:1043F0000F910895FA01AA27283051F1203181F157
:10440000E8946F936E7F6E5F7F4F8F4F9F4FAF4FDC
:10441000B1E03ED0B4E03CD0670F781F891F9A1FEF
:10442000A11D680F791F8A1F911DA11D6A0F711DA3
:10443000811D911DA11D20D009F468943F912AE0AF
:10444000269F11243019305D3193DEF6CF01089597
:10445000462F4770405D4193B3E00FD0C9F7F6CFC8
:10446000462F4F70405D4A3318F0495D31FD405290
:10447000419302D0A9F7EACFB4E0A6959795879526
:1044800077956795BA95C9F7009761057105089505
:104490009B01AC010A2E06945795479537952795B1
:1044A000BA95C9F7620F731F841F951FA01D089549
:0444B000F894FFCFAE
:1044B4000000550220000000803F0000803F000003
:1044C400803F0000803F0000803F0000803F0000EC
:1044D400803F496E6974204F4B005441534B410057
:1044E4005441534B42005441534B43005441534BAA
:1044F400440049444C4500546D72205376630000D7
:00000001FF
