:100000000C94F4000C9411010C9411010C94110146
:100010000C9411010C9411010C94000D0C9411011D
:100020000C9411010C9411010C9411010C94110108
:100030000C9411010C9411010C9411010C941101F8
:100040000C9411010C9411010C9411010C941101E8
:100050000C9411010C9411010C9411010C941101D8
:100060000C9411010C941101A816A816A816D81604
:10007000E016F016A816A816D816E016036EDB36A2
:100080003D9A9999993DABAAAA2A3E000000803F6B
:10009000084AD73B3BCE016E84BCBFFDC12F3D6CEF
:1000A00074319ABD56833DDA3D00C77F11BED9E455
:1000B000BB4C3E916BAAAABE000000803F072C7A81
:1000C000A5BA6CC590DA3B9365FC8BBC53F810FD68
:1000D0003C5692834DBD879D3AB63DCBC9BF5BBEB2
:1000E00073DA0FC93F006E616E00696E66000040F2
:1000F0007A10F35A00A0724E18090010A5D4E80037
:1001000000E87648170000E40B54020000CA9A3B4E
:10011000000000E1F50500008096980000004042D4
:100120000F000000A0860100000010270000000062
:10013000E803000000006400000000000A00000066
:1001400000000100000000002C76D888DC674F0812
:1001500023DFC1DFAE59E1B1B796E5E3E453C63A18
:10016000E651997696E8E6C28426EB898C9B62ED8F
:10017000407C6FFCEFBC9C9F40F2BAA56FA5F49049
:10018000055A2AF75C936B6CF9676DC11BFCE0E4C0
:100190000D47FEF520E6B500D0ED902E0300943516
:1001A00077050080841E080000204E0A000000C869
:1001B0000C333333330F986E12831141EF8D2114BA
:1001C000893BE65516CFFEE6DB18D1844B381BF78A
:1001D0007C1D901DA4BBE424203284725E22810029
:1001E000C9F124ECA1E53D2711241FBECFEFD8E0D3
:1001F000DEBFCDBF11E0A0E0B1E0EAE0F4E402C070
:1002000005900D92AC35B107D9F722E0ACE5B1E02D
:1002100001C01D92A935B207E1F70E9413010C94A9
:1002200003220C94000087E690E00E94BB170E9416
:100230001D170E94D20A0E9433010E94A5010E944C
:10024000DA0188E0E2E2F1E0AFE1B2E001900D9284
:100250008A95E1F78FE192E00E94D2170E94DB02BB
:100260000E949D11FFCFF894E4E6F0E080818E7F3C
:100270008083ACE7B0E08C9180648C938C918F7715
:100280008C93EAE7F0E080818460808380818260E3
:1002900080838081816080838C918E7F8C938C9110
:1002A0008D7F8C938C918B7F8C938C91877F8C939B
:1002B000808180628083ABE7B0E08C918E7F8C93ED
:1002C0008C918E7F8C938C918E7F8C93AEE7B0E077
:1002D0008C9181608C938081806880838081806430
:1002E000808378940895BC01990F880B990B0E9424
:1002F0008A192AE737EC41E350E40E94A21A20E071
:1003000030E04AEF52E40E94E2170E9459197093BC
:100310008900609388000895BC01990F880B990BA0
:100320000E948A192AE737EC41E350E40E94A21A9E
:1003300020E030E04AEF52E40E94E2170E9459198F
:1003400070938B0060938A000895F89484B186605E
:1003500084B9109285001092840087E893E190930D
:10036000870080938600E0E8F0E0808180688083E9
:1003700080818F7B808380818062808380818F7E7B
:10038000808380818E7F8083808182608083E1E8AA
:10039000F0E08081886080838081806180838081BB
:1003A0008160808380818260808380818B7F808375
:1003B00078940895F894559A85B5846085BD85B57F
:1003C0008D7F85BD85B5816085BD84B5816084BD27
:1003D00084B5826084BD85B5886085BD8FEF87BD9B
:1003E00087B5869588BD84B5806284BD789408956C
:1003F000CF93DF9300D0CDB7DEB70E94D1119A839F
:10040000898308E710E00F2EF7E2EF2EF02D0F2E74
:10041000FBE0FF2EF02D61E070E0CE0101960E941E
:100420001D13F8016081718180E090E00E948819BD
:100430006093290270932A0280932B0290932C02DE
:1004400028B52B3050F128B5283238F520E030E0BF
:1004500040EA50E40E94A21A20E030E040E85AE36B
:100460000E94A21A4B015C0120E030E0A9010E9429
:10047000DB18811104C088B5815088BDCCCF20E045
:1004800030E040E850E4C501B4010E94DB1881115E
:10049000C2CF88B58F5F88BDBECF88B58B3010F4D2
:1004A000F8BCB9CF88B5883208F4B5CFE8BCB3CF73
:1004B000CF93DF9300D0CDB7DEB70E94D1119A83DE
:1004C00089830F2EF6E18F2EF1E09F2EF02D0F2E57
:1004D000FAE06F2EF1E07F2EF02D61E070E0CE01AA
:1004E00001960E941D13D401AD90BD90CD90DC907B
:1004F0001397F301E084F18402851385248135810B
:100500004681578160817181828193811B96EC9134
:100510001B97EF931A96EC911A97EF931996EC911B
:100520001997EF931896EC911897EF931796EC9113
:100530001797EF931696EC911697EF931596EC910B
:100540001597EF931496EC91EF930E9460048DE25F
:1005500092E00E94A4070FB6F894DEBF0FBECDBF95
:10056000BCCFCF93DF9300D0CDB7DEB70E94D111BF
:100570009A83898361E070E0CE0101960E941D1389
:100580006AE071E086E191E00E94E908F3CFCF9341
:10059000DF9300D0CDB7DEB70E94D1119A83898353
:1005A00061E070E0CE0101960E941D138DE292E0A1
:1005B0000E94A903F5CFEF92FF920F93E12CF12C4B
:1005C00003E020E030E040E051E06AE271E088E5DD
:1005D00092E00E94811002E020E030E040E051E033
:1005E00060E371E081EB92E00E94811001E020E085
:1005F00030E040E051E066E371E087EC92E00E9479
:10060000811004E020E030E040E051E06CE371E074
:1006100088EF91E00E9481100F91FF90EF90089574
:100620008F929F92AF92BF92CF92DF92EF92FF9202
:100630000F931F93CF93DF93CDB7DEB728970FB6F5
:10064000F894DEBF0FBECDBF4B015C01C982DA82D8
:10065000EB82FC820D831E832F8338872FE632E1E5
:1006600043E85AE36D817E818F8198850E94A21AAA
:1006700026E636E645E852E40E94E0186B017C016C
:1006800020E030E040E05FE3C501B4010E94A21A1F
:100690009B01AC01C701B6010E94E2176B017C010E
:1006A00029813A814B815C81C501B4010E94E11727
:1006B00020E030E0A9010E94A21A26E636E645E8CD
:1006C00052E40E94A21A9B01AC01C701B6010E942C
:1006D000E2176B017C0120E030E044EB52E40E9421
:1006E000951A18169CF020E030E044EB52ECC7015C
:1006F000B6010E94DB1888238CF40F2EC12CD12C5C
:10070000F4EBEF2EF2ECFF2EF02D08C00F2EC12CD3
:10071000D12CF4EBEF2EF2E4FF2EF02D20E030E0B0
:1007200044EB52E4C701B6010E94E21728960FB6C7
:10073000F894DEBF0FBECDBFDF91CF911F910F9117
:10074000FF90EF90DF90CF90BF90AF909F908F90F1
:1007500008958F929F92AF92BF92CF92DF92EF92C5
:10076000FF920F931F93CF93DF934C01FC016081A5
:10077000718182819381C0906401D0906501E09085
:100780006601F09067010091680110916901209164
:100790006A0130916B0142E450E00E941003A62EE2
:1007A000B72ED82FC92FF401648175818681978176
:1007B000C0905C01D0905D01E0905E01F0905F011F
:1007C00000916001109161012091620130916301FB
:1007D00042E450E00E9410036B017C01CF93DF9351
:1007E000BF92AF9282E491E09F938F938FE192E06A
:1007F0009F938F930E9483218FE192E00E94D217F2
:100800006A2D7B2D8D2F9C2F0E945219CB010E94A7
:100810007301C701B6010E945219CB010E948C01DD
:100820008DB79EB708960FB6F8949EBF0FBE8DBFCA
:10083000DF91CF911F910F91FF90EF90DF90CF90BC
:10084000BF90AF909F908F900895CF92DF92EF92DC
:10085000FF920F931F938B019C0135952795179558
:1008600007950F2EFFEDCF2EF9E5DF2EF7E3EF2EE4
:10087000FFE5FF2EF02DC01AD10AE20AF30A20E0AC
:1008800030E040E05FE30E94A21AA70196010E94B7
:10089000A21AA70196010E94A21A9B01AC0160E076
:1008A00070E080EC9FE30E94E117A70196010E948F
:1008B000A21A1F910F91FF90EF90DF90CF900895B3
:1008C0004F925F926F927F928F929F92AF92BF9260
:1008D000CF92DF92EF92FF920F931F93CF93DF930C
:1008E000CDB7DEB7A0970FB6F894DEBF0FBECDBF71
:1008F00069877A878B879C872D873E874F87588BA0
:10090000E98AFA8A0B8B1C8B20E030E0A901C60132
:10091000B5010E94DB18811117C020E030E0A90169
:100920006BA97CA98DA99EA90E94DB1881110CC01E
:1009300020E030E0A9016FA978AD89AD9AAD0E94A1
:10094000DB18882309F450C1A6019501C601B50141
:100950000E94A21A2B013C012BA93CA94DA95EA91A
:10096000CA01B9010E94A21A9B01AC01C301B201E4
:100970000E94E2172B013C012FA938AD49AD5AADB9
:10098000CA01B9010E94A21A9B01AC01C301B201C4
:100990000E94E2170E9425042B013C019B01AC013F
:1009A000C601B5010E94A21A698F7A8F8B8F9C8F26
:1009B000A30192016BA97CA98DA99EA90E94A21AEC
:1009C0006D8F7E8F8F8F98A3A30192016FA978AD51
:1009D00089AD9AAD0E94A21A6D837E838F8398871A
:1009E0008090800190908101A0908201B09083015D
:1009F000409078015090790160907A0170907B016D
:100A0000C0900601D0900701E0900801F090090124
:100A100080917C0190917D01A0917E01B0917F0138
:100A200089839A83AB83BC83A3019201C501B4017E
:100A30000E94A21A6D8B7E8B8F8B988F29813A81B1
:100A40004B815C81C701B6010E94A21A9B01AC01D7
:100A50006D897E898F89988D0E94E1176D8B7E8BC1
:100A60008F8B988FA7019601C501B4010E94A21A2D
:100A70004B015C0129813A814B815C81C301B20148
:100A80000E94A21A9B01AC01C501B4010E94E217A9
:100A900069837A838B839C83A7019601C701B60182
:100AA0000E94A21A20E030E040E05FE30E94E117DC
:100AB0006B017C01A3019201C301B2010E94A21A41
:100AC0009B01AC01C701B6010E94E2176B017C01DA
:100AD00010927401109275011092760110927701B4
:100AE00010927001109271011092720110927301B4
:100AF00010926C0110926D0110926E0110926F01B4
:100B00009B01AC016D8D7E8D8F8D98A10E94A21AE4
:100B10004B015C0129813A814B815C816D817E8131
:100B20008F8198850E94A21A9B01AC01C501B40176
:100B30000E94E1179B01AC0169857A858B859C85B4
:100B40000E94E21769877A878B879C872D893E8967
:100B50004F89588D6D817E818F8198850E94A21A60
:100B60004B015C01A7019601698D7A8D8B8D9C8D5F
:100B70000E94A21A9B01AC01C501B4010E94E117B9
:100B80009B01AC016D857E858F8598890E94E21757
:100B90006D877E878F87988B29813A814B815C8115
:100BA000698D7A8D8B8D9C8D0E94A21A6B017C01C0
:100BB0002D893E894F89588D6D8D7E8D8F8D98A1A1
:100BC0000E94A21A9B01AC01C701B6010E94E11765
:100BD0009B01AC0169897A898B899C890E94E21703
:100BE000698B7A8B8B8B9C8B2FE133EA45EF5BE330
:100BF00069857A858B859C850E94A21A69877A8788
:100C00008B879C872FE133EA45EF5BE36D857E851B
:100C10008F8598890E94A21A6D877E878F87988B0F
:100C20002FE133EA45EF5BE369897A898B899C89F7
:100C30000E94A21A698B7A8B8B8B9C8B8091060108
:100C400090910701A0910801B091090189839A83CD
:100C5000AB83BC83C0908001D0908101E090820181
:100C6000F090830180917C0190917D01A0917E01A3
:100C7000B0917F018D839E83AF83B88740907801C8
:100C80005090790160907A0170907B01C701B601A4
:100C9000905829853A854B855C850E94A21A4B01A4
:100CA0005C012D813E814F8158856D857E858F85C4
:100CB00098890E94A21A9B01AC01C501B4010E944F
:100CC000E1174B015C01A301920169897A898B8943
:100CD0009C890E94A21A9B01AC01C501B4010E942B
:100CE000E11729813A814B815C810E94E217698F6B
:100CF0007A8F8B8F9C8F29813A814B815C816985AA
:100D00007A858B859C850E94A21A4B015C012D81FE
:100D10003E814F81588569897A898B899C890E9497
:100D2000A21A9B01AC01C501B4010E94E2174B015C
:100D30005C01A30192016D857E858F8598890E9453
:100D4000A21A9B01AC01C501B4010E94E117A701E1
:100D500096010E94E2176D8F7E8F8F8F98A3298155
:100D60003A814B815C816D857E858F8598890E9453
:100D7000A21A4B015C01A701960169897A898B89C6
:100D80009C890E94A21A9B01AC01C501B4010E947A
:100D9000E1174B015C01A301920169857A858B857E
:100DA0009C850E94A21A9B01AC01C501B4010E945E
:100DB000E2172D813E814F8158850E94E2176D8B8D
:100DC0007E8B8F8B988F29813A814B815C816989D9
:100DD0007A898B899C890E94A21A4B015C01A70128
:100DE00096016D857E858F8598890E94A21A9B0148
:100DF000AC01C501B4010E94E2176B017C012D8199
:100E00003E814F81588569857A858B859C850E94B6
:100E1000A21A9B01AC01C701B6010E94E117A30110
:100E200092010E94E2174B015C01298D3A8D4B8D96
:100E30005C8DCA01B9010E94A21A6B017C012D8D43
:100E40003E8D4F8D58A1CA01B9010E94A21A9B0183
:100E5000AC01C701B6010E94E2176B017C012D892C
:100E60003E894F89588DCA01B9010E94A21A9B017F
:100E7000AC01C701B6010E94E2176B017C01A5011C
:100E80009401C501B4010E94A21A9B01AC01C701E3
:100E9000B6010E94E2170E9425046B017C019B01B0
:100EA000AC01698D7A8D8B8D9C8D0E94A21A609306
:100EB0000601709307018093080190930901A7012F
:100EC00096016D8D7E8D8F8D98A10E94A21A6093E0
:100ED0008001709381018093820190938301A70127
:100EE00096016D897E898F89988D0E94A21A6093E0
:100EF0007C0170937D0180937E0190937F01A70117
:100F00009601C501B4010E94A21A60937801709302
:100F1000790180937A0190937B01A0960FB6F894A3
:100F2000DEBF0FBECDBFDF91CF911F910F91FF901C
:100F3000EF90DF90CF90BF90AF909F908F907F9079
:100F40006F905F904F9008954F925F926F927F9253
:100F50008F929F92AF92BF92CF92DF92EF92FF92C9
:100F6000CF93DF93CDB7DEB72E970FB6F894DEBFE1
:100F70000FBECDBF9E878D87C0907C01D0907D0134
:100F8000E0907E01F0907F0180907801909079014F
:100F9000A0907A01B0907B01409080015090810137
:100FA0006090820170908301609106017091070149
:100FB00080910801909109019B01AC010E94E21708
:100FC00069877A878B879C8720E030E040E050EC8F
:100FD000C701B6010E94A21AA70196010E94A21A97
:100FE00069837A838B839C83A5019401C501B40135
:100FF0000E94E217A50194010E94A21A9B01AC0174
:1010000069817A818B819C810E94E11720E030E028
:1010100040E85FE30E94E21769837A838B839C83B5
:10102000A3019201C301B2010E94E217A701960138
:101030000E94A21A6D837E838F83988729853A85C3
:101040004B855C85C501B4010E94A21A9B01AC01CD
:101050006D817E818F8198850E94E21729813A8176
:101060004B815C810E947C1823E333E345E652E424
:101070000E94A21AED85FE8560877187828793871B
:1010800020E030E040E050ECC301B2010E94A21A1F
:1010900069837A838B839C839B01AC01C501B40176
:1010A0000E94A21A6D837E838F83988729853A8553
:1010B0004B855C85C701B6010E94A21A9B01AC0159
:1010C0006D817E818F8198850E94E2170E944E1863
:1010D00023E333E345E652E40E94A21AED85FE8540
:1010E0006483758386839783A7019601C701B60140
:1010F0000E94E2176D837E838F83988729813A81CE
:101100004B815C81C301B2010E94A21A69837A8378
:101110008B839C832D813E814F815885C701B60109
:101120000E94A21A9B01AC0169817A818B819C810A
:101130000E94E11720E030E040E85FE30E94E21700
:101140006B017C012D813E814F815885C501B40121
:101150000E94A21A4B015C0129853A854B855C856A
:10116000C301B2010E94A21A9B01AC01C501B401E6
:101170000E94E217A70196010E947C1823E333E343
:1011800045E652E40E94A21AED85FE8560837183D4
:10119000828393832E960FB6F894DEBF0FBECDBF29
:1011A000DF91CF91FF90EF90DF90CF90BF90AF9005
:1011B0009F908F907F906F905F904F90089580EDFB
:1011C0000E9452178BE30E948E1781ED0E94231715
:1011D00008954F925F926F927F92AF92BF92CF929B
:1011E000DF92EF92FF920F931F93CF93DF938C01C7
:1011F000EB010E94DF080E94A517F82E0E94A51798
:101200006F2D70E0762F6627682B072E000C880B59
:10121000990B0E948A19F8016083718382839383FA
:101220000E94A517F82E0E94A5176F2D70E0762F4B
:101230006627682B072E000C880B990B0E948A19D1
:10124000F80164837583868397830E94A517F82E1F
:101250000E94A5176F2D70E0762F6627682B072E4A
:10126000000C880B990B0E948A19F801608771871E
:10127000828793870E94A517F82E0E94A5176F2DCD
:1012800070E0762F6627682B072E000C880B990BD1
:101290000E948A196093390270933A0280933B024C
:1012A00090933C020E94A517F82E0E94A5176F2D5F
:1012B00070E0762F6627682B072E000C880B990BA1
:1012C0000E948A19688379838A839B830E94A51769
:1012D000F82E0E94A5176F2D70E0762F6627682BD9
:1012E000072E000C880B990B0E948A196C837D8352
:1012F0008E839F830E94A517F82E0E94B0176F2D32
:1013000070E0762F6627682B072E000C880B990B50
:101310000E948A19688779878A879B870E94491764
:101320000F2EFDE3EF2EF2E0FF2EF02D0F2EF9E44D
:10133000CF2EF2E0DF2EF02D0F2EF9E4AF2EF2E0EB
:10134000BF2EF02DF70141905190619071907F0177
:1013500020E030E040E051E4F80160817181828159
:1013600093810E94A21A2DEC3CEC4CE151E40E94C6
:10137000A21A20E030E040E058E30E94A21AA30144
:1013800092010E94E117F801619371938193919307
:101390008F01F60141905190619071906F0120E0B2
:1013A00030E04AE754E4688179818A819B810E9418
:1013B000A21A20E030E040E058E30E94A21A20E0A8
:1013C00030E044E353E40E94E01823EC35EF48E4B6
:1013D00050E40E94A21AA30192010E94E1176993AE
:1013E000799389939993EA14FB0409F0ABCFDF91C9
:1013F000CF911F910F91FF90EF90DF90CF90BF9012
:10140000AF907F906F905F904F9008952F923F9292
:101410004F925F926F927F928F929F92AF92BF9204
:10142000CF92DF92EF92FF920F931F93CF93DF93B0
:1014300000D000D0CDB7DEB71C0169837A83812C40
:10144000912C5C018CE0A80EB11C69817A81C101EC
:101450000E94E90871010F2EF0E96F2EF1E07F2E56
:10146000F02DC980DA800F2EF4E84F2EF1E05F2EC8
:10147000F02D82017C826B82F701219131914191A3
:1014800051917F01EB81FC81608171818281938127
:101490000E94E217EB81FC81619371938193919398
:1014A000FC83EB83F60121913191419151916F01C0
:1014B000F80160817181828193810E94E217F801B5
:1014C00061937193819391938F01EA14FB04A1F6C8
:1014D000FFEF8F1A9F0A84E68816910409F0B5CFB2
:1014E0000DE312E0E9E4F2E0FC83EB830F2EFCE96C
:1014F000EF2EF1E0FF2EF02DF301619171918191BA
:1015000091913F0120E030E048EC52E40E94E01865
:10151000F80161937193819391938F01F20161912D
:101520007191819191912F0120E030E048EC52E4DB
:101530000E94E018EB81FC816193719381939193F8
:10154000FC83EB836E147F04B9F620E030E040E2C8
:1015500051E460914502709146028091470290915A
:1015600048020E94E11760934502709346028093FF
:101570004702909348020F900F900F900F90DF91C9
:10158000CF911F910F91FF90EF90DF90CF90BF9080
:10159000AF909F908F907F906F905F904F903F9013
:1015A0002F9008958BE792E90197F1F700C00000B2
:1015B00080ED0E9452178BE60E948E1781E00E94F8
:1015C0008E170E94491780ED0E9452178AE10E94EF
:1015D0008E1785E00E948E170E94491780ED0E94A9
:1015E00052178BE10E948E1788E00E948E170E948E
:1015F000491780ED0E9452178CE10E948E1780E1FE
:101600000E948E170E94491780ED0E94521788E3AE
:101610000E948E1781E00E948E170E94491780ED6C
:101620000E94521789E10E948E1787E00E948E1750
:101630000E9449176AE071E086E191E00E94060A83
:101640000895CF93DF93EC010E94CB11CE010E944D
:10165000281FEC010E949A12209711F40E945F0B40
:10166000CE01DF91CF910895CF93DF93009741F0A2
:10167000EC010E94CB11CE010E94C01F0E949A1261
:10168000DF91CF9108958FE380937E0080B7877FAD
:1016900080BF80B7806880BF83B7817F83BF0FB66C
:1016A000F8940F9283B7816083BF85B7806685BF4A
:1016B0008F7D85BF0F900FBE889513BE0895259A24
:1016C0002D9A83ED90E30197F1F700C000001D9A79
:1016D000F8CF259A2D9A2FE78AE196E02150804095
:1016E0009040E1F700C000001D9AF5CFFC01039681
:1016F000928381832FEF3FEF348323839683858307
:101700009087878310820895FC01118610860895C2
:10171000CF93DF939C01FB01DC011196CD91DC910D
:101720001297D383C2838C819D81958384838C811E
:101730009D81DC0113967C936E9312977D836C835D
:1017400031872087F90180818F5F8083DF91CF917E
:101750000895CF93DF93EB01488159814F3F2FEFDD
:10176000520721F4FC01A781B0850DC0DC0113965E
:1017700001C0DF011296ED91FC9113972081318118
:1017800042175307B0F71296ED91FC911397FB8324
:10179000EA83D583C483BD83AC831396DC93CE9355
:1017A000129799878887FC0120812F5F2083DF9122
:1017B000CF910895CF93DF93FC01A085B185C281BD
:1017C000D381848195819D838C83C481D5818281DD
:1017D00093819B838A8311968D919C911297E81730
:1017E000F90731F48481958112969C938E93119719
:1017F000118610868C9181508C938C91DF91CF91C2
:101800000895FC016083319770833197108231977E
:1018100020E8208331971082779740833197508357
:1018200083970895A89590EC88E10FB6F894A89551
:10183000809360000FBE90936000A0910102B09170
:101840000202CD91CDBFDD91DEBFFF91EF91DF911F
:10185000CF91BF91AF919F918F917F916F915F9148
:101860004F913F912F911F910F91FF90EF90DF903B
:10187000CF90BF90AF909F908F907F906F905F9030
:101880004F903F902F901F900F900FBE0F90089594
:1018900081E008950F920FB6F8940F921F921124D1
:1018A0002F923F924F925F926F927F928F929F9270
:1018B000AF92BF92CF92DF92EF92FF920F931F935E
:1018C0002F933F934F935F936F937F938F939F9348
:1018D000AF93BF93CF93DF93EF93FF93A091010258
:1018E000B09102020DB60D920EB60D920E945B13DE
:1018F000A0910102B0910202CD91CDBFDD91DEBF7A
:10190000FF91EF91DF91CF91BF91AF919F918F9117
:101910007F916F915F914F913F912F911F910F9107
:10192000FF90EF90DF90CF90BF90AF909F908F90FF
:101930007F906F905F904F903F902F901F900F90EF
:101940000FBE0F9008950F920FB6F8940F921F924A
:1019500011242F923F924F925F926F927F928F92BB
:101960009F92AF92BF92CF92DF92EF92FF920F932E
:101970001F932F933F934F935F936F937F938F9317
:101980009F93AF93BF93CF93DF93EF93FF93A09178
:101990000102B09102020DB60D920EB60D9213BE69
:1019A0000E94DB1181110E945B13A0910102B09192
:1019B0000202CD91CDBFDD91DEBFFF91EF91DF91AE
:1019C000CF91BF91AF919F918F917F916F915F91D7
:1019D0004F913F912F911F910F91FF90EF90DF90CA
:1019E000CF90BF90AF909F908F907F906F905F90BF
:1019F0004F903F902F901F900F900FBE0F90089523
:101A00000E94A30C18950FB6F8940F92FC01928DCA
:101A10000F900FBE81E0911180E008950F931F9306
:101A2000CF93DF93EC01042F1A8D4C8D41110CC024
:101A300088819981892B09F042C08C819D810E9407
:101A4000A2141D821C8242C0011117C050E08A817D
:101A50009B810E942C212C8D8A819B81820F911D5C
:101A60009B838A832C813D818217930750F1888163
:101A700099819B838A8380E029C050E08E819F8179
:101A80000E942C218C8D90E09195819591092E8159
:101A90003F81280F391F3F832E83488159812417A6
:101AA000350730F42C813D81820F931F9F838E83F5
:101AB000023049F4112349F0115080E007C080E062
:101AC00005C080E003C080E001C080E01F5F1A8F86
:101AD000DF91CF911F910F910895FC01448D442314
:101AE000A9F050E026813781240F351F37832683E4
:101AF000848195812817390720F08081918197830F
:101B00008683CB01668177810E942C210895EF9214
:101B1000FF920F931F93CF938C010FB6F8940F92FF
:101B2000FC01C68D1C16ACF48189811106C011C060
:101B3000F8018189811105C00CC07801F1E1EF0E37
:101B4000F11CC7010E94071481110E949014C1501A
:101B500079F78FEFF801868F0F900FBE0FB6F894CC
:101B60000F92C58D1C16ACF48085811106C011C082
:101B7000F8018085811105C00CC07801F8E0EF0EF6
:101B8000F11CC7010E94071481110E949014C150DA
:101B900079F78FEFF801858F0F900FBECF911F91CE
:101BA0000F91FF90EF900895CF93DF93EC010FB664
:101BB000F8940F92E881F9818B8D2C8D90E030E0C4
:101BC000829FA001839F500D929F500D11244E0FB4
:101BD0005F1F5D834C831A8EFB83EA830197829F8C
:101BE000A001839F500D929F500D1124CF01840FAF
:101BF000951F9F838E838FEF8D8F8E8F61110CC009
:101C00008885882389F0CE0108960E9407148823CE
:101C100059F00E944A0C08C0CE0108960E94760B2B
:101C2000CE0141960E94760B0F900FBE81E0DF91AE
:101C3000CF9108950F931F93CF93DF93082F162F03
:101C4000869FC00111244F960E94210BEC01009742
:101C500071F0111103C09983888303C04F96998353
:101C600088830B8F1C8F61E0CE010E94D40DCE01C2
:101C7000DF91CF911F910F9108959F92AF92BF92E4
:101C8000CF92DF92EF92FF920F931F93CF93DF9348
:101C900000D000D01F92CDB7DEB78C016B015D8301
:101CA0004C83A22EB12C992493947C0188E0E80EF9
:101CB000F11C0FB6F8940F92F801928D838D98174E
:101CC00018F0F2E0AF1219C04A2DB601C8010E9407
:101CD0000E0DF8019189992349F0C80141960E949F
:101CE0000714882331F00E944A0C03C081110E941E
:101CF0004A0C0F900FBE81E050C08C819D81892BD2
:101D000021F40F900FBE80E048C0B11005C0CE0195
:101D100001960E944F14B92C0F900FBE0E94CB1158
:101D20000FB6F8940F92F801858D8F3F09F4158E48
:101D3000F801868D8F3F09F4168E0F900FBEBE01FD
:101D40006C5F7F4FCE0101960E945A1481111FC013
:101D50000FB6F8940F92F801928D838D0F900FBEFD
:101D600098130FC06C817D81C7010E94DC13C801EC
:101D70000E94870D0E949A1281119BCF0E944A0CEB
:101D800098CFC8010E94870D0E949A1292CFC80175
:101D90000E94870D0E949A1280E00F900F900F9082
:101DA0000F900F90DF91CF911F910F91FF90EF90C7
:101DB000DF90CF90BF90AF909F900895EF92FF92E9
:101DC0000F931F93CF93DF938A01FC01528D338DC4
:101DD000531710F0223001F5422F7801EC011E8DCF
:101DE0008A8DCE010E940E0D1F3F81F489898823C0
:101DF000A9F0CE0141960E940714882389F0E114CE
:101E0000F10481F081E0F70180830DC0FF24F39499
:101E1000F10EFE8E81E007C080E005C081E003C0C6
:101E200081E001C081E0DF91CF911F910F91FF9080
:101E3000EF9008959F92AF92BF92CF92DF92EF9270
:101E4000FF920F931F93CF93DF9300D000D01F9288
:101E5000CDB7DEB78C015B015D834C83E12C992407
:101E600093946C0181E1C80ED11C0FB6F8940F92C7
:101E7000F801F28CFF20A9F0B501C8010E946D0D98
:101E8000FA94F801F28E8085882339F0C80108960B
:101E90000E94071481110E944A0C0F900FBE81E02E
:101EA00051C08C819D81892B21F40F900FBE80E061
:101EB00049C0E11005C0CE0101960E944F14E92CE3
:101EC0000F900FBE0E94CB110FB6F8940F92F8013D
:101ED000858D8F3F09F4158EF801868D8F3F09F4AB
:101EE000168E0F900FBEBE016C5F7F4FCE01019624
:101EF0000E945A1481111AC0C8010E94030D882340
:101F000079F06C817D81C6010E94DC13C8010E94BA
:101F1000870D0E949A128111A8CF0E944A0CA5CF6A
:101F2000C8010E94870D0E949A129FCFC8010E948B
:101F3000870D0E949A12C8010E94030D882309F49C
:101F400094CF80E00F900F900F900F900F90DF9143
:101F5000CF911F910F91FF90EF90DF90CF90BF90A6
:101F6000AF909F900895CF93DF93EC010FB6F89454
:101F70000F928D8D8F3F09F41D8E8E8D8F3F09F44A
:101F80001E8E0F900FBE8A8D811104C0CE01419626
:101F90000E94EE13CE010E94870DDF91CF9108952C
:101FA000E091C901F091CA018081811107C08FEFD2
:101FB0009FEF9093A00180939F010895E091C90144
:101FC000F091CA010580F681E02D0680F781E02DB1
:101FD000828193819093A00180939F010895FF9245
:101FE0000F931F93CF93DF93EC01F62E0091A8017E
:101FF0001091A901809101029091020202960E9423
:10200000DA0BCF3F8FEFD80769F4FF2059F06091CA
:102010000102709102026E5F7F4F8BEA91E00E9495
:10202000880B2FC0C00FD11FE0910102F091020276
:10203000D383C283C017D10768F460910102709105
:1020400002028091C7019091C8016E5F7F4F0E948C
:10205000A90B17C060910102709102028091C90121
:102060009091CA016E5F7F4F0E94A90B80919F01E2
:102070009091A001C817D90720F4D093A001C09374
:102080009F01DF91CF911F910F91FF90089505EB74
:1020900011E00F2EFDEDEF2EF1E0FF2EF02D8091DF
:1020A000B401882329F10FB6F8940F92D801159640
:1020B000ED91FC911697C681D781CE0102960E94C0
:1020C000DA0B8091AA0181508093AA018091B4011A
:1020D00081508093B4010F900FBE8F89988D0E941C
:1020E000340BCE010E94340B8091B4018111DBCFFF
:1020F000F7018081823010F00E944A0C0E94430B4D
:10210000CECF4F925F926F927F928F929F92AF92BB
:10211000BF92CF92DF92EF92FF920F93CF93DF9314
:102120004C016B015A012901CA010E94210B3C019B
:10213000892B09F4F1C088E290E00E94210BEC01A8
:10214000892B99F0788E6F8AA50165EA70E0C3014A
:102150000E94352181E0A81AB1088F89988DA80EB8
:10216000B91EC114D10429F420C0C3010E94340B4C
:10217000D3C0D6018C91898F8C918823A1F0AE01B8
:10218000465E5F4FF6013196B8E0CB0ED11CCF0111
:102190002191DA012D93AD01DC018C91882319F096
:1021A000EC15FD05A1F718A201C0198E043008F046
:1021B00003E00E8B09A31AA26E01B2E0CB0ED11C74
:1021C000C6010E94840BCE010C960E94840BD98715
:1021D000C88784E090E0801B91099D878C87DB8B0A
:1021E000CA8B1BA21CA21DA21EA21FA2A201B40187
:1021F000C5010E94010C99838883E114F10419F050
:10220000F701D183C0830FB6F8940F928091AA0191
:102210008F5F8093AA018091010290910202892B25
:10222000D1F5D0930202C09301028091AA018130BE
:1022300009F041C08DED91E00E94760B86EE91E0B1
:102240000E94760B8FEE91E00E94760B88EF91E072
:102250000E94760B84ED91E00E94760B8BEC91E06E
:102260000E94760B8EEB91E00E94760B85EB91E05D
:102270000E94760B8BEA91E00E94760B84ED91E050
:102280009093CA018093C9018BEC91E09093C801AF
:102290008093C70110C08091A60181110CC0E0910C
:1022A0000102F091020296898E89891720F0D0935D
:1022B0000202C09301028091A1018F5F8093A1016E
:1022C0008E899091A701981710F48093A70190E050
:1022D0009C01220F331F220F331F220F331F820F47
:1022E000931FB60183529E4F0E94880B0F900FBE22
:1022F0008091A601882361F0E0910102F091020231
:1023000096898E89981730F40E944A0C81E005C0A6
:1023100081E003C081E001C08FEFDF91CF910F9189
:10232000FF90EF90DF90CF90BF90AF909F908F90F5
:102330007F906F905F904F900895EF92FF920F9370
:102340000F2EFDE9EF2EF1E0FF2EF02D00E020E052
:1023500030E045E550E06EE471E087E490E10E94F2
:1023600081108130A1F40E943A15813081F4F894F3
:102370008FEF9FEF9093A00180939F0181E0809366
:10238000A6011092A9011092A8010E94120C0F91AF
:10239000FF90EF90089580919C018F5F80939C0146
:1023A00008950FB6F8940F928091A8019091A90119
:1023B0000F900FBE0895CF92DF92EF92FF920F938E
:1023C0001F93CF93DF9380919C0181119FC0E09078
:1023D000A801F090A9018FEFE81AF80AF092A9017C
:1023E000E092A801E114F104B9F48091C90190913F
:1023F000CA012091C7013091C8013093CA012093CE
:10240000C9019093C8018093C7018091A2018F5F99
:102410008093A2010E94D00F80919F019091A00112
:10242000E816F90610F4D12C53C0D12CCC24C39457
:10243000E091C901F091CA018081811107C08FEF3D
:102440009FEF9093A00180939F0142C0E091C9014A
:10245000F091CA010580F681E02DC681D7818A817D
:102460009B81E816F90628F49093A00180939F01C0
:102470002FC08E010E5F1F4FC8010E94DA0B8C899E
:102480009D89892B21F0CE010C960E94DA0B8E8952
:102490009091A701981710F48093A70190E09C01F8
:1024A000220F331F220F331F220F331F820F931F60
:1024B000B80183529E4F0E94880BE0910102F09177
:1024C00002029E898689981708F4B2CFDC2CB0CF1F
:1024D000E0910102F0910202868990E0FC01EE0F8A
:1024E000FF1FEE0FFF1FEE0FFF1F8E0F9F1FFC0140
:1024F000E352FE4F8081823010F0DD24D39480912E
:10250000A301882369F0DD24D3940AC08091A4013B
:102510009091A50101969093A5018093A401D12CDF
:102520008D2DDF91CF911F910F91FF90EF90DF9054
:10253000CF900895DF92EF92FF920F931F93CF9366
:10254000DF930FB6F8940F9280919C018150809395
:102550009C0180919C01811163C08091AA0181112D
:1025600033C061C0D7011596ED91FC911697C681D5
:10257000D781CE010C960E94DA0B8E010E5F1F4FA1
:10258000C8010E94DA0B8E899091A701981710F468
:102590008093A70190E09C01220F331F220F331F6D
:1025A000220F331F820F931FB80183529E4F0E9448
:1025B000880BE0910102F09102029E8986899817AA
:1025C00068F0D092A3010AC0C0E0D0E00F2EFEEB6D
:1025D000EF2EF1E0FF2EF02DDD24D394F701808162
:1025E0008111C0CFCD2B11F00E94D00FC091A4015A
:1025F000D091A501209761F011E00E94DB118111BB
:102600001093A3012197C9F71092A5011092A4017C
:102610008091A301882331F00E944A0C81E003C01D
:1026200080E001C080E00F900FBEDF91CF911F913D
:102630000F91FF90EF90DF9008950F931F93CF932A
:10264000DF938C01EB010E94CB114091A8015091C6
:10265000A901F80120813181C9018C0F9D1F42170A
:10266000530748F482179307E8F49183808348174F
:10267000590768F407C08217930780F04817590775
:1026800068F010C060E0841B950B0E94EF0F0E9461
:102690009A1281110BC00E944A0C08C0F801918364
:1026A0008083F0CFF80191838083F1CFDF91CF91C8
:1026B0001F910F91089580919C01882321F081E062
:1026C0008093A30108951092A301A0910102B091FB
:1026D0000202E0910102F09102022D913C91878962
:1026E000908D8217930760F0609101027091020251
:1026F0008091010290910202675E7F4F0E94690BF8
:102700002091A701822F90E0FC01EE0FFF1FEE0F3A
:10271000FF1FEE0FFF1FE80FF91FE352FE4F30813E
:10272000311111C02150822F90E0FC01EE0FFF1FEC
:10273000EE0FFF1FEE0FFF1FE80FF91FE352FE4FD2
:102740003081332379F3AC01440F551F440F551FDB
:10275000440F551F480F591FDA01A352BE4F11965F
:10276000ED91FC9112970280F381E02D1296FC937B
:10277000EE93119740525E4FE417F50729F442811A
:102780005381FD0152834183FC01EE0FFF1FEE0FC9
:10279000FF1FEE0FFF1F8E0F9F1FFC01E352FE4F26
:1027A0000180F281E02D86819781909302028093CF
:1027B00001022093A7010895CF93DF93EB0160916D
:1027C000010270910202645F7F4F0E94A90B61E0D9
:1027D000CE010E94EF0FDF91CF9108950F931F93C9
:1027E000CF938B01C42F6091010270910202645F4C
:1027F0007F4F0E94880BCC2311F00FEF1FEF6C2F3F
:10280000C8010E94EF0FCF911F910F9108950F9370
:102810001F93CF93DF93DC011596ED91FC911697F2
:10282000C681D7818E01045F1F4FC8010E94DA0B59
:1028300080919C0181111CC00A501109C8010E949D
:10284000DA0B8E899091A701981710F48093A70155
:1028500090E09C01220F331F220F331F220F331FE2
:10286000820F931FB80183529E4F0E94880B05C0B0
:10287000B8018EEB91E00E94880BE0910102F0918B
:1028800002029E898689891720F481E08093A30142
:1028900001C080E0DF91CF911F910F9108952091A9
:1028A000A201FC0120832091A8013091A90132836B
:1028B00021830895CF93DF930FB6F8940F92209160
:1028C000A8013091A901DB014D915C914F3FBFEF11
:1028D0005B07F1F0EC01E981FA81A091A201B881D6
:1028E000BA1719F02E173F07A8F42E1B3F0B241719
:1028F000350748F4FB01421B530B518340830E9470
:102900004F1480E008C0FB011182108281E003C0F7
:1029100080E001C081E00F900FBEDF91CF9108955C
:1029200081E08093A30108958091A601882331F06E
:1029300080919C01882321F080E0089581E0089532
:1029400082E008950F931F93CF93DF93FC01892BAF
:1029500079F182A1815082A3268991A1291751F191
:1029600081112AC0EF018F010E5F1F4FC8010E9425
:10297000DA0B89A18E8B24E030E0281B31093D87DA
:102980002C879091A701981710F48093A70190E0ED
:102990009C01220F331F220F331F220F331F820F80
:1029A000931FB80183529E4F0E94880B81E005C09F
:1029B00080E003C080E001C080E0DF91CF911F91F3
:1029C0000F910895FC017383628391878087461776
:1029D000570790F0421B530B84859585481759077C
:1029E000E0F4BF016E5F7F4F8091090290910A026F
:1029F0000E94A90B80E008954217530718F462174C
:102A0000730768F4BF016E5F7F4F80910B02909156
:102A10000C020E94A90B80E0089581E0089581E0F6
:102A200008950FB6F8940F928091070290910802D2
:102A3000892BE9F486E192E00E94760B8DE092E02A
:102A40000E94760B86E192E090930C0280930B0239
:102A50008DE092E090930A028093090240E065E0E5
:102A60008AE00E941A0E90930802809307020F904A
:102A70000FBE0895EF92FF920F930E94111580915F
:102A8000070290910802892B91F00F2EF5E0EF2EAE
:102A9000F2E0FF2EF02D03E020E030E045E550E0CD
:102AA00063E571E084E196E10E94811001C080E05D
:102AB0000F91FF90EF9008950F931F93CF93DF93A3
:102AC00000D000D01F92CDB7DEB7E0910702F091A1
:102AD0000802309771F1D90169835B834A839D8332
:102AE0008C836630ECF40E949414823061F420E010
:102AF000A801BE016F5F7F4F80910702909108028D
:102B00000E943D0E17C020E040E050E0BE016F5F24
:102B10007F4F80910702909108020E943D0E0AC0EB
:102B200020E0AD01BE016F5F7F4FCF010E94DE0E3E
:102B300001C080E00F900F900F900F900F90DF91E9
:102B4000CF911F910F910895AF92BF92CF92DF92D4
:102B5000EF92FF920F931F93CF93DF936C010E942C
:102B6000D1117C018091030290910402E816F906CC
:102B700008F048C030C00580F681E02DA080B1800B
:102B8000C681D7818E010E5F1F4FC8010E94DA0BEC
:102B9000E889F989CE0109958A8982FF1CC08C8554
:102BA0009D858A0D9B1DA816B90660F49B838A83B8
:102BB000D987C887B80180910B0290910C020E94BE
:102BC000A90B09C000E010E020E030E0A50160E0C2
:102BD000CE010E945C15E0910B02F0910C02808105
:102BE0008111C9CF8091090290910A0290930C0241
:102BF00080930B02F0930A02E093090281E0F60150
:102C0000808302C0F6011082F0920402E092030277
:102C1000C701DF91CF911F910F91FF90EF90DF904F
:102C2000CF90BF90AF900895CF93DF9300D000D0A6
:102C300000D0CDB7DEB7CE0101964C0144244394B9
:102C4000E12CF12C512CC82ED92CE0910B02F091E3
:102C50000C028081882309F4DCC00580F681E02D18
:102C6000A080B1800E94CB11C4010E94A4158C01E8
:102C7000898181114BC00A151B05B8F10E949A1277
:102C8000E0910B02F0910C020580F681E02D668048
:102C90007780C30102960E94DA0BD30152968C9181
:102CA000529782FF17C01C966D917C911D976A0DFB
:102CB0007B1D9501A801C3010E94E214882369F0DD
:102CC0000E2D1F2D2E2D3F2DA501652DC3010E9418
:102CD0005C1503C08E7FF301828BD3015096ED917A
:102CE000FC915197C301099587C0452DB501601B23
:102CF000710B80910702909108020E94B30F0E940D
:102D00009A12811179C00E944A0C76C00E949A12D0
:102D100073C0898188230CF46FC0AC80BD80F5013D
:102D200082859385892B21F0C50102960E94DA0BDA
:102D3000CE0106960E94A415E9810E2E000CFF0B11
:102D4000EA30F10508F058C0EC5CFF4F0C94EB1E24
:102D5000D50152962C915297216052962C935297FE
:102D60002A813B811C966D917C911D97620F731F88
:102D7000AC01C5010E94E2148823F1F1D5015096FF
:102D8000ED91FC915197C5010995F501828982FF6A
:102D900033C04A815B8184859585480F591F0E2D6C
:102DA0001F2D2E2D3F2D652DC5010E945C1524C0C1
:102DB000D50152968C9152978E7F52968C931CC05F
:102DC000F50122892160228B6A817B817587648766
:102DD000680F791F9C01AC01C5010E94E2140CC070
:102DE000D50152968C9181FD04C0C5010E94340B1F
:102DF00003C08E7FF501828B4E2D5F2D6C2D7D2DB6
:102E000080910702909108020E941A0F811181CFD0
:102E10001CCF0E94CB11C4010E94A4158C01898192
:102E2000811174CFE0910902F0910A028081442D52
:102E30008111452DAE2CBF2C59CF1092B90088E4DA
:102E40008093B800089594EA9093BC00ECEBF0E016
:102E500090819923ECF79091B900987F903199F483
:102E60008093BB0084E88093BC00ECEBF0E08081B1
:102E70008823ECF78091B900887F803431F080326C
:102E800031F083E0089580E0089581E0089582E0C4
:102E9000089584E98093BC00ECEBF0E0808184FD30
:102EA000FDCF0895BF92CF92DF92EF92FF920F93E2
:102EB0001F93CF93DF93B82ECCEBD0E00F2EF4EA24
:102EC000DF2EF02D09EB10E00F2EFBEBEF2EF12C97
:102ED000F02D0F2EF4E8CF2EF02DD8828881882394
:102EE000ECF7F8018081887F8830B9F7F701B0826C
:102EF000C88288818823ECF7F8018081887F883137
:102F000019F00E944917E9CFDF91CF911F910F91DE
:102F1000FF90EF90DF90CF90BF9008958093BB001B
:102F200084E88093BC00ECEBF0E080818823ECF730
:102F30008091B900887F883221F0803321F082E0CF
:102F4000089580E0089581E0089584EC8093BC00AA
:102F5000ECEBF0E080818823ECF78091BB000895D2
:102F600084E88093BC00ECEBF0E080818823ECF7F0
:102F70008091BB0008959093C5008093C40088E1C0
:102F80008093C100E2ECF0E080818860808386E07D
:102F900080830895E0ECF0E0908195FFFDCF809371
:102FA000C6000895CF93DF93EC018881882331F028
:102FB00021960E94CA1789918111FBCFDF91CF9191
:102FC00008955058BB27AA270E94F9170C945B1A42
:102FD0000E944D1A38F00E94541A20F039F49F3F95
:102FE00019F426F40C940F1A0EF4E095E7FB0C94F8
:102FF000091AE92F0E946C1A58F3BA17620773076F
:103000008407950720F079F4A6F50C948E1A0EF437
:10301000E0950B2EBA2FA02D0B01B90190010C01E8
:10302000CA01A0011124FF27591B99F0593F50F400
:10303000503E68F11A16F040A22F232F342F442758
:10304000585FF3CF469537952795A795F040539550
:10305000C9F77EF41F16BA0B620B730B840BBAF020
:103060009150A1F0FF0FBB1F661F771F881FC2F78B
:103070000EC0BA0F621F731F841F48F4879577959F
:103080006795B795F7959E3F08F0B0CF9395880F59
:1030900008F09927EE0F9795879508959F939F774E
:1030A000EEE389379E0728F4ECE7F0E00E94391A36
:1030B0000CC00E94C5199058A2EA2AED3FE049ECE5
:1030C0005FE30E94F9170E945B1A0F9007FC90586B
:1030D00008950E944D1A60F080E891E009F49EEF97
:1030E0000E94541A28F040E851E071F45EEF0CC0E1
:1030F0000C940F1A0C948E1AE92FE0780E946C1A27
:1031000040F3092E052AB1F3261737074807590758
:1031100038F00E2E07F8E02569F0E025E0640AC0DB
:10312000EF6307F8009407FADB01B9019D01DC01A8
:10313000CA01AD01EF930E94F7180E945B1A0E942A
:10314000AC185F91552339F02BED3FE049E450FD79
:1031500049EC0C94E2170895DF93DD27B92FBF7770
:1031600040E85FE31616170648075B0718F4D92FE7
:103170000E949A1A9F938F937F936F930E94551B7F
:10318000E0E9F0E00E94121A0E945B1A2F913F9131
:103190004F915F910E94B51ADD2351F09058A2EA39
:1031A0002AED3FE049EC5FE3D0785D270E94F917F4
:1031B000DF910C945B1A0E94E51908F481E00895F0
:1031C0000E94F4180C945B1A0E94541A58F00E9442
:1031D0004D1A40F029F45F3F29F00C94091A51115F
:1031E0000C948F1A0C940F1A0E946C1A68F399238E
:1031F000B1F3552391F3951B550BBB27AA276217F3
:103200007307840738F09F5F5F4F220F331F441FFF
:10321000AA1FA9F335D00E2E3AF0E0E832D0915033
:103220005040E695001CCAF72BD0FE2F29D0660F20
:10323000771F881FBB1F261737074807AB07B0E863
:1032400009F0BB0B802DBF01FF2793585F4F3AF069
:103250009E3F510578F00C94091A0C948F1A5F3F29
:10326000E4F3983ED4F3869577956795B795F795EF
:103270009F5FC9F7880F911D9695879597F90895D7
:10328000E1E0660F771F881FBB1F62177307840773
:10329000BA0720F0621B730B840BBA0BEE1F88F782
:1032A000E09508950E9459196894B1110C948F1AF1
:1032B00008950E94741A88F09F5798F0B92F9927A3
:1032C000B751B0F0E1F0660F771F881F991F1AF011
:1032D000BA95C9F714C0B13091F00E948E1AB1E0CE
:1032E00008950C948E1A672F782F8827B85F39F0CD
:1032F000B93FCCF3869577956795B395D9F73EF4AA
:1033000090958095709561957F4F8F4F9F4F089551
:10331000E89409C097FB3EF490958095709561956F
:103320007F4F8F4F9F4F9923A9F0F92F96E9BB2725
:103330009395F695879577956795B795F111F8CFA1
:10334000FAF4BB0F11F460FF1BC06F5F7F4F8F4F0C
:103350009F4F16C0882311F096E911C0772321F002
:103360009EE8872F762F05C0662371F096E8862F9A
:1033700070E060E02AF09A95660F771F881FDAF7F1
:10338000880F9695879597F90895DF93CF931F93AC
:103390000F938B01EC01EDEBF0E00E94121A0E94FA
:1033A0005B1A9801AE018B01EC0160E070E080E8EF
:1033B0009FE30E94E1170E94151B9801AE010F9137
:1033C0001F91CF91DF910C94B51A990F0008550FFA
:1033D000AA0BE0E8FEEF16161706E807F907C0F09B
:1033E00012161306E407F50798F0621B730B840BA3
:1033F000950B39F40A2661F0232B242B252B21F47D
:1034000008950A2609F4A140A6958FEF811D811D1C
:10341000089597F99F6780E870E060E008959FEF56
:1034200080EC0895DF93CF931F930F93FF92EF9259
:10343000DF927B018C01689406C0DA2EEF010E94B6
:10344000B51AFE01E894A5912591359145915591C4
:10345000A6F3EF010E94F917FE019701A801DA9483
:1034600069F7DF90EF90FF900F911F91CF91DF915F
:1034700008959F938F937F936F93FF93EF939B0197
:10348000AC010E94A21AEF91FF910E94121A2F9193
:103490003F914F915F910C94A21A00240A94161642
:1034A000170618060906089500240A941216130632
:1034B000140605060895092E0394000C11F48823C0
:1034C00052F0BB0F40F4BF2B11F460FF04C06F5FDC
:1034D0007F4F8F4F9F4F089557FD9058440F551FB2
:1034E00059F05F3F71F04795880F97FB991F61F086
:1034F0009F3F79F087950895121613061406551FFD
:10350000F2CF4695F1DF08C0161617061806991F68
:10351000F1CF86957105610508940895E894BB275D
:1035200066277727CB0197F908950E94E51908F4DB
:103530008FEF08959B01AC0160E070E080E89FE3AD
:103540000C94E0180E94B51A0C945B1A0E944D1A54
:1035500038F00E94541A20F0952311F00C94091AA7
:103560000C940F1A11240C948F1A0E946C1A70F389
:10357000959FC1F3950F50E0551F629FF001729F18
:10358000BB27F00DB11D639FAA27F00DB11DAA1F27
:10359000649F6627B00DA11D661F829F2227B00D74
:1035A000A11D621F739FB00DA11D621F839FA00DFF
:1035B000611D221F749F3327A00D611D231F849F4F
:1035C000600D211D822F762F6A2F11249F575040A6
:1035D0009AF0F1F088234AF0EE0FFF1FBB1F661F21
:1035E000771F881F91505040A9F79E3F510580F0EA
:1035F0000C94091A0C948F1A5F3FE4F3983ED4F3AD
:10360000869577956795B795F795E7959F5FC1F78D
:10361000FE2B880F911D9695879597F9089519F4BB
:1036200016F40C940F1A0C94591B0E94741AB8F3D8
:103630009923C9F3B6F39F57550B87FF0E94671B69
:103640000024A0E640EA900180585695979528F40A
:10365000805C660F771F881F20F026173707480702
:1036600030F4621B730B840B202931294A2BA69559
:1036700017940794202531254A2758F7660F771F9E
:10368000881F20F026173707480730F4620B730BAA
:10369000840B200D311D411DA09581F7B901842FA8
:1036A0009158880F9695879508959B01AC010C94CD
:1036B000A21A9F3F31F0915020F487957795679536
:1036C000B795880F911D9695879597F90895915014
:1036D0005040660F771F881FD2F70895A0E1B0E031
:1036E000E4E7FBE10C94F11E7C011B016A01FC0183
:1036F00017821682838181FF44C39E012F5F3F4F53
:103700003901F7019381F10193FD859193FF819137
:103710001F01882309F431C3853239F493FD859163
:1037200093FF81911F01853239F4B70190E00E9427
:10373000472156016501E5CF10E0512C912CFFE1A6
:10374000F915D8F08B3279F038F4803279F0833281
:10375000A1F4F92DF0612EC08D3261F0803369F44F
:10376000292D21602DC0392D3260932E892D846042
:10377000982E2AC0E92DE86015C097FC2DC020EDD9
:10378000280F2A3088F496FE06C03AE0139F200DD9
:103790001124122F19C08AE0589E200D1124522E98
:1037A000E92DE0629E2E10C08E3231F496FCE5C207
:1037B000F92DF0649F2E08C08C3621F4292D206845
:1037C000922E02C0883641F4F10193FD859193FF5A
:1037D00081911F018111B3CF9BEB980F933020F49F
:1037E000992D9061805E07C09BE9980F933008F097
:1037F00066C1992D9F7E96FF16E09F73992E8536A0
:1038000019F49064992E08C0863621F4392F306857
:10381000932E02C01111115097FE07C01C3350F4B3
:1038200044244394410E27E00BC0183038F027E0C1
:1038300017E005C027E09CE3492E02C0212F412C50
:10384000560184E0A80EB11CF6016081718182816D
:103850009381042DA3010E9449206C01F981FC870A
:10386000F0FF02C0F3FF06C091FC06C092FE06C046
:1038700000E205C00DE203C00BE201C000E08C8550
:103880008C7019F001115AC29BC297FE10C04C0CEB
:10389000FC85F4FF04C08A81813309F44A9414142E
:1038A00074F528E0241578F588E0482E2CC096FCA5
:1038B0002AC0812F90E08C159D059CF03CEFC3162B
:1038C0003FEFD30674F0892D8068982E0AC0E2E09D
:1038D000F0E0EC0FFD1FE10FF11D8081803319F442
:1038E00011501111F4CF97FE0EC044244394410EA1
:1038F000812F90E0C816D9062CF41C1904C044246A
:10390000439401C010E097FE06C01C141D0434F45B
:10391000C601019605C085E090E002C081E090E01C
:1039200001110196112331F0212F30E02F5F3F4F1D
:10393000820F931F252D30E08217930714F4581A35
:1039400001C0512C892D897049F4552039F0B701F7
:1039500080E290E00E9447215A94F7CF002329F09B
:10396000B701802F90E00E94472193FC09C05520A9
:1039700039F0B70180E390E00E9447215A94F7CFD5
:1039800097FE4CC04601D7FE02C0812C912CC60187
:1039900088199909F301E80FF91FFE87ED87960151
:1039A00024193109388B2F87012F10E011950195CB
:1039B00011093FEF8316930629F4B7018EE290E0D8
:1039C0000E944721C814D9044CF08F859889881526
:1039D000990524F4ED85FE85818101C080E3F1E045
:1039E0008F1A91082D853E852F5F3F4F3E872D878B
:1039F000801691062CF0B70190E00E944721D9CFA4
:103A0000C814D90441F49A81963320F4953319F4FB
:103A10003C8534FF81E3B70190E04EC08A81813359
:103A200019F09C859F7E9C87B70190E00E944721FA
:103A3000111105C094FC18C085E690E017C0B701CD
:103A40008EE290E00E9447211E5F82E001E0080FB5
:103A5000F301E80FF11D8081B70190E00E9447213A
:103A6000802F0113F3CFE6CF85E490E0B7010E94E9
:103A70004721D7FC06C0C114D10441F4EC85E4FF12
:103A800005C0D194C194D1088DE201C08BE2B70189
:103A900090E00E94472180E32AE0C216D1042CF076
:103AA0008F5FFAE0CF1AD108F7CFB70190E00E94FC
:103AB0004721B701C601C0960E94472154C18336F1
:103AC00031F0833779F0833509F056C020C05601B4
:103AD00032E0A30EB11CF6018081898301E010E081
:103AE000630112C05601F2E0AF0EB11CF601C080B6
:103AF000D18096FE03C0612F70E002C06FEF7FEFB0
:103B0000C6010E943C218C01F92DFF7714C056019B
:103B100022E0A20EB11CF601C080D18096FE03C047
:103B2000612F70E002C06FEF7FEFC6010E9421217C
:103B30008C01F92DF0689F2EF3FD1AC0852D90E0C1
:103B400008171907A8F4B70180E290E00E94472106
:103B50005A94F4CFF60197FC859197FE81916F01FD
:103B6000B70190E00E94472151105A940150110969
:103B70000115110579F7F7C0843611F0893661F522
:103B8000560197FE09C024E0A20EB11CF601608127
:103B90007181828193810AC0F2E0AF0EB11CF601FF
:103BA00060817181072E000C880B990BF92DFF762F
:103BB0009F2E97FF09C090958095709561957F4FD6
:103BC0008F4F9F4FF0689F2E2AE030E0A3010E94A4
:103BD000A521C82EC6183FC0092D853721F40F7EB8
:103BE0002AE030E01DC0097F8F3691F018F4883547
:103BF00059F0C3C0803719F0883711F0BEC000619A
:103C000004FF09C0046007C094FE08C0066006C037
:103C100028E030E005C020E130E002C020E132E0E1
:103C2000560107FF09C084E0A80EB11CF6016081AF
:103C300071818281938108C0F2E0AF0EB11CF60160
:103C40006081718180E090E0A3010E94A521C82ECF
:103C5000C6180F77902E96FE0BC0092D0E7FC11649
:103C600050F494FE0AC092FC08C0092D0E7E05C0D7
:103C7000DC2C092D03C0DC2C01C0D12E04FF0DC0AB
:103C8000FE01EC0DF11D8081803311F4097E09C025
:103C900002FF06C0D394D39404C0802F867809F025
:103CA000D39403FD11C000FF06C01C2DD51480F471
:103CB000150D1D190DC0D51458F4B70180E290E020
:103CC0000E944721D394F7CFD51410F45D1801C09A
:103CD000512C04FF10C0B70180E390E00E944721FF
:103CE00002FF17C001FD03C088E790E002C088E52D
:103CF00090E0B7010CC0802F867859F001FF02C018
:103D00008BE201C080E207FD8DE2B70190E00E94E6
:103D10004721C11638F4B70180E390E00E944721A3
:103D20001150F7CFCA94F301EC0DF11D8081B7015A
:103D300090E00E944721C110F5CF15C0F4E0F515C1
:103D400060F584E0581A93FE1FC0011127C02C852E
:103D500023FF2AC006EE10E0392D3071932EF801B2
:103D60008491811124C0552009F4E4CCB70180E28C
:103D700090E00E9447215A94F6CFF70186819781FF
:103D800026C08FEF9FEF23C0B70180E290E00E9432
:103D900047215A945110F8CFD8CF512CB701802F1A
:103DA00090E00E944721D3CF0AEE10E0D5CF9110CA
:103DB0008052B70190E00E9447210F5F1F4FCFCF85
:103DC00023E0251510F483E0BDCF512CC0CF6096C1
:103DD000E2E10C940D1FEE0FFF1F0590F491E02D12
:103DE00009942F923F924F925F926F927F928F929F
:103DF0009F92AF92BF92CF92DF92EF92FF920F937A
:103E00001F93CF93DF93CDB7DEB7CA1BDB0B0FB683
:103E1000F894DEBF0FBECDBF09942A883988488840
:103E20005F846E847D848C849B84AA84B984C884D6
:103E3000DF80EE80FD800C811B81AA81B981CE0FCD
:103E4000D11D0FB6F894DEBF0FBECDBFED010895B2
:103E50000F931F93CF93DF938230910510F482E08C
:103E600090E0E0915702F091580220E030E0A0E0AD
:103E7000B0E0309719F140815181028113814817D8
:103E80005907C8F08417950769F4109731F0129616
:103E90000C93129713961C9327C00093570210930C
:103EA000580222C02115310519F04217530718F4A2
:103EB0009A01BD01EF01DF01F801DBCF21153105CA
:103EC000F9F0281B390B2430310580F48A819B815D
:103ED0006115710521F0FB019383828304C09093E7
:103EE000580280935702FE01329644C0FE01E20F51
:103EF000F31F8193919322503109398328833AC06B
:103F00002091550230915602232B41F42091020159
:103F10003091030130935602209355022091000105
:103F2000309101012115310541F42DB73EB7409183
:103F3000040150910501241B350BE0915502F091CD
:103F40005602E217F307A0F42E1B3F0B2817390780
:103F500078F0AC014E5F5F4F2417350748F04E0FE5
:103F60005F1F50935602409355028193919302C074
:103F7000E0E0F0E0CF01DF91CF911F910F91089524
:103F8000CF93DF93009709F481C0FC01329713822D
:103F90001282A0915702B0915802109781F42081AB
:103FA0003181820F931F20915502309156022817BC
:103FB000390751F5F0935602E093550267C0ED01C1
:103FC00020E030E0CE17DF0740F44A815B819E019C
:103FD00041155105F1F0EA01F5CFD383C283408149
:103FE0005181840F951FC817D90759F48881998189
:103FF000840F951F0296918380838A819B8193838E
:1040000082832115310529F4F0935802E093570279
:104010003DC0E901FB83EA8349915991C40FD51F43
:10402000EC17FD0761F480819181840F951F029642
:10403000E90199838883828193819B838A83E0E06D
:10404000F0E012968D919C911397009719F0FD0165
:10405000DC01F7CF8D919C9111979D012E5F3F4F11
:10406000820F931F2091550230915602281739076D
:1040700069F4309729F4109258021092570202C046
:1040800013821282B0935602A0935502DF91CF9112
:104090000895283008F027E03327DA01990F311D01
:1040A00087FD916000966105710539F432602E5FDD
:1040B0003D9330E32A95E1F708959F3F30F0803833
:1040C0007105610509F03C5F3C5F3D93913008F05C
:1040D0008068911DDF93CF931F930F93FF92EF9210
:1040E000192F987F9695E92F96959695E90FFF27BA
:1040F000E85BFE4F99273327EE24FF24A701E70151
:1041000005900894079428F4360FE71EF81E491FFF
:10411000511D660F771F881F991F0694A1F7059000
:10412000079428F4E70EF81E491F561FC11D770F8C
:10413000881F991F661F0694A1F70590079428F41D
:10414000F80E491F561FC71FD11D880F991F661FE4
:10415000771F0694A1F70590079420F4490F561F86
:10416000C71FD81F990F661F771F881F0694A9F7CE
:1041700084911095177041F0D695C795579547953E
:10418000F794E7941A95C1F7EEEEF0E06894159075
:10419000159135916591959105907FE27395E118A0
:1041A000F10A430B560BC90BD009C0F7E10CF11E05
:1041B000431F561FC91FD01D7EF4703311F48A951A
:1041C000E6CFE894015030F0080F0AF400270217F8
:1041D00008F4202F2395022F7A3328F079E37D937A
:1041E0002A95E9F710C07D932A9589F6069497954C
:1041F0006795379517951794E118F10A430B560BFD
:10420000C90BD00998F023957E9173957A3308F005
:1042100070E37C932013B8F77E9170617D9330F04A
:10422000839571E37D9370E32A95E1F71124EF9074
:10423000FF900F911F91CF91DF91992787FD909566
:104240000895FC010590615070400110D8F78095E9
:1042500090958E0F9F1F0895FB01DC0102C0019015
:104260000D9241505040D8F70895DC0101C06D9384
:1042700041505040E0F70895FC01615070400190BA
:104280000110D8F7809590958E0F9F1F08950F937A
:104290001F93CF93DF93FB01238121FD03C08FEF99
:1042A0009FEF2CC022FF16C04681578124813581A3
:1042B0004217530744F4A081B1819D012F5F3F4F06
:1042C000318320838C93268137812F5F3F4F378343
:1042D000268314C08B01EC01FB010084F185E02DE5
:1042E0000995892BE1F6D80116968D919C91179727
:1042F000019617969C938E931697CE01DF91CF91DE
:104300001F910F910895AEE0B0E0E9E8F1E20C945E
:10431000FF1E0D891E8986E08C831A8309838FEF27
:104320009FE79E838D83AE01475E5F4F6F89788DD7
:10433000CE0101960E946E1BEF81F885E00FF11F00
:1043400010822E96E4E00C941B1FFA01AA27283055
:1043500051F1203181F1E8946F936E7F6E5F7F4F52
:104360008F4F9F4FAF4FB1E03ED0B4E03CD0670FCE
:10437000781F891F9A1FA11D680F791F8A1F911D21
:10438000A11D6A0F711D811D911DA11D20D009F471
:1043900068943F912AE0269F11243019305D3193B3
:1043A000DEF6CF010895462F4770405D4193B3E09C
:1043B0000FD0C9F7F6CF462F4F70405D4A3318F043
:1043C000495D31FD4052419302D0A9F7EACFB4E0F4
:1043D000A6959795879577956795BA95C9F70097AC
:1043E0006105710508959B01AC010A2E069457954D
:1043F000479537952795BA95C9F7620F731F841FA4
:0A440000951FA01D0895F894FFCF4A
:10440A000000590220000000803F0000803F0000A9
:10441A00803F0000803F0000803F0000803F000096
:10442A00803F496E6974204F4B005441534B410001
:10443A005441534B42005441534B43005441534B54
:10444A00440058206572726F722025660A0049443A
:0C445A004C4500546D7220537663000046
:00000001FF
