S0180000647574795F6379636C655F736572766F2E7372656349
S11300000C9434000C9446000C9446000C94460066
S11300100C9446000C9446000C9446000C94460044
S11300200C9446000C9446000C9446000C94460034
S11300300C9446000C9446000C9446000C94460024
S11300400C9446000C9446000C9446000C94460014
S11300500C9446000C9446000C9446000C94460004
S11300600C9446000C94460011241FBECFEFD8E038
S1130070DEBFCDBF21E0A0E0B1E001C01D92A03001
S1130080B207E1F70E947D000C94B4000C940000C8
S1130090F89484B1866084B910928500109284002B
S11300A087E893E19093870080938600E0E8F0E08E
S11300B080818068808380818F7B8083808180625F
S11300C0808380818F7E808380818E7F8083808106
S11300D082608083E1E8F0E08081886080838081B1
S11300E0806180838081816080838081826080835D
S11300F080818B7F8083789408950E944800A8E8CB
S1130100B0E04DE750E0EAE8F0E021E732E08AEFC2
S113011090E011965C934E93318320836FEF7DE3DF
S1130120C9E461507040C040E1F700C0000011967E
S11301309C938E93518340836FEF7DE3C9E46150B8
S11301407040C040E1F700C0000011963C932E932C
S1130150918380836FEF7DE3C9E461507040C040B8
S10F0160E1F700C00000D5CFF894FFCFF9
S9030000FC
